{
    "solace_swap/contracts/Multicall2.sol": {
        "Multicall2": {
            "abi": [
                {
                    "inputs": [
                        {
                            "components": [
                                {
                                    "internalType": "address",
                                    "name": "target",
                                    "type": "address"
                                },
                                {
                                    "internalType": "bytes",
                                    "name": "callData",
                                    "type": "bytes"
                                }
                            ],
                            "internalType": "struct Multicall2.Call[]",
                            "name": "calls",
                            "type": "tuple[]"
                        }
                    ],
                    "name": "aggregate",
                    "outputs": [
                        {
                            "internalType": "uint256",
                            "name": "blockNumber",
                            "type": "uint256"
                        },
                        {
                            "internalType": "bytes[]",
                            "name": "returnData",
                            "type": "bytes[]"
                        }
                    ],
                    "stateMutability": "nonpayable",
                    "type": "function"
                },
                {
                    "inputs": [
                        {
                            "components": [
                                {
                                    "internalType": "address",
                                    "name": "target",
                                    "type": "address"
                                },
                                {
                                    "internalType": "bytes",
                                    "name": "callData",
                                    "type": "bytes"
                                }
                            ],
                            "internalType": "struct Multicall2.Call[]",
                            "name": "calls",
                            "type": "tuple[]"
                        }
                    ],
                    "name": "blockAndAggregate",
                    "outputs": [
                        {
                            "internalType": "uint256",
                            "name": "blockNumber",
                            "type": "uint256"
                        },
                        {
                            "internalType": "bytes32",
                            "name": "blockHash",
                            "type": "bytes32"
                        },
                        {
                            "components": [
                                {
                                    "internalType": "bool",
                                    "name": "success",
                                    "type": "bool"
                                },
                                {
                                    "internalType": "bytes",
                                    "name": "returnData",
                                    "type": "bytes"
                                }
                            ],
                            "internalType": "struct Multicall2.Result[]",
                            "name": "returnData",
                            "type": "tuple[]"
                        }
                    ],
                    "stateMutability": "nonpayable",
                    "type": "function"
                },
                {
                    "inputs": [
                        {
                            "internalType": "uint256",
                            "name": "blockNumber",
                            "type": "uint256"
                        }
                    ],
                    "name": "getBlockHash",
                    "outputs": [
                        {
                            "internalType": "bytes32",
                            "name": "blockHash",
                            "type": "bytes32"
                        }
                    ],
                    "stateMutability": "view",
                    "type": "function"
                },
                {
                    "inputs": [],
                    "name": "getBlockNumber",
                    "outputs": [
                        {
                            "internalType": "uint256",
                            "name": "blockNumber",
                            "type": "uint256"
                        }
                    ],
                    "stateMutability": "view",
                    "type": "function"
                },
                {
                    "inputs": [],
                    "name": "getCurrentBlockCoinbase",
                    "outputs": [
                        {
                            "internalType": "address",
                            "name": "coinbase",
                            "type": "address"
                        }
                    ],
                    "stateMutability": "view",
                    "type": "function"
                },
                {
                    "inputs": [],
                    "name": "getCurrentBlockDifficulty",
                    "outputs": [
                        {
                            "internalType": "uint256",
                            "name": "difficulty",
                            "type": "uint256"
                        }
                    ],
                    "stateMutability": "view",
                    "type": "function"
                },
                {
                    "inputs": [],
                    "name": "getCurrentBlockGasLimit",
                    "outputs": [
                        {
                            "internalType": "uint256",
                            "name": "gaslimit",
                            "type": "uint256"
                        }
                    ],
                    "stateMutability": "view",
                    "type": "function"
                },
                {
                    "inputs": [],
                    "name": "getCurrentBlockTimestamp",
                    "outputs": [
                        {
                            "internalType": "uint256",
                            "name": "timestamp",
                            "type": "uint256"
                        }
                    ],
                    "stateMutability": "view",
                    "type": "function"
                },
                {
                    "inputs": [
                        {
                            "internalType": "address",
                            "name": "addr",
                            "type": "address"
                        }
                    ],
                    "name": "getEthBalance",
                    "outputs": [
                        {
                            "internalType": "uint256",
                            "name": "balance",
                            "type": "uint256"
                        }
                    ],
                    "stateMutability": "view",
                    "type": "function"
                },
                {
                    "inputs": [],
                    "name": "getLastBlockHash",
                    "outputs": [
                        {
                            "internalType": "bytes32",
                            "name": "blockHash",
                            "type": "bytes32"
                        }
                    ],
                    "stateMutability": "view",
                    "type": "function"
                },
                {
                    "inputs": [
                        {
                            "internalType": "bool",
                            "name": "requireSuccess",
                            "type": "bool"
                        },
                        {
                            "components": [
                                {
                                    "internalType": "address",
                                    "name": "target",
                                    "type": "address"
                                },
                                {
                                    "internalType": "bytes",
                                    "name": "callData",
                                    "type": "bytes"
                                }
                            ],
                            "internalType": "struct Multicall2.Call[]",
                            "name": "calls",
                            "type": "tuple[]"
                        }
                    ],
                    "name": "tryAggregate",
                    "outputs": [
                        {
                            "components": [
                                {
                                    "internalType": "bool",
                                    "name": "success",
                                    "type": "bool"
                                },
                                {
                                    "internalType": "bytes",
                                    "name": "returnData",
                                    "type": "bytes"
                                }
                            ],
                            "internalType": "struct Multicall2.Result[]",
                            "name": "returnData",
                            "type": "tuple[]"
                        }
                    ],
                    "stateMutability": "nonpayable",
                    "type": "function"
                },
                {
                    "inputs": [
                        {
                            "internalType": "bool",
                            "name": "requireSuccess",
                            "type": "bool"
                        },
                        {
                            "components": [
                                {
                                    "internalType": "address",
                                    "name": "target",
                                    "type": "address"
                                },
                                {
                                    "internalType": "bytes",
                                    "name": "callData",
                                    "type": "bytes"
                                }
                            ],
                            "internalType": "struct Multicall2.Call[]",
                            "name": "calls",
                            "type": "tuple[]"
                        }
                    ],
                    "name": "tryBlockAndAggregate",
                    "outputs": [
                        {
                            "internalType": "uint256",
                            "name": "blockNumber",
                            "type": "uint256"
                        },
                        {
                            "internalType": "bytes32",
                            "name": "blockHash",
                            "type": "bytes32"
                        },
                        {
                            "components": [
                                {
                                    "internalType": "bool",
                                    "name": "success",
                                    "type": "bool"
                                },
                                {
                                    "internalType": "bytes",
                                    "name": "returnData",
                                    "type": "bytes"
                                }
                            ],
                            "internalType": "struct Multicall2.Result[]",
                            "name": "returnData",
                            "type": "tuple[]"
                        }
                    ],
                    "stateMutability": "nonpayable",
                    "type": "function"
                }
            ],
            "evm": {
                "bytecode": {
                    "linkReferences": {},
                    "object": "608060405234801561001057600080fd5b506109b6806100206000396000f3fe608060405234801561001057600080fd5b50600436106100d45760003560e01c806372425d9d11610081578063bce38bd71161005b578063bce38bd714610182578063c3077fa9146101a2578063ee82ac5e146101b5576100d4565b806372425d9d1461015d57806386d516e814610165578063a8b0574e1461016d576100d4565b8063399542e9116100b2578063399542e91461012057806342cbb15c146101425780634d2301cc1461014a576100d4565b80630f28c97d146100d9578063252dba42146100f757806327e86d6e14610118575b600080fd5b6100e16101c8565b6040516100ee91906107fe565b60405180910390f35b61010a610105366004610674565b6101cc565b6040516100ee929190610899565b6100e1610318565b61013361012e3660046106af565b610321565b6040516100ee93929190610901565b6100e1610339565b6100e1610158366004610652565b61033d565b6100e1610357565b6100e161035b565b61017561035f565b6040516100ee91906107ca565b6101956101903660046106af565b610363565b6040516100ee91906107eb565b6101336101b0366004610674565b6104c6565b6100e16101c3366004610701565b6104e3565b4290565b8051439060609067ffffffffffffffff811180156101e957600080fd5b5060405190808252806020026020018201604052801561021d57816020015b60608152602001906001900390816102085790505b50905060005b8351811015610312576000606085838151811061023c57fe5b60200260200101516000015173ffffffffffffffffffffffffffffffffffffffff1686848151811061026a57fe5b60200260200101516020015160405161028391906107ae565b6000604051808303816000865af19150503d80600081146102c0576040519150601f19603f3d011682016040523d82523d6000602084013e6102c5565b606091505b5091509150816102f05760405162461bcd60e51b81526004016102e790610864565b60405180910390fd5b808484815181106102fd57fe5b60209081029190910101525050600101610223565b50915091565b60001943014090565b43804060606103308585610363565b90509250925092565b4390565b73ffffffffffffffffffffffffffffffffffffffff163190565b4490565b4590565b4190565b6060815167ffffffffffffffff8111801561037d57600080fd5b506040519080825280602002602001820160405280156103b757816020015b6103a46104e7565b81526020019060019003908161039c5790505b50905060005b82518110156104bf57600060608483815181106103d657fe5b60200260200101516000015173ffffffffffffffffffffffffffffffffffffffff1685848151811061040457fe5b60200260200101516020015160405161041d91906107ae565b6000604051808303816000865af19150503d806000811461045a576040519150601f19603f3d011682016040523d82523d6000602084013e61045f565b606091505b5091509150851561048757816104875760405162461bcd60e51b81526004016102e790610807565b60405180604001604052808315158152602001828152508484815181106104aa57fe5b602090810291909101015250506001016103bd565b5092915050565b60008060606104d6600185610321565b9196909550909350915050565b4090565b60408051808201909152600081526060602082015290565b803573ffffffffffffffffffffffffffffffffffffffff8116811461052357600080fd5b92915050565b600082601f830112610539578081fd5b813567ffffffffffffffff80821115610550578283fd5b602061055f8182850201610929565b838152935080840185820160005b858110156105dd5781358801604080601f19838d0301121561058e57600080fd5b61059781610929565b6105a38c8885016104ff565b81529082013590878211156105b757600080fd5b6105c58c88848601016105e9565b8188015285525050918301919083019060010161056d565b50505050505092915050565b600082601f8301126105f9578081fd5b813567ffffffffffffffff81111561060f578182fd5b610622601f8201601f1916602001610929565b915080825283602082850101111561063957600080fd5b8060208401602084013760009082016020015292915050565b600060208284031215610663578081fd5b61066d83836104ff565b9392505050565b600060208284031215610685578081fd5b813567ffffffffffffffff81111561069b578182fd5b6106a784828501610529565b949350505050565b600080604083850312156106c1578081fd5b823580151581146106d0578182fd5b9150602083013567ffffffffffffffff8111156106eb578182fd5b6106f785828601610529565b9150509250929050565b600060208284031215610712578081fd5b5035919050565b6000815180845260208085018081965082840281019150828601855b858110156107755782840389528151805115158552850151604086860181905261076181870183610782565b9a87019a9550505090840190600101610735565b5091979650505050505050565b6000815180845261079a816020860160208601610950565b601f01601f19169290920160200192915050565b600082516107c0818460208701610950565b9190910192915050565b73ffffffffffffffffffffffffffffffffffffffff91909116815260200190565b60006020825261066d6020830184610719565b90815260200190565b60208082526021908201527f4d756c746963616c6c32206167677265676174653a2063616c6c206661696c6560408201527f6400000000000000000000000000000000000000000000000000000000000000606082015260800190565b6020808252818101527f4d756c746963616c6c206167677265676174653a2063616c6c206661696c6564604082015260600190565b600060408201848352602060408185015281855180845260608601915060608382028701019350828701855b828110156108f357605f198887030184526108e1868351610782565b955092840192908401906001016108c5565b509398975050505050505050565b6000848252836020830152606060408301526109206060830184610719565b95945050505050565b60405181810167ffffffffffffffff8111828210171561094857600080fd5b604052919050565b60005b8381101561096b578181015183820152602001610953565b8381111561097a576000848401525b5050505056fea2646970667358221220955abfc5bf458734d13fa051d42280ffc7b8c714fdd6a2db7797137dff22bcd664736f6c63430007010033",
                    "opcodes": "PUSH1 0x80 PUSH1 0x40 MSTORE CALLVALUE DUP1 ISZERO PUSH2 0x10 JUMPI PUSH1 0x0 DUP1 REVERT JUMPDEST POP PUSH2 0x9B6 DUP1 PUSH2 0x20 PUSH1 0x0 CODECOPY PUSH1 0x0 RETURN INVALID PUSH1 0x80 PUSH1 0x40 MSTORE CALLVALUE DUP1 ISZERO PUSH2 0x10 JUMPI PUSH1 0x0 DUP1 REVERT JUMPDEST POP PUSH1 0x4 CALLDATASIZE LT PUSH2 0xD4 JUMPI PUSH1 0x0 CALLDATALOAD PUSH1 0xE0 SHR DUP1 PUSH4 0x72425D9D GT PUSH2 0x81 JUMPI DUP1 PUSH4 0xBCE38BD7 GT PUSH2 0x5B JUMPI DUP1 PUSH4 0xBCE38BD7 EQ PUSH2 0x182 JUMPI DUP1 PUSH4 0xC3077FA9 EQ PUSH2 0x1A2 JUMPI DUP1 PUSH4 0xEE82AC5E EQ PUSH2 0x1B5 JUMPI PUSH2 0xD4 JUMP JUMPDEST DUP1 PUSH4 0x72425D9D EQ PUSH2 0x15D JUMPI DUP1 PUSH4 0x86D516E8 EQ PUSH2 0x165 JUMPI DUP1 PUSH4 0xA8B0574E EQ PUSH2 0x16D JUMPI PUSH2 0xD4 JUMP JUMPDEST DUP1 PUSH4 0x399542E9 GT PUSH2 0xB2 JUMPI DUP1 PUSH4 0x399542E9 EQ PUSH2 0x120 JUMPI DUP1 PUSH4 0x42CBB15C EQ PUSH2 0x142 JUMPI DUP1 PUSH4 0x4D2301CC EQ PUSH2 0x14A JUMPI PUSH2 0xD4 JUMP JUMPDEST DUP1 PUSH4 0xF28C97D EQ PUSH2 0xD9 JUMPI DUP1 PUSH4 0x252DBA42 EQ PUSH2 0xF7 JUMPI DUP1 PUSH4 0x27E86D6E EQ PUSH2 0x118 JUMPI JUMPDEST PUSH1 0x0 DUP1 REVERT JUMPDEST PUSH2 0xE1 PUSH2 0x1C8 JUMP JUMPDEST PUSH1 0x40 MLOAD PUSH2 0xEE SWAP2 SWAP1 PUSH2 0x7FE JUMP JUMPDEST PUSH1 0x40 MLOAD DUP1 SWAP2 SUB SWAP1 RETURN JUMPDEST PUSH2 0x10A PUSH2 0x105 CALLDATASIZE PUSH1 0x4 PUSH2 0x674 JUMP JUMPDEST PUSH2 0x1CC JUMP JUMPDEST PUSH1 0x40 MLOAD PUSH2 0xEE SWAP3 SWAP2 SWAP1 PUSH2 0x899 JUMP JUMPDEST PUSH2 0xE1 PUSH2 0x318 JUMP JUMPDEST PUSH2 0x133 PUSH2 0x12E CALLDATASIZE PUSH1 0x4 PUSH2 0x6AF JUMP JUMPDEST PUSH2 0x321 JUMP JUMPDEST PUSH1 0x40 MLOAD PUSH2 0xEE SWAP4 SWAP3 SWAP2 SWAP1 PUSH2 0x901 JUMP JUMPDEST PUSH2 0xE1 PUSH2 0x339 JUMP JUMPDEST PUSH2 0xE1 PUSH2 0x158 CALLDATASIZE PUSH1 0x4 PUSH2 0x652 JUMP JUMPDEST PUSH2 0x33D JUMP JUMPDEST PUSH2 0xE1 PUSH2 0x357 JUMP JUMPDEST PUSH2 0xE1 PUSH2 0x35B JUMP JUMPDEST PUSH2 0x175 PUSH2 0x35F JUMP JUMPDEST PUSH1 0x40 MLOAD PUSH2 0xEE SWAP2 SWAP1 PUSH2 0x7CA JUMP JUMPDEST PUSH2 0x195 PUSH2 0x190 CALLDATASIZE PUSH1 0x4 PUSH2 0x6AF JUMP JUMPDEST PUSH2 0x363 JUMP JUMPDEST PUSH1 0x40 MLOAD PUSH2 0xEE SWAP2 SWAP1 PUSH2 0x7EB JUMP JUMPDEST PUSH2 0x133 PUSH2 0x1B0 CALLDATASIZE PUSH1 0x4 PUSH2 0x674 JUMP JUMPDEST PUSH2 0x4C6 JUMP JUMPDEST PUSH2 0xE1 PUSH2 0x1C3 CALLDATASIZE PUSH1 0x4 PUSH2 0x701 JUMP JUMPDEST PUSH2 0x4E3 JUMP JUMPDEST TIMESTAMP SWAP1 JUMP JUMPDEST DUP1 MLOAD NUMBER SWAP1 PUSH1 0x60 SWAP1 PUSH8 0xFFFFFFFFFFFFFFFF DUP2 GT DUP1 ISZERO PUSH2 0x1E9 JUMPI PUSH1 0x0 DUP1 REVERT JUMPDEST POP PUSH1 0x40 MLOAD SWAP1 DUP1 DUP3 MSTORE DUP1 PUSH1 0x20 MUL PUSH1 0x20 ADD DUP3 ADD PUSH1 0x40 MSTORE DUP1 ISZERO PUSH2 0x21D JUMPI DUP2 PUSH1 0x20 ADD JUMPDEST PUSH1 0x60 DUP2 MSTORE PUSH1 0x20 ADD SWAP1 PUSH1 0x1 SWAP1 SUB SWAP1 DUP2 PUSH2 0x208 JUMPI SWAP1 POP JUMPDEST POP SWAP1 POP PUSH1 0x0 JUMPDEST DUP4 MLOAD DUP2 LT ISZERO PUSH2 0x312 JUMPI PUSH1 0x0 PUSH1 0x60 DUP6 DUP4 DUP2 MLOAD DUP2 LT PUSH2 0x23C JUMPI INVALID JUMPDEST PUSH1 0x20 MUL PUSH1 0x20 ADD ADD MLOAD PUSH1 0x0 ADD MLOAD PUSH20 0xFFFFFFFFFFFFFFFFFFFFFFFFFFFFFFFFFFFFFFFF AND DUP7 DUP5 DUP2 MLOAD DUP2 LT PUSH2 0x26A JUMPI INVALID JUMPDEST PUSH1 0x20 MUL PUSH1 0x20 ADD ADD MLOAD PUSH1 0x20 ADD MLOAD PUSH1 0x40 MLOAD PUSH2 0x283 SWAP2 SWAP1 PUSH2 0x7AE JUMP JUMPDEST PUSH1 0x0 PUSH1 0x40 MLOAD DUP1 DUP4 SUB DUP2 PUSH1 0x0 DUP7 GAS CALL SWAP2 POP POP RETURNDATASIZE DUP1 PUSH1 0x0 DUP2 EQ PUSH2 0x2C0 JUMPI PUSH1 0x40 MLOAD SWAP2 POP PUSH1 0x1F NOT PUSH1 0x3F RETURNDATASIZE ADD AND DUP3 ADD PUSH1 0x40 MSTORE RETURNDATASIZE DUP3 MSTORE RETURNDATASIZE PUSH1 0x0 PUSH1 0x20 DUP5 ADD RETURNDATACOPY PUSH2 0x2C5 JUMP JUMPDEST PUSH1 0x60 SWAP2 POP JUMPDEST POP SWAP2 POP SWAP2 POP DUP2 PUSH2 0x2F0 JUMPI PUSH1 0x40 MLOAD PUSH3 0x461BCD PUSH1 0xE5 SHL DUP2 MSTORE PUSH1 0x4 ADD PUSH2 0x2E7 SWAP1 PUSH2 0x864 JUMP JUMPDEST PUSH1 0x40 MLOAD DUP1 SWAP2 SUB SWAP1 REVERT JUMPDEST DUP1 DUP5 DUP5 DUP2 MLOAD DUP2 LT PUSH2 0x2FD JUMPI INVALID JUMPDEST PUSH1 0x20 SWAP1 DUP2 MUL SWAP2 SWAP1 SWAP2 ADD ADD MSTORE POP POP PUSH1 0x1 ADD PUSH2 0x223 JUMP JUMPDEST POP SWAP2 POP SWAP2 JUMP JUMPDEST PUSH1 0x0 NOT NUMBER ADD BLOCKHASH SWAP1 JUMP JUMPDEST NUMBER DUP1 BLOCKHASH PUSH1 0x60 PUSH2 0x330 DUP6 DUP6 PUSH2 0x363 JUMP JUMPDEST SWAP1 POP SWAP3 POP SWAP3 POP SWAP3 JUMP JUMPDEST NUMBER SWAP1 JUMP JUMPDEST PUSH20 0xFFFFFFFFFFFFFFFFFFFFFFFFFFFFFFFFFFFFFFFF AND BALANCE SWAP1 JUMP JUMPDEST DIFFICULTY SWAP1 JUMP JUMPDEST GASLIMIT SWAP1 JUMP JUMPDEST COINBASE SWAP1 JUMP JUMPDEST PUSH1 0x60 DUP2 MLOAD PUSH8 0xFFFFFFFFFFFFFFFF DUP2 GT DUP1 ISZERO PUSH2 0x37D JUMPI PUSH1 0x0 DUP1 REVERT JUMPDEST POP PUSH1 0x40 MLOAD SWAP1 DUP1 DUP3 MSTORE DUP1 PUSH1 0x20 MUL PUSH1 0x20 ADD DUP3 ADD PUSH1 0x40 MSTORE DUP1 ISZERO PUSH2 0x3B7 JUMPI DUP2 PUSH1 0x20 ADD JUMPDEST PUSH2 0x3A4 PUSH2 0x4E7 JUMP JUMPDEST DUP2 MSTORE PUSH1 0x20 ADD SWAP1 PUSH1 0x1 SWAP1 SUB SWAP1 DUP2 PUSH2 0x39C JUMPI SWAP1 POP JUMPDEST POP SWAP1 POP PUSH1 0x0 JUMPDEST DUP3 MLOAD DUP2 LT ISZERO PUSH2 0x4BF JUMPI PUSH1 0x0 PUSH1 0x60 DUP5 DUP4 DUP2 MLOAD DUP2 LT PUSH2 0x3D6 JUMPI INVALID JUMPDEST PUSH1 0x20 MUL PUSH1 0x20 ADD ADD MLOAD PUSH1 0x0 ADD MLOAD PUSH20 0xFFFFFFFFFFFFFFFFFFFFFFFFFFFFFFFFFFFFFFFF AND DUP6 DUP5 DUP2 MLOAD DUP2 LT PUSH2 0x404 JUMPI INVALID JUMPDEST PUSH1 0x20 MUL PUSH1 0x20 ADD ADD MLOAD PUSH1 0x20 ADD MLOAD PUSH1 0x40 MLOAD PUSH2 0x41D SWAP2 SWAP1 PUSH2 0x7AE JUMP JUMPDEST PUSH1 0x0 PUSH1 0x40 MLOAD DUP1 DUP4 SUB DUP2 PUSH1 0x0 DUP7 GAS CALL SWAP2 POP POP RETURNDATASIZE DUP1 PUSH1 0x0 DUP2 EQ PUSH2 0x45A JUMPI PUSH1 0x40 MLOAD SWAP2 POP PUSH1 0x1F NOT PUSH1 0x3F RETURNDATASIZE ADD AND DUP3 ADD PUSH1 0x40 MSTORE RETURNDATASIZE DUP3 MSTORE RETURNDATASIZE PUSH1 0x0 PUSH1 0x20 DUP5 ADD RETURNDATACOPY PUSH2 0x45F JUMP JUMPDEST PUSH1 0x60 SWAP2 POP JUMPDEST POP SWAP2 POP SWAP2 POP DUP6 ISZERO PUSH2 0x487 JUMPI DUP2 PUSH2 0x487 JUMPI PUSH1 0x40 MLOAD PUSH3 0x461BCD PUSH1 0xE5 SHL DUP2 MSTORE PUSH1 0x4 ADD PUSH2 0x2E7 SWAP1 PUSH2 0x807 JUMP JUMPDEST PUSH1 0x40 MLOAD DUP1 PUSH1 0x40 ADD PUSH1 0x40 MSTORE DUP1 DUP4 ISZERO ISZERO DUP2 MSTORE PUSH1 0x20 ADD DUP3 DUP2 MSTORE POP DUP5 DUP5 DUP2 MLOAD DUP2 LT PUSH2 0x4AA JUMPI INVALID JUMPDEST PUSH1 0x20 SWAP1 DUP2 MUL SWAP2 SWAP1 SWAP2 ADD ADD MSTORE POP POP PUSH1 0x1 ADD PUSH2 0x3BD JUMP JUMPDEST POP SWAP3 SWAP2 POP POP JUMP JUMPDEST PUSH1 0x0 DUP1 PUSH1 0x60 PUSH2 0x4D6 PUSH1 0x1 DUP6 PUSH2 0x321 JUMP JUMPDEST SWAP2 SWAP7 SWAP1 SWAP6 POP SWAP1 SWAP4 POP SWAP2 POP POP JUMP JUMPDEST BLOCKHASH SWAP1 JUMP JUMPDEST PUSH1 0x40 DUP1 MLOAD DUP1 DUP3 ADD SWAP1 SWAP2 MSTORE PUSH1 0x0 DUP2 MSTORE PUSH1 0x60 PUSH1 0x20 DUP3 ADD MSTORE SWAP1 JUMP JUMPDEST DUP1 CALLDATALOAD PUSH20 0xFFFFFFFFFFFFFFFFFFFFFFFFFFFFFFFFFFFFFFFF DUP2 AND DUP2 EQ PUSH2 0x523 JUMPI PUSH1 0x0 DUP1 REVERT JUMPDEST SWAP3 SWAP2 POP POP JUMP JUMPDEST PUSH1 0x0 DUP3 PUSH1 0x1F DUP4 ADD SLT PUSH2 0x539 JUMPI DUP1 DUP2 REVERT JUMPDEST DUP2 CALLDATALOAD PUSH8 0xFFFFFFFFFFFFFFFF DUP1 DUP3 GT ISZERO PUSH2 0x550 JUMPI DUP3 DUP4 REVERT JUMPDEST PUSH1 0x20 PUSH2 0x55F DUP2 DUP3 DUP6 MUL ADD PUSH2 0x929 JUMP JUMPDEST DUP4 DUP2 MSTORE SWAP4 POP DUP1 DUP5 ADD DUP6 DUP3 ADD PUSH1 0x0 JUMPDEST DUP6 DUP2 LT ISZERO PUSH2 0x5DD JUMPI DUP2 CALLDATALOAD DUP9 ADD PUSH1 0x40 DUP1 PUSH1 0x1F NOT DUP4 DUP14 SUB ADD SLT ISZERO PUSH2 0x58E JUMPI PUSH1 0x0 DUP1 REVERT JUMPDEST PUSH2 0x597 DUP2 PUSH2 0x929 JUMP JUMPDEST PUSH2 0x5A3 DUP13 DUP9 DUP6 ADD PUSH2 0x4FF JUMP JUMPDEST DUP2 MSTORE SWAP1 DUP3 ADD CALLDATALOAD SWAP1 DUP8 DUP3 GT ISZERO PUSH2 0x5B7 JUMPI PUSH1 0x0 DUP1 REVERT JUMPDEST PUSH2 0x5C5 DUP13 DUP9 DUP5 DUP7 ADD ADD PUSH2 0x5E9 JUMP JUMPDEST DUP2 DUP9 ADD MSTORE DUP6 MSTORE POP POP SWAP2 DUP4 ADD SWAP2 SWAP1 DUP4 ADD SWAP1 PUSH1 0x1 ADD PUSH2 0x56D JUMP JUMPDEST POP POP POP POP POP POP SWAP3 SWAP2 POP POP JUMP JUMPDEST PUSH1 0x0 DUP3 PUSH1 0x1F DUP4 ADD SLT PUSH2 0x5F9 JUMPI DUP1 DUP2 REVERT JUMPDEST DUP2 CALLDATALOAD PUSH8 0xFFFFFFFFFFFFFFFF DUP2 GT ISZERO PUSH2 0x60F JUMPI DUP2 DUP3 REVERT JUMPDEST PUSH2 0x622 PUSH1 0x1F DUP3 ADD PUSH1 0x1F NOT AND PUSH1 0x20 ADD PUSH2 0x929 JUMP JUMPDEST SWAP2 POP DUP1 DUP3 MSTORE DUP4 PUSH1 0x20 DUP3 DUP6 ADD ADD GT ISZERO PUSH2 0x639 JUMPI PUSH1 0x0 DUP1 REVERT JUMPDEST DUP1 PUSH1 0x20 DUP5 ADD PUSH1 0x20 DUP5 ADD CALLDATACOPY PUSH1 0x0 SWAP1 DUP3 ADD PUSH1 0x20 ADD MSTORE SWAP3 SWAP2 POP POP JUMP JUMPDEST PUSH1 0x0 PUSH1 0x20 DUP3 DUP5 SUB SLT ISZERO PUSH2 0x663 JUMPI DUP1 DUP2 REVERT JUMPDEST PUSH2 0x66D DUP4 DUP4 PUSH2 0x4FF JUMP JUMPDEST SWAP4 SWAP3 POP POP POP JUMP JUMPDEST PUSH1 0x0 PUSH1 0x20 DUP3 DUP5 SUB SLT ISZERO PUSH2 0x685 JUMPI DUP1 DUP2 REVERT JUMPDEST DUP2 CALLDATALOAD PUSH8 0xFFFFFFFFFFFFFFFF DUP2 GT ISZERO PUSH2 0x69B JUMPI DUP2 DUP3 REVERT JUMPDEST PUSH2 0x6A7 DUP5 DUP3 DUP6 ADD PUSH2 0x529 JUMP JUMPDEST SWAP5 SWAP4 POP POP POP POP JUMP JUMPDEST PUSH1 0x0 DUP1 PUSH1 0x40 DUP4 DUP6 SUB SLT ISZERO PUSH2 0x6C1 JUMPI DUP1 DUP2 REVERT JUMPDEST DUP3 CALLDATALOAD DUP1 ISZERO ISZERO DUP2 EQ PUSH2 0x6D0 JUMPI DUP2 DUP3 REVERT JUMPDEST SWAP2 POP PUSH1 0x20 DUP4 ADD CALLDATALOAD PUSH8 0xFFFFFFFFFFFFFFFF DUP2 GT ISZERO PUSH2 0x6EB JUMPI DUP2 DUP3 REVERT JUMPDEST PUSH2 0x6F7 DUP6 DUP3 DUP7 ADD PUSH2 0x529 JUMP JUMPDEST SWAP2 POP POP SWAP3 POP SWAP3 SWAP1 POP JUMP JUMPDEST PUSH1 0x0 PUSH1 0x20 DUP3 DUP5 SUB SLT ISZERO PUSH2 0x712 JUMPI DUP1 DUP2 REVERT JUMPDEST POP CALLDATALOAD SWAP2 SWAP1 POP JUMP JUMPDEST PUSH1 0x0 DUP2 MLOAD DUP1 DUP5 MSTORE PUSH1 0x20 DUP1 DUP6 ADD DUP1 DUP2 SWAP7 POP DUP3 DUP5 MUL DUP2 ADD SWAP2 POP DUP3 DUP7 ADD DUP6 JUMPDEST DUP6 DUP2 LT ISZERO PUSH2 0x775 JUMPI DUP3 DUP5 SUB DUP10 MSTORE DUP2 MLOAD DUP1 MLOAD ISZERO ISZERO DUP6 MSTORE DUP6 ADD MLOAD PUSH1 0x40 DUP7 DUP7 ADD DUP2 SWAP1 MSTORE PUSH2 0x761 DUP2 DUP8 ADD DUP4 PUSH2 0x782 JUMP JUMPDEST SWAP11 DUP8 ADD SWAP11 SWAP6 POP POP POP SWAP1 DUP5 ADD SWAP1 PUSH1 0x1 ADD PUSH2 0x735 JUMP JUMPDEST POP SWAP2 SWAP8 SWAP7 POP POP POP POP POP POP POP JUMP JUMPDEST PUSH1 0x0 DUP2 MLOAD DUP1 DUP5 MSTORE PUSH2 0x79A DUP2 PUSH1 0x20 DUP7 ADD PUSH1 0x20 DUP7 ADD PUSH2 0x950 JUMP JUMPDEST PUSH1 0x1F ADD PUSH1 0x1F NOT AND SWAP3 SWAP1 SWAP3 ADD PUSH1 0x20 ADD SWAP3 SWAP2 POP POP JUMP JUMPDEST PUSH1 0x0 DUP3 MLOAD PUSH2 0x7C0 DUP2 DUP5 PUSH1 0x20 DUP8 ADD PUSH2 0x950 JUMP JUMPDEST SWAP2 SWAP1 SWAP2 ADD SWAP3 SWAP2 POP POP JUMP JUMPDEST PUSH20 0xFFFFFFFFFFFFFFFFFFFFFFFFFFFFFFFFFFFFFFFF SWAP2 SWAP1 SWAP2 AND DUP2 MSTORE PUSH1 0x20 ADD SWAP1 JUMP JUMPDEST PUSH1 0x0 PUSH1 0x20 DUP3 MSTORE PUSH2 0x66D PUSH1 0x20 DUP4 ADD DUP5 PUSH2 0x719 JUMP JUMPDEST SWAP1 DUP2 MSTORE PUSH1 0x20 ADD SWAP1 JUMP JUMPDEST PUSH1 0x20 DUP1 DUP3 MSTORE PUSH1 0x21 SWAP1 DUP3 ADD MSTORE PUSH32 0x4D756C746963616C6C32206167677265676174653A2063616C6C206661696C65 PUSH1 0x40 DUP3 ADD MSTORE PUSH32 0x6400000000000000000000000000000000000000000000000000000000000000 PUSH1 0x60 DUP3 ADD MSTORE PUSH1 0x80 ADD SWAP1 JUMP JUMPDEST PUSH1 0x20 DUP1 DUP3 MSTORE DUP2 DUP2 ADD MSTORE PUSH32 0x4D756C746963616C6C206167677265676174653A2063616C6C206661696C6564 PUSH1 0x40 DUP3 ADD MSTORE PUSH1 0x60 ADD SWAP1 JUMP JUMPDEST PUSH1 0x0 PUSH1 0x40 DUP3 ADD DUP5 DUP4 MSTORE PUSH1 0x20 PUSH1 0x40 DUP2 DUP6 ADD MSTORE DUP2 DUP6 MLOAD DUP1 DUP5 MSTORE PUSH1 0x60 DUP7 ADD SWAP2 POP PUSH1 0x60 DUP4 DUP3 MUL DUP8 ADD ADD SWAP4 POP DUP3 DUP8 ADD DUP6 JUMPDEST DUP3 DUP2 LT ISZERO PUSH2 0x8F3 JUMPI PUSH1 0x5F NOT DUP9 DUP8 SUB ADD DUP5 MSTORE PUSH2 0x8E1 DUP7 DUP4 MLOAD PUSH2 0x782 JUMP JUMPDEST SWAP6 POP SWAP3 DUP5 ADD SWAP3 SWAP1 DUP5 ADD SWAP1 PUSH1 0x1 ADD PUSH2 0x8C5 JUMP JUMPDEST POP SWAP4 SWAP9 SWAP8 POP POP POP POP POP POP POP POP JUMP JUMPDEST PUSH1 0x0 DUP5 DUP3 MSTORE DUP4 PUSH1 0x20 DUP4 ADD MSTORE PUSH1 0x60 PUSH1 0x40 DUP4 ADD MSTORE PUSH2 0x920 PUSH1 0x60 DUP4 ADD DUP5 PUSH2 0x719 JUMP JUMPDEST SWAP6 SWAP5 POP POP POP POP POP JUMP JUMPDEST PUSH1 0x40 MLOAD DUP2 DUP2 ADD PUSH8 0xFFFFFFFFFFFFFFFF DUP2 GT DUP3 DUP3 LT OR ISZERO PUSH2 0x948 JUMPI PUSH1 0x0 DUP1 REVERT JUMPDEST PUSH1 0x40 MSTORE SWAP2 SWAP1 POP JUMP JUMPDEST PUSH1 0x0 JUMPDEST DUP4 DUP2 LT ISZERO PUSH2 0x96B JUMPI DUP2 DUP2 ADD MLOAD DUP4 DUP3 ADD MSTORE PUSH1 0x20 ADD PUSH2 0x953 JUMP JUMPDEST DUP4 DUP2 GT ISZERO PUSH2 0x97A JUMPI PUSH1 0x0 DUP5 DUP5 ADD MSTORE JUMPDEST POP POP POP POP JUMP INVALID LOG2 PUSH5 0x6970667358 0x22 SLT KECCAK256 SWAP6 GAS 0xBF 0xC5 0xBF GASLIMIT DUP8 CALLVALUE 0xD1 EXTCODEHASH LOG0 MLOAD 0xD4 0x22 DUP1 SELFDESTRUCT 0xC7 0xB8 0xC7 EQ REVERT 0xD6 LOG2 0xDB PUSH24 0x97137DFF22BCD664736F6C63430007010033000000000000 "
                },
                "methodIdentifiers": {
                    "aggregate((address,bytes)[])": "252dba42",
                    "blockAndAggregate((address,bytes)[])": "c3077fa9",
                    "getBlockHash(uint256)": "ee82ac5e",
                    "getBlockNumber()": "42cbb15c",
                    "getCurrentBlockCoinbase()": "a8b0574e",
                    "getCurrentBlockDifficulty()": "72425d9d",
                    "getCurrentBlockGasLimit()": "86d516e8",
                    "getCurrentBlockTimestamp()": "0f28c97d",
                    "getEthBalance(address)": "4d2301cc",
                    "getLastBlockHash()": "27e86d6e",
                    "tryAggregate(bool,(address,bytes)[])": "bce38bd7",
                    "tryBlockAndAggregate(bool,(address,bytes)[])": "399542e9"
                }
            }
        }
    }
}