{
    "solace_swap/contracts/RewardDistributor.sol": {
        "RewardDistributor": {
            "abi": [
                {
                    "inputs": [
                        {
                            "internalType": "address",
                            "name": "_bribeVault",
                            "type": "address"
                        }
                    ],
                    "stateMutability": "nonpayable",
                    "type": "constructor"
                },
                {
                    "anonymous": false,
                    "inputs": [
                        {
                            "indexed": true,
                            "internalType": "bytes32",
                            "name": "identifier",
                            "type": "bytes32"
                        },
                        {
                            "indexed": true,
                            "internalType": "address",
                            "name": "token",
                            "type": "address"
                        },
                        {
                            "indexed": true,
                            "internalType": "address",
                            "name": "account",
                            "type": "address"
                        },
                        {
                            "indexed": false,
                            "internalType": "uint256",
                            "name": "amount",
                            "type": "uint256"
                        },
                        {
                            "indexed": false,
                            "internalType": "uint256",
                            "name": "updateCount",
                            "type": "uint256"
                        }
                    ],
                    "name": "RewardClaimed",
                    "type": "event"
                },
                {
                    "anonymous": false,
                    "inputs": [
                        {
                            "indexed": true,
                            "internalType": "bytes32",
                            "name": "identifier",
                            "type": "bytes32"
                        },
                        {
                            "indexed": true,
                            "internalType": "address",
                            "name": "token",
                            "type": "address"
                        },
                        {
                            "indexed": false,
                            "internalType": "bytes32",
                            "name": "merkleRoot",
                            "type": "bytes32"
                        },
                        {
                            "indexed": false,
                            "internalType": "bytes32",
                            "name": "proof",
                            "type": "bytes32"
                        },
                        {
                            "indexed": true,
                            "internalType": "uint256",
                            "name": "updateCount",
                            "type": "uint256"
                        }
                    ],
                    "name": "RewardMetadataUpdated",
                    "type": "event"
                },
                {
                    "anonymous": false,
                    "inputs": [
                        {
                            "indexed": true,
                            "internalType": "bytes32",
                            "name": "role",
                            "type": "bytes32"
                        },
                        {
                            "indexed": true,
                            "internalType": "bytes32",
                            "name": "previousAdminRole",
                            "type": "bytes32"
                        },
                        {
                            "indexed": true,
                            "internalType": "bytes32",
                            "name": "newAdminRole",
                            "type": "bytes32"
                        }
                    ],
                    "name": "RoleAdminChanged",
                    "type": "event"
                },
                {
                    "anonymous": false,
                    "inputs": [
                        {
                            "indexed": true,
                            "internalType": "bytes32",
                            "name": "role",
                            "type": "bytes32"
                        },
                        {
                            "indexed": true,
                            "internalType": "address",
                            "name": "account",
                            "type": "address"
                        },
                        {
                            "indexed": true,
                            "internalType": "address",
                            "name": "sender",
                            "type": "address"
                        }
                    ],
                    "name": "RoleGranted",
                    "type": "event"
                },
                {
                    "anonymous": false,
                    "inputs": [
                        {
                            "indexed": true,
                            "internalType": "bytes32",
                            "name": "role",
                            "type": "bytes32"
                        },
                        {
                            "indexed": true,
                            "internalType": "address",
                            "name": "account",
                            "type": "address"
                        },
                        {
                            "indexed": true,
                            "internalType": "address",
                            "name": "sender",
                            "type": "address"
                        }
                    ],
                    "name": "RoleRevoked",
                    "type": "event"
                },
                {
                    "inputs": [],
                    "name": "BRIBE_VAULT",
                    "outputs": [
                        {
                            "internalType": "address",
                            "name": "",
                            "type": "address"
                        }
                    ],
                    "stateMutability": "view",
                    "type": "function"
                },
                {
                    "inputs": [],
                    "name": "DEFAULT_ADMIN_ROLE",
                    "outputs": [
                        {
                            "internalType": "bytes32",
                            "name": "",
                            "type": "bytes32"
                        }
                    ],
                    "stateMutability": "view",
                    "type": "function"
                },
                {
                    "inputs": [
                        {
                            "components": [
                                {
                                    "internalType": "bytes32",
                                    "name": "identifier",
                                    "type": "bytes32"
                                },
                                {
                                    "internalType": "address",
                                    "name": "account",
                                    "type": "address"
                                },
                                {
                                    "internalType": "uint256",
                                    "name": "amount",
                                    "type": "uint256"
                                },
                                {
                                    "internalType": "bytes32[]",
                                    "name": "merkleProof",
                                    "type": "bytes32[]"
                                }
                            ],
                            "internalType": "struct RewardDistributor.Claim[]",
                            "name": "_claims",
                            "type": "tuple[]"
                        }
                    ],
                    "name": "claim",
                    "outputs": [],
                    "stateMutability": "nonpayable",
                    "type": "function"
                },
                {
                    "inputs": [
                        {
                            "internalType": "bytes32",
                            "name": "",
                            "type": "bytes32"
                        },
                        {
                            "internalType": "address",
                            "name": "",
                            "type": "address"
                        }
                    ],
                    "name": "claimed",
                    "outputs": [
                        {
                            "internalType": "uint256",
                            "name": "",
                            "type": "uint256"
                        }
                    ],
                    "stateMutability": "view",
                    "type": "function"
                },
                {
                    "inputs": [
                        {
                            "internalType": "bytes32",
                            "name": "role",
                            "type": "bytes32"
                        }
                    ],
                    "name": "getRoleAdmin",
                    "outputs": [
                        {
                            "internalType": "bytes32",
                            "name": "",
                            "type": "bytes32"
                        }
                    ],
                    "stateMutability": "view",
                    "type": "function"
                },
                {
                    "inputs": [
                        {
                            "internalType": "bytes32",
                            "name": "role",
                            "type": "bytes32"
                        },
                        {
                            "internalType": "address",
                            "name": "account",
                            "type": "address"
                        }
                    ],
                    "name": "grantRole",
                    "outputs": [],
                    "stateMutability": "nonpayable",
                    "type": "function"
                },
                {
                    "inputs": [
                        {
                            "internalType": "bytes32",
                            "name": "role",
                            "type": "bytes32"
                        },
                        {
                            "internalType": "address",
                            "name": "account",
                            "type": "address"
                        }
                    ],
                    "name": "hasRole",
                    "outputs": [
                        {
                            "internalType": "bool",
                            "name": "",
                            "type": "bool"
                        }
                    ],
                    "stateMutability": "view",
                    "type": "function"
                },
                {
                    "inputs": [
                        {
                            "internalType": "bytes32",
                            "name": "role",
                            "type": "bytes32"
                        },
                        {
                            "internalType": "address",
                            "name": "account",
                            "type": "address"
                        }
                    ],
                    "name": "renounceRole",
                    "outputs": [],
                    "stateMutability": "nonpayable",
                    "type": "function"
                },
                {
                    "inputs": [
                        {
                            "internalType": "bytes32",
                            "name": "role",
                            "type": "bytes32"
                        },
                        {
                            "internalType": "address",
                            "name": "account",
                            "type": "address"
                        }
                    ],
                    "name": "revokeRole",
                    "outputs": [],
                    "stateMutability": "nonpayable",
                    "type": "function"
                },
                {
                    "inputs": [
                        {
                            "internalType": "bytes32",
                            "name": "",
                            "type": "bytes32"
                        }
                    ],
                    "name": "rewards",
                    "outputs": [
                        {
                            "internalType": "address",
                            "name": "token",
                            "type": "address"
                        },
                        {
                            "internalType": "bytes32",
                            "name": "merkleRoot",
                            "type": "bytes32"
                        },
                        {
                            "internalType": "bytes32",
                            "name": "proof",
                            "type": "bytes32"
                        },
                        {
                            "internalType": "uint256",
                            "name": "updateCount",
                            "type": "uint256"
                        }
                    ],
                    "stateMutability": "view",
                    "type": "function"
                },
                {
                    "inputs": [
                        {
                            "internalType": "bytes4",
                            "name": "interfaceId",
                            "type": "bytes4"
                        }
                    ],
                    "name": "supportsInterface",
                    "outputs": [
                        {
                            "internalType": "bool",
                            "name": "",
                            "type": "bool"
                        }
                    ],
                    "stateMutability": "view",
                    "type": "function"
                },
                {
                    "inputs": [
                        {
                            "components": [
                                {
                                    "internalType": "bytes32",
                                    "name": "identifier",
                                    "type": "bytes32"
                                },
                                {
                                    "internalType": "address",
                                    "name": "token",
                                    "type": "address"
                                },
                                {
                                    "internalType": "bytes32",
                                    "name": "merkleRoot",
                                    "type": "bytes32"
                                },
                                {
                                    "internalType": "bytes32",
                                    "name": "proof",
                                    "type": "bytes32"
                                }
                            ],
                            "internalType": "struct Common.Distribution[]",
                            "name": "_distributions",
                            "type": "tuple[]"
                        }
                    ],
                    "name": "updateRewardsMetadata",
                    "outputs": [],
                    "stateMutability": "nonpayable",
                    "type": "function"
                },
                {
                    "stateMutability": "payable",
                    "type": "receive"
                }
            ],
            "evm": {
                "bytecode": {
                    "linkReferences": {},
                    "object": "60a06040523480156200001157600080fd5b506040516200189538038062001895833981016040819052620000349162000148565b600180556001600160a01b0381166200006a5760405162461bcd60e51b8152600401620000619062000178565b60405180910390fd5b6001600160601b0319606082901b166080526200008960003362000090565b50620001a4565b6200009c82826200011b565b62000117576000828152602081815260408083206001600160a01b03851684529091529020805460ff19166001179055620000d662000144565b6001600160a01b0316816001600160a01b0316837f2f8788117e7eff1d82e926ec794901d17c78024a50270940304540a733656f0d60405160405180910390a45b5050565b6000918252602082815260408084206001600160a01b0393909316845291905290205460ff1690565b3390565b6000602082840312156200015a578081fd5b81516001600160a01b038116811462000171578182fd5b9392505050565b602080825260129082015271125b9d985b1a5908189c9a589955985d5b1d60721b604082015260600190565b60805160601c6116ca620001cb6000398060db528061051a52806109d152506116ca6000f3fe6080604052600436106100cb5760003560e01c8063938d967a11610074578063d547741f1161004e578063d547741f14610272578063df45c75214610292578063dfcae622146102b257610123565b8063938d967a1461020b578063a217fddf1461023b578063be309bca1461025057610123565b806336568abe116100a557806336568abe146101ab57806356853398146101cb57806391d14854146101eb57610123565b806301ffc9a714610128578063248a9ca31461015e5780632f2ff15d1461018b57610123565b3661012357336001600160a01b037f000000000000000000000000000000000000000000000000000000000000000016146101215760405162461bcd60e51b815260040161011890611401565b60405180910390fd5b005b600080fd5b34801561013457600080fd5b5061014861014336600461110d565b6102d2565b6040516101559190611283565b60405180910390f35b34801561016a57600080fd5b5061017e6101793660046110c9565b61032e565b604051610155919061128e565b34801561019757600080fd5b506101216101a63660046110e1565b610343565b3480156101b757600080fd5b506101216101c63660046110e1565b61036c565b3480156101d757600080fd5b506101216101e6366004610fdc565b6103b2565b3480156101f757600080fd5b506101486102063660046110e1565b6104b7565b34801561021757600080fd5b5061022b6102263660046110c9565b6104e0565b6040516101559493929190611244565b34801561024757600080fd5b5061017e610513565b34801561025c57600080fd5b50610265610518565b6040516101559190611230565b34801561027e57600080fd5b5061012161028d3660046110e1565b61053c565b34801561029e57600080fd5b506101216102ad36600461104b565b61055b565b3480156102be57600080fd5b5061017e6102cd3660046110e1565b610694565b60007fffffffff0000000000000000000000000000000000000000000000000000000082167f7965db0b0000000000000000000000000000000000000000000000000000000014806103285750610328826106b1565b92915050565b60009081526020819052604090206001015490565b61034c8261032e565b61035d816103586106fb565b6106ff565b6103678383610763565b505050565b6103746106fb565b6001600160a01b0316816001600160a01b0316146103a45760405162461bcd60e51b8152600401610118906115a8565b6103ae82826107e8565b5050565b600260015414156103d55760405162461bcd60e51b815260040161011890611503565b6002600155806103f75760405162461bcd60e51b81526004016101189061153a565b60005b818110156104ae576104a683838381811061041157fe5b90506020028101906104239190611653565b3584848481811061043057fe5b90506020028101906104429190611653565b610453906040810190602001610fc1565b85858581811061045f57fe5b90506020028101906104719190611653565b6040013586868681811061048157fe5b90506020028101906104939190611653565b6104a1906060810190611605565b61086b565b6001016103fa565b50506001805550565b6000918252602082815260408084206001600160a01b0393909316845291905290205460ff1690565b600260208190526000918252604090912080546001820154928201546003909201546001600160a01b0390911692919084565b600081565b7f000000000000000000000000000000000000000000000000000000000000000081565b6105458261032e565b610551816103586106fb565b61036783836107e8565b6000610569816103586106fb565b816105865760405162461bcd60e51b8152600401610118906113ca565b60005b8281101561068e573684848381811061059e57fe5b6080029190910180356000908152600260209081526040918290209294509192506105ce91908401908401610fc1565b81547fffffffffffffffffffffffff0000000000000000000000000000000000000000166001600160a01b03919091161781556040820180356001808401919091556060840135600284015560038301805490910190819055906106359060208501610fc1565b6001600160a01b031683600001357f1d0b6716ec306cca1346fdec2c918d00831bd1239f2d28acf62e94f2373355fc8560400135866060013560405161067c929190611182565b60405180910390a45050600101610589565b50505050565b600360209081526000928352604080842090915290825290205481565b7fffffffff0000000000000000000000000000000000000000000000000000000081167f01ffc9a70000000000000000000000000000000000000000000000000000000014919050565b3390565b61070982826104b7565b6103ae57610721816001600160a01b03166014610aed565b61072c836020610aed565b60405160200161073d9291906111af565b60408051601f198184030181529082905262461bcd60e51b825261011891600401611297565b61076d82826104b7565b6103ae576000828152602081815260408083206001600160a01b03851684529091529020805460ff191660011790556107a46106fb565b6001600160a01b0316816001600160a01b0316837f2f8788117e7eff1d82e926ec794901d17c78024a50270940304540a733656f0d60405160405180910390a45050565b6107f282826104b7565b156103ae576000828152602081815260408083206001600160a01b03851684529091529020805460ff191690556108276106fb565b6001600160a01b0316816001600160a01b0316837ff6391f5c32d9c69d2a47ea670b442974b53935d1edc7fd64eb21e047a839171b60405160405180910390a45050565b610873610f83565b50600085815260026020818152604092839020835160808101855281546001600160a01b03168152600182015492810183905292810154938301939093526003909201546060820152906108d95760405162461bcd60e51b815260040161011890611571565b6109438383808060200260200160405190810160405280939291908181526020018383602002808284376000920191909152505050602080850151604051909250610928918a918a910161114d565b60405160208183030381529060405280519060200120610caa565b61095f5760405162461bcd60e51b81526004016101189061146f565b60008681526003602090815260408083206001600160a01b038916845290915290205484116109a05760405162461bcd60e51b815260040161011890611393565b60008681526003602090815260408083206001600160a01b03898116855292529091208054908690558251908603917f0000000000000000000000000000000000000000000000000000000000000000811690821614610a1357610a0e6001600160a01b0382168884610cc0565b610a91565b6000876001600160a01b031683604051610a2c906111ac565b60006040518083038185875af1925050503d8060008114610a69576040519150601f19603f3d011682016040523d82523d6000602084013e610a6e565b606091505b5050905080610a8f5760405162461bcd60e51b8152600401610118906112ff565b505b866001600160a01b0316816001600160a01b0316897fe97327a75925a1929d8a2cc8d1344ac8e15a997f071c43097349293d970929ab858760600151604051610adb929190611182565b60405180910390a45050505050505050565b6060808260020260020167ffffffffffffffff81118015610b0d57600080fd5b506040519080825280601f01601f191660200182016040528015610b38576020820181803683370190505b5090507f300000000000000000000000000000000000000000000000000000000000000081600081518110610b6957fe5b60200101907effffffffffffffffffffffffffffffffffffffffffffffffffffffffffffff1916908160001a9053507f780000000000000000000000000000000000000000000000000000000000000081600181518110610bc657fe5b60200101907effffffffffffffffffffffffffffffffffffffffffffffffffffffffffffff1916908160001a905350600160028402015b6001811115610c84577f303132333435363738396162636465660000000000000000000000000000000085600f1660108110610c3557fe5b1a60f81b828281518110610c4557fe5b60200101907effffffffffffffffffffffffffffffffffffffffffffffffffffffffffffff1916908160001a90535060049490941c9360001901610bfd565b508315610ca35760405162461bcd60e51b8152600401610118906112ca565b9392505050565b600082610cb78584610d43565b14949350505050565b6103678363a9059cbb60e01b8484604051602401610cdf92919061126a565b60408051601f198184030181529190526020810180517bffffffffffffffffffffffffffffffffffffffffffffffffffffffff167fffffffff0000000000000000000000000000000000000000000000000000000090931692909217909152610ddd565b600081815b8451811015610dd5576000858281518110610d5f57fe5b60200260200101519050808311610da0578281604051602001610d83929190611182565b604051602081830303815290604052805190602001209250610dcc565b8083604051602001610db3929190611182565b6040516020818303038152906040528051906020012092505b50600101610d48565b509392505050565b6060610e32826040518060400160405280602081526020017f5361666545524332303a206c6f772d6c6576656c2063616c6c206661696c6564815250856001600160a01b0316610e6c9092919063ffffffff16565b8051909150156103675780806020019051810190610e5091906110a9565b6103675760405162461bcd60e51b8152600401610118906114a6565b6060610e7b8484600085610e83565b949350505050565b606082471015610ea55760405162461bcd60e51b815260040161011890611336565b610eae85610f44565b610eca5760405162461bcd60e51b815260040161011890611438565b60006060866001600160a01b03168587604051610ee79190611190565b60006040518083038185875af1925050503d8060008114610f24576040519150601f19603f3d011682016040523d82523d6000602084013e610f29565b606091505b5091509150610f39828286610f4a565b979650505050505050565b3b151590565b60608315610f59575081610ca3565b825115610f695782518084602001fd5b8160405162461bcd60e51b81526004016101189190611297565b60408051608081018252600080825260208201819052918101829052606081019190915290565b80356001600160a01b038116811461032857600080fd5b600060208284031215610fd2578081fd5b610ca38383610faa565b60008060208385031215610fee578081fd5b823567ffffffffffffffff80821115611005578283fd5b818501915085601f830112611018578283fd5b813581811115611026578384fd5b8660208083028501011115611039578384fd5b60209290920196919550909350505050565b6000806020838503121561105d578182fd5b823567ffffffffffffffff80821115611074578384fd5b818501915085601f830112611087578384fd5b813581811115611095578485fd5b866020608083028501011115611039578485fd5b6000602082840312156110ba578081fd5b81518015158114610ca3578182fd5b6000602082840312156110da578081fd5b5035919050565b600080604083850312156110f3578182fd5b823591506111048460208501610faa565b90509250929050565b60006020828403121561111e578081fd5b81357fffffffff0000000000000000000000000000000000000000000000000000000081168114610ca3578182fd5b60609290921b7fffffffffffffffffffffffffffffffffffffffff000000000000000000000000168252601482015260340190565b918252602082015260400190565b600082516111a2818460208701611668565b9190910192915050565b90565b60007f416363657373436f6e74726f6c3a206163636f756e7420000000000000000000825283516111e7816017850160208801611668565b7f206973206d697373696e6720726f6c65200000000000000000000000000000006017918401918201528351611224816028840160208801611668565b01602801949350505050565b6001600160a01b0391909116815260200190565b6001600160a01b0394909416845260208401929092526040830152606082015260800190565b6001600160a01b03929092168252602082015260400190565b901515815260200190565b90815260200190565b60006020825282518060208401526112b6816040850160208701611668565b601f01601f19169190910160400192915050565b6020808252818101527f537472696e67733a20686578206c656e67746820696e73756666696369656e74604082015260600190565b6020808252601e908201527f4661696c656420746f207472616e7366657220746f205f6163636f756e740000604082015260600190565b60208082526026908201527f416464726573733a20696e73756666696369656e742062616c616e636520666f60408201527f722063616c6c0000000000000000000000000000000000000000000000000000606082015260800190565b60208082526013908201527f4e6f20636c61696d61626c652072657761726400000000000000000000000000604082015260600190565b60208082526016908201527f496e76616c6964205f646973747269627574696f6e7300000000000000000000604082015260600190565b6020808252600f908201527f4e6f742042524942455f5641554c540000000000000000000000000000000000604082015260600190565b6020808252601d908201527f416464726573733a2063616c6c20746f206e6f6e2d636f6e7472616374000000604082015260600190565b6020808252600d908201527f496e76616c69642070726f6f6600000000000000000000000000000000000000604082015260600190565b6020808252602a908201527f5361666545524332303a204552433230206f7065726174696f6e20646964206e60408201527f6f74207375636365656400000000000000000000000000000000000000000000606082015260800190565b6020808252601f908201527f5265656e7472616e637947756172643a207265656e7472616e742063616c6c00604082015260600190565b6020808252600f908201527f496e76616c6964205f636c61696d730000000000000000000000000000000000604082015260600190565b60208082526018908201527f446973747269627574696f6e206e6f7420656e61626c65640000000000000000604082015260600190565b6020808252602f908201527f416363657373436f6e74726f6c3a2063616e206f6e6c792072656e6f756e636560408201527f20726f6c657320666f722073656c660000000000000000000000000000000000606082015260800190565b6000808335601e1984360301811261161b578283fd5b83018035915067ffffffffffffffff821115611635578283fd5b602090810192508102360382131561164c57600080fd5b9250929050565b60008235607e198336030181126111a2578182fd5b60005b8381101561168357818101518382015260200161166b565b8381111561068e575050600091015256fea2646970667358221220c22f014253ea92901a675769d80bfabbced3c7517f0504e713587bed219be25164736f6c63430007010033",
                    "opcodes": "PUSH1 0xA0 PUSH1 0x40 MSTORE CALLVALUE DUP1 ISZERO PUSH3 0x11 JUMPI PUSH1 0x0 DUP1 REVERT JUMPDEST POP PUSH1 0x40 MLOAD PUSH3 0x1895 CODESIZE SUB DUP1 PUSH3 0x1895 DUP4 CODECOPY DUP2 ADD PUSH1 0x40 DUP2 SWAP1 MSTORE PUSH3 0x34 SWAP2 PUSH3 0x148 JUMP JUMPDEST PUSH1 0x1 DUP1 SSTORE PUSH1 0x1 PUSH1 0x1 PUSH1 0xA0 SHL SUB DUP2 AND PUSH3 0x6A JUMPI PUSH1 0x40 MLOAD PUSH3 0x461BCD PUSH1 0xE5 SHL DUP2 MSTORE PUSH1 0x4 ADD PUSH3 0x61 SWAP1 PUSH3 0x178 JUMP JUMPDEST PUSH1 0x40 MLOAD DUP1 SWAP2 SUB SWAP1 REVERT JUMPDEST PUSH1 0x1 PUSH1 0x1 PUSH1 0x60 SHL SUB NOT PUSH1 0x60 DUP3 SWAP1 SHL AND PUSH1 0x80 MSTORE PUSH3 0x89 PUSH1 0x0 CALLER PUSH3 0x90 JUMP JUMPDEST POP PUSH3 0x1A4 JUMP JUMPDEST PUSH3 0x9C DUP3 DUP3 PUSH3 0x11B JUMP JUMPDEST PUSH3 0x117 JUMPI PUSH1 0x0 DUP3 DUP2 MSTORE PUSH1 0x20 DUP2 DUP2 MSTORE PUSH1 0x40 DUP1 DUP4 KECCAK256 PUSH1 0x1 PUSH1 0x1 PUSH1 0xA0 SHL SUB DUP6 AND DUP5 MSTORE SWAP1 SWAP2 MSTORE SWAP1 KECCAK256 DUP1 SLOAD PUSH1 0xFF NOT AND PUSH1 0x1 OR SWAP1 SSTORE PUSH3 0xD6 PUSH3 0x144 JUMP JUMPDEST PUSH1 0x1 PUSH1 0x1 PUSH1 0xA0 SHL SUB AND DUP2 PUSH1 0x1 PUSH1 0x1 PUSH1 0xA0 SHL SUB AND DUP4 PUSH32 0x2F8788117E7EFF1D82E926EC794901D17C78024A50270940304540A733656F0D PUSH1 0x40 MLOAD PUSH1 0x40 MLOAD DUP1 SWAP2 SUB SWAP1 LOG4 JUMPDEST POP POP JUMP JUMPDEST PUSH1 0x0 SWAP2 DUP3 MSTORE PUSH1 0x20 DUP3 DUP2 MSTORE PUSH1 0x40 DUP1 DUP5 KECCAK256 PUSH1 0x1 PUSH1 0x1 PUSH1 0xA0 SHL SUB SWAP4 SWAP1 SWAP4 AND DUP5 MSTORE SWAP2 SWAP1 MSTORE SWAP1 KECCAK256 SLOAD PUSH1 0xFF AND SWAP1 JUMP JUMPDEST CALLER SWAP1 JUMP JUMPDEST PUSH1 0x0 PUSH1 0x20 DUP3 DUP5 SUB SLT ISZERO PUSH3 0x15A JUMPI DUP1 DUP2 REVERT JUMPDEST DUP2 MLOAD PUSH1 0x1 PUSH1 0x1 PUSH1 0xA0 SHL SUB DUP2 AND DUP2 EQ PUSH3 0x171 JUMPI DUP2 DUP3 REVERT JUMPDEST SWAP4 SWAP3 POP POP POP JUMP JUMPDEST PUSH1 0x20 DUP1 DUP3 MSTORE PUSH1 0x12 SWAP1 DUP3 ADD MSTORE PUSH18 0x125B9D985B1A5908189C9A589955985D5B1D PUSH1 0x72 SHL PUSH1 0x40 DUP3 ADD MSTORE PUSH1 0x60 ADD SWAP1 JUMP JUMPDEST PUSH1 0x80 MLOAD PUSH1 0x60 SHR PUSH2 0x16CA PUSH3 0x1CB PUSH1 0x0 CODECOPY DUP1 PUSH1 0xDB MSTORE DUP1 PUSH2 0x51A MSTORE DUP1 PUSH2 0x9D1 MSTORE POP PUSH2 0x16CA PUSH1 0x0 RETURN INVALID PUSH1 0x80 PUSH1 0x40 MSTORE PUSH1 0x4 CALLDATASIZE LT PUSH2 0xCB JUMPI PUSH1 0x0 CALLDATALOAD PUSH1 0xE0 SHR DUP1 PUSH4 0x938D967A GT PUSH2 0x74 JUMPI DUP1 PUSH4 0xD547741F GT PUSH2 0x4E JUMPI DUP1 PUSH4 0xD547741F EQ PUSH2 0x272 JUMPI DUP1 PUSH4 0xDF45C752 EQ PUSH2 0x292 JUMPI DUP1 PUSH4 0xDFCAE622 EQ PUSH2 0x2B2 JUMPI PUSH2 0x123 JUMP JUMPDEST DUP1 PUSH4 0x938D967A EQ PUSH2 0x20B JUMPI DUP1 PUSH4 0xA217FDDF EQ PUSH2 0x23B JUMPI DUP1 PUSH4 0xBE309BCA EQ PUSH2 0x250 JUMPI PUSH2 0x123 JUMP JUMPDEST DUP1 PUSH4 0x36568ABE GT PUSH2 0xA5 JUMPI DUP1 PUSH4 0x36568ABE EQ PUSH2 0x1AB JUMPI DUP1 PUSH4 0x56853398 EQ PUSH2 0x1CB JUMPI DUP1 PUSH4 0x91D14854 EQ PUSH2 0x1EB JUMPI PUSH2 0x123 JUMP JUMPDEST DUP1 PUSH4 0x1FFC9A7 EQ PUSH2 0x128 JUMPI DUP1 PUSH4 0x248A9CA3 EQ PUSH2 0x15E JUMPI DUP1 PUSH4 0x2F2FF15D EQ PUSH2 0x18B JUMPI PUSH2 0x123 JUMP JUMPDEST CALLDATASIZE PUSH2 0x123 JUMPI CALLER PUSH1 0x1 PUSH1 0x1 PUSH1 0xA0 SHL SUB PUSH32 0x0 AND EQ PUSH2 0x121 JUMPI PUSH1 0x40 MLOAD PUSH3 0x461BCD PUSH1 0xE5 SHL DUP2 MSTORE PUSH1 0x4 ADD PUSH2 0x118 SWAP1 PUSH2 0x1401 JUMP JUMPDEST PUSH1 0x40 MLOAD DUP1 SWAP2 SUB SWAP1 REVERT JUMPDEST STOP JUMPDEST PUSH1 0x0 DUP1 REVERT JUMPDEST CALLVALUE DUP1 ISZERO PUSH2 0x134 JUMPI PUSH1 0x0 DUP1 REVERT JUMPDEST POP PUSH2 0x148 PUSH2 0x143 CALLDATASIZE PUSH1 0x4 PUSH2 0x110D JUMP JUMPDEST PUSH2 0x2D2 JUMP JUMPDEST PUSH1 0x40 MLOAD PUSH2 0x155 SWAP2 SWAP1 PUSH2 0x1283 JUMP JUMPDEST PUSH1 0x40 MLOAD DUP1 SWAP2 SUB SWAP1 RETURN JUMPDEST CALLVALUE DUP1 ISZERO PUSH2 0x16A JUMPI PUSH1 0x0 DUP1 REVERT JUMPDEST POP PUSH2 0x17E PUSH2 0x179 CALLDATASIZE PUSH1 0x4 PUSH2 0x10C9 JUMP JUMPDEST PUSH2 0x32E JUMP JUMPDEST PUSH1 0x40 MLOAD PUSH2 0x155 SWAP2 SWAP1 PUSH2 0x128E JUMP JUMPDEST CALLVALUE DUP1 ISZERO PUSH2 0x197 JUMPI PUSH1 0x0 DUP1 REVERT JUMPDEST POP PUSH2 0x121 PUSH2 0x1A6 CALLDATASIZE PUSH1 0x4 PUSH2 0x10E1 JUMP JUMPDEST PUSH2 0x343 JUMP JUMPDEST CALLVALUE DUP1 ISZERO PUSH2 0x1B7 JUMPI PUSH1 0x0 DUP1 REVERT JUMPDEST POP PUSH2 0x121 PUSH2 0x1C6 CALLDATASIZE PUSH1 0x4 PUSH2 0x10E1 JUMP JUMPDEST PUSH2 0x36C JUMP JUMPDEST CALLVALUE DUP1 ISZERO PUSH2 0x1D7 JUMPI PUSH1 0x0 DUP1 REVERT JUMPDEST POP PUSH2 0x121 PUSH2 0x1E6 CALLDATASIZE PUSH1 0x4 PUSH2 0xFDC JUMP JUMPDEST PUSH2 0x3B2 JUMP JUMPDEST CALLVALUE DUP1 ISZERO PUSH2 0x1F7 JUMPI PUSH1 0x0 DUP1 REVERT JUMPDEST POP PUSH2 0x148 PUSH2 0x206 CALLDATASIZE PUSH1 0x4 PUSH2 0x10E1 JUMP JUMPDEST PUSH2 0x4B7 JUMP JUMPDEST CALLVALUE DUP1 ISZERO PUSH2 0x217 JUMPI PUSH1 0x0 DUP1 REVERT JUMPDEST POP PUSH2 0x22B PUSH2 0x226 CALLDATASIZE PUSH1 0x4 PUSH2 0x10C9 JUMP JUMPDEST PUSH2 0x4E0 JUMP JUMPDEST PUSH1 0x40 MLOAD PUSH2 0x155 SWAP5 SWAP4 SWAP3 SWAP2 SWAP1 PUSH2 0x1244 JUMP JUMPDEST CALLVALUE DUP1 ISZERO PUSH2 0x247 JUMPI PUSH1 0x0 DUP1 REVERT JUMPDEST POP PUSH2 0x17E PUSH2 0x513 JUMP JUMPDEST CALLVALUE DUP1 ISZERO PUSH2 0x25C JUMPI PUSH1 0x0 DUP1 REVERT JUMPDEST POP PUSH2 0x265 PUSH2 0x518 JUMP JUMPDEST PUSH1 0x40 MLOAD PUSH2 0x155 SWAP2 SWAP1 PUSH2 0x1230 JUMP JUMPDEST CALLVALUE DUP1 ISZERO PUSH2 0x27E JUMPI PUSH1 0x0 DUP1 REVERT JUMPDEST POP PUSH2 0x121 PUSH2 0x28D CALLDATASIZE PUSH1 0x4 PUSH2 0x10E1 JUMP JUMPDEST PUSH2 0x53C JUMP JUMPDEST CALLVALUE DUP1 ISZERO PUSH2 0x29E JUMPI PUSH1 0x0 DUP1 REVERT JUMPDEST POP PUSH2 0x121 PUSH2 0x2AD CALLDATASIZE PUSH1 0x4 PUSH2 0x104B JUMP JUMPDEST PUSH2 0x55B JUMP JUMPDEST CALLVALUE DUP1 ISZERO PUSH2 0x2BE JUMPI PUSH1 0x0 DUP1 REVERT JUMPDEST POP PUSH2 0x17E PUSH2 0x2CD CALLDATASIZE PUSH1 0x4 PUSH2 0x10E1 JUMP JUMPDEST PUSH2 0x694 JUMP JUMPDEST PUSH1 0x0 PUSH32 0xFFFFFFFF00000000000000000000000000000000000000000000000000000000 DUP3 AND PUSH32 0x7965DB0B00000000000000000000000000000000000000000000000000000000 EQ DUP1 PUSH2 0x328 JUMPI POP PUSH2 0x328 DUP3 PUSH2 0x6B1 JUMP JUMPDEST SWAP3 SWAP2 POP POP JUMP JUMPDEST PUSH1 0x0 SWAP1 DUP2 MSTORE PUSH1 0x20 DUP2 SWAP1 MSTORE PUSH1 0x40 SWAP1 KECCAK256 PUSH1 0x1 ADD SLOAD SWAP1 JUMP JUMPDEST PUSH2 0x34C DUP3 PUSH2 0x32E JUMP JUMPDEST PUSH2 0x35D DUP2 PUSH2 0x358 PUSH2 0x6FB JUMP JUMPDEST PUSH2 0x6FF JUMP JUMPDEST PUSH2 0x367 DUP4 DUP4 PUSH2 0x763 JUMP JUMPDEST POP POP POP JUMP JUMPDEST PUSH2 0x374 PUSH2 0x6FB JUMP JUMPDEST PUSH1 0x1 PUSH1 0x1 PUSH1 0xA0 SHL SUB AND DUP2 PUSH1 0x1 PUSH1 0x1 PUSH1 0xA0 SHL SUB AND EQ PUSH2 0x3A4 JUMPI PUSH1 0x40 MLOAD PUSH3 0x461BCD PUSH1 0xE5 SHL DUP2 MSTORE PUSH1 0x4 ADD PUSH2 0x118 SWAP1 PUSH2 0x15A8 JUMP JUMPDEST PUSH2 0x3AE DUP3 DUP3 PUSH2 0x7E8 JUMP JUMPDEST POP POP JUMP JUMPDEST PUSH1 0x2 PUSH1 0x1 SLOAD EQ ISZERO PUSH2 0x3D5 JUMPI PUSH1 0x40 MLOAD PUSH3 0x461BCD PUSH1 0xE5 SHL DUP2 MSTORE PUSH1 0x4 ADD PUSH2 0x118 SWAP1 PUSH2 0x1503 JUMP JUMPDEST PUSH1 0x2 PUSH1 0x1 SSTORE DUP1 PUSH2 0x3F7 JUMPI PUSH1 0x40 MLOAD PUSH3 0x461BCD PUSH1 0xE5 SHL DUP2 MSTORE PUSH1 0x4 ADD PUSH2 0x118 SWAP1 PUSH2 0x153A JUMP JUMPDEST PUSH1 0x0 JUMPDEST DUP2 DUP2 LT ISZERO PUSH2 0x4AE JUMPI PUSH2 0x4A6 DUP4 DUP4 DUP4 DUP2 DUP2 LT PUSH2 0x411 JUMPI INVALID JUMPDEST SWAP1 POP PUSH1 0x20 MUL DUP2 ADD SWAP1 PUSH2 0x423 SWAP2 SWAP1 PUSH2 0x1653 JUMP JUMPDEST CALLDATALOAD DUP5 DUP5 DUP5 DUP2 DUP2 LT PUSH2 0x430 JUMPI INVALID JUMPDEST SWAP1 POP PUSH1 0x20 MUL DUP2 ADD SWAP1 PUSH2 0x442 SWAP2 SWAP1 PUSH2 0x1653 JUMP JUMPDEST PUSH2 0x453 SWAP1 PUSH1 0x40 DUP2 ADD SWAP1 PUSH1 0x20 ADD PUSH2 0xFC1 JUMP JUMPDEST DUP6 DUP6 DUP6 DUP2 DUP2 LT PUSH2 0x45F JUMPI INVALID JUMPDEST SWAP1 POP PUSH1 0x20 MUL DUP2 ADD SWAP1 PUSH2 0x471 SWAP2 SWAP1 PUSH2 0x1653 JUMP JUMPDEST PUSH1 0x40 ADD CALLDATALOAD DUP7 DUP7 DUP7 DUP2 DUP2 LT PUSH2 0x481 JUMPI INVALID JUMPDEST SWAP1 POP PUSH1 0x20 MUL DUP2 ADD SWAP1 PUSH2 0x493 SWAP2 SWAP1 PUSH2 0x1653 JUMP JUMPDEST PUSH2 0x4A1 SWAP1 PUSH1 0x60 DUP2 ADD SWAP1 PUSH2 0x1605 JUMP JUMPDEST PUSH2 0x86B JUMP JUMPDEST PUSH1 0x1 ADD PUSH2 0x3FA JUMP JUMPDEST POP POP PUSH1 0x1 DUP1 SSTORE POP JUMP JUMPDEST PUSH1 0x0 SWAP2 DUP3 MSTORE PUSH1 0x20 DUP3 DUP2 MSTORE PUSH1 0x40 DUP1 DUP5 KECCAK256 PUSH1 0x1 PUSH1 0x1 PUSH1 0xA0 SHL SUB SWAP4 SWAP1 SWAP4 AND DUP5 MSTORE SWAP2 SWAP1 MSTORE SWAP1 KECCAK256 SLOAD PUSH1 0xFF AND SWAP1 JUMP JUMPDEST PUSH1 0x2 PUSH1 0x20 DUP2 SWAP1 MSTORE PUSH1 0x0 SWAP2 DUP3 MSTORE PUSH1 0x40 SWAP1 SWAP2 KECCAK256 DUP1 SLOAD PUSH1 0x1 DUP3 ADD SLOAD SWAP3 DUP3 ADD SLOAD PUSH1 0x3 SWAP1 SWAP3 ADD SLOAD PUSH1 0x1 PUSH1 0x1 PUSH1 0xA0 SHL SUB SWAP1 SWAP2 AND SWAP3 SWAP2 SWAP1 DUP5 JUMP JUMPDEST PUSH1 0x0 DUP2 JUMP JUMPDEST PUSH32 0x0 DUP2 JUMP JUMPDEST PUSH2 0x545 DUP3 PUSH2 0x32E JUMP JUMPDEST PUSH2 0x551 DUP2 PUSH2 0x358 PUSH2 0x6FB JUMP JUMPDEST PUSH2 0x367 DUP4 DUP4 PUSH2 0x7E8 JUMP JUMPDEST PUSH1 0x0 PUSH2 0x569 DUP2 PUSH2 0x358 PUSH2 0x6FB JUMP JUMPDEST DUP2 PUSH2 0x586 JUMPI PUSH1 0x40 MLOAD PUSH3 0x461BCD PUSH1 0xE5 SHL DUP2 MSTORE PUSH1 0x4 ADD PUSH2 0x118 SWAP1 PUSH2 0x13CA JUMP JUMPDEST PUSH1 0x0 JUMPDEST DUP3 DUP2 LT ISZERO PUSH2 0x68E JUMPI CALLDATASIZE DUP5 DUP5 DUP4 DUP2 DUP2 LT PUSH2 0x59E JUMPI INVALID JUMPDEST PUSH1 0x80 MUL SWAP2 SWAP1 SWAP2 ADD DUP1 CALLDATALOAD PUSH1 0x0 SWAP1 DUP2 MSTORE PUSH1 0x2 PUSH1 0x20 SWAP1 DUP2 MSTORE PUSH1 0x40 SWAP2 DUP3 SWAP1 KECCAK256 SWAP3 SWAP5 POP SWAP2 SWAP3 POP PUSH2 0x5CE SWAP2 SWAP1 DUP5 ADD SWAP1 DUP5 ADD PUSH2 0xFC1 JUMP JUMPDEST DUP2 SLOAD PUSH32 0xFFFFFFFFFFFFFFFFFFFFFFFF0000000000000000000000000000000000000000 AND PUSH1 0x1 PUSH1 0x1 PUSH1 0xA0 SHL SUB SWAP2 SWAP1 SWAP2 AND OR DUP2 SSTORE PUSH1 0x40 DUP3 ADD DUP1 CALLDATALOAD PUSH1 0x1 DUP1 DUP5 ADD SWAP2 SWAP1 SWAP2 SSTORE PUSH1 0x60 DUP5 ADD CALLDATALOAD PUSH1 0x2 DUP5 ADD SSTORE PUSH1 0x3 DUP4 ADD DUP1 SLOAD SWAP1 SWAP2 ADD SWAP1 DUP2 SWAP1 SSTORE SWAP1 PUSH2 0x635 SWAP1 PUSH1 0x20 DUP6 ADD PUSH2 0xFC1 JUMP JUMPDEST PUSH1 0x1 PUSH1 0x1 PUSH1 0xA0 SHL SUB AND DUP4 PUSH1 0x0 ADD CALLDATALOAD PUSH32 0x1D0B6716EC306CCA1346FDEC2C918D00831BD1239F2D28ACF62E94F2373355FC DUP6 PUSH1 0x40 ADD CALLDATALOAD DUP7 PUSH1 0x60 ADD CALLDATALOAD PUSH1 0x40 MLOAD PUSH2 0x67C SWAP3 SWAP2 SWAP1 PUSH2 0x1182 JUMP JUMPDEST PUSH1 0x40 MLOAD DUP1 SWAP2 SUB SWAP1 LOG4 POP POP PUSH1 0x1 ADD PUSH2 0x589 JUMP JUMPDEST POP POP POP POP JUMP JUMPDEST PUSH1 0x3 PUSH1 0x20 SWAP1 DUP2 MSTORE PUSH1 0x0 SWAP3 DUP4 MSTORE PUSH1 0x40 DUP1 DUP5 KECCAK256 SWAP1 SWAP2 MSTORE SWAP1 DUP3 MSTORE SWAP1 KECCAK256 SLOAD DUP2 JUMP JUMPDEST PUSH32 0xFFFFFFFF00000000000000000000000000000000000000000000000000000000 DUP2 AND PUSH32 0x1FFC9A700000000000000000000000000000000000000000000000000000000 EQ SWAP2 SWAP1 POP JUMP JUMPDEST CALLER SWAP1 JUMP JUMPDEST PUSH2 0x709 DUP3 DUP3 PUSH2 0x4B7 JUMP JUMPDEST PUSH2 0x3AE JUMPI PUSH2 0x721 DUP2 PUSH1 0x1 PUSH1 0x1 PUSH1 0xA0 SHL SUB AND PUSH1 0x14 PUSH2 0xAED JUMP JUMPDEST PUSH2 0x72C DUP4 PUSH1 0x20 PUSH2 0xAED JUMP JUMPDEST PUSH1 0x40 MLOAD PUSH1 0x20 ADD PUSH2 0x73D SWAP3 SWAP2 SWAP1 PUSH2 0x11AF JUMP JUMPDEST PUSH1 0x40 DUP1 MLOAD PUSH1 0x1F NOT DUP2 DUP5 SUB ADD DUP2 MSTORE SWAP1 DUP3 SWAP1 MSTORE PUSH3 0x461BCD PUSH1 0xE5 SHL DUP3 MSTORE PUSH2 0x118 SWAP2 PUSH1 0x4 ADD PUSH2 0x1297 JUMP JUMPDEST PUSH2 0x76D DUP3 DUP3 PUSH2 0x4B7 JUMP JUMPDEST PUSH2 0x3AE JUMPI PUSH1 0x0 DUP3 DUP2 MSTORE PUSH1 0x20 DUP2 DUP2 MSTORE PUSH1 0x40 DUP1 DUP4 KECCAK256 PUSH1 0x1 PUSH1 0x1 PUSH1 0xA0 SHL SUB DUP6 AND DUP5 MSTORE SWAP1 SWAP2 MSTORE SWAP1 KECCAK256 DUP1 SLOAD PUSH1 0xFF NOT AND PUSH1 0x1 OR SWAP1 SSTORE PUSH2 0x7A4 PUSH2 0x6FB JUMP JUMPDEST PUSH1 0x1 PUSH1 0x1 PUSH1 0xA0 SHL SUB AND DUP2 PUSH1 0x1 PUSH1 0x1 PUSH1 0xA0 SHL SUB AND DUP4 PUSH32 0x2F8788117E7EFF1D82E926EC794901D17C78024A50270940304540A733656F0D PUSH1 0x40 MLOAD PUSH1 0x40 MLOAD DUP1 SWAP2 SUB SWAP1 LOG4 POP POP JUMP JUMPDEST PUSH2 0x7F2 DUP3 DUP3 PUSH2 0x4B7 JUMP JUMPDEST ISZERO PUSH2 0x3AE JUMPI PUSH1 0x0 DUP3 DUP2 MSTORE PUSH1 0x20 DUP2 DUP2 MSTORE PUSH1 0x40 DUP1 DUP4 KECCAK256 PUSH1 0x1 PUSH1 0x1 PUSH1 0xA0 SHL SUB DUP6 AND DUP5 MSTORE SWAP1 SWAP2 MSTORE SWAP1 KECCAK256 DUP1 SLOAD PUSH1 0xFF NOT AND SWAP1 SSTORE PUSH2 0x827 PUSH2 0x6FB JUMP JUMPDEST PUSH1 0x1 PUSH1 0x1 PUSH1 0xA0 SHL SUB AND DUP2 PUSH1 0x1 PUSH1 0x1 PUSH1 0xA0 SHL SUB AND DUP4 PUSH32 0xF6391F5C32D9C69D2A47EA670B442974B53935D1EDC7FD64EB21E047A839171B PUSH1 0x40 MLOAD PUSH1 0x40 MLOAD DUP1 SWAP2 SUB SWAP1 LOG4 POP POP JUMP JUMPDEST PUSH2 0x873 PUSH2 0xF83 JUMP JUMPDEST POP PUSH1 0x0 DUP6 DUP2 MSTORE PUSH1 0x2 PUSH1 0x20 DUP2 DUP2 MSTORE PUSH1 0x40 SWAP3 DUP4 SWAP1 KECCAK256 DUP4 MLOAD PUSH1 0x80 DUP2 ADD DUP6 MSTORE DUP2 SLOAD PUSH1 0x1 PUSH1 0x1 PUSH1 0xA0 SHL SUB AND DUP2 MSTORE PUSH1 0x1 DUP3 ADD SLOAD SWAP3 DUP2 ADD DUP4 SWAP1 MSTORE SWAP3 DUP2 ADD SLOAD SWAP4 DUP4 ADD SWAP4 SWAP1 SWAP4 MSTORE PUSH1 0x3 SWAP1 SWAP3 ADD SLOAD PUSH1 0x60 DUP3 ADD MSTORE SWAP1 PUSH2 0x8D9 JUMPI PUSH1 0x40 MLOAD PUSH3 0x461BCD PUSH1 0xE5 SHL DUP2 MSTORE PUSH1 0x4 ADD PUSH2 0x118 SWAP1 PUSH2 0x1571 JUMP JUMPDEST PUSH2 0x943 DUP4 DUP4 DUP1 DUP1 PUSH1 0x20 MUL PUSH1 0x20 ADD PUSH1 0x40 MLOAD SWAP1 DUP2 ADD PUSH1 0x40 MSTORE DUP1 SWAP4 SWAP3 SWAP2 SWAP1 DUP2 DUP2 MSTORE PUSH1 0x20 ADD DUP4 DUP4 PUSH1 0x20 MUL DUP1 DUP3 DUP5 CALLDATACOPY PUSH1 0x0 SWAP3 ADD SWAP2 SWAP1 SWAP2 MSTORE POP POP POP PUSH1 0x20 DUP1 DUP6 ADD MLOAD PUSH1 0x40 MLOAD SWAP1 SWAP3 POP PUSH2 0x928 SWAP2 DUP11 SWAP2 DUP11 SWAP2 ADD PUSH2 0x114D JUMP JUMPDEST PUSH1 0x40 MLOAD PUSH1 0x20 DUP2 DUP4 SUB SUB DUP2 MSTORE SWAP1 PUSH1 0x40 MSTORE DUP1 MLOAD SWAP1 PUSH1 0x20 ADD KECCAK256 PUSH2 0xCAA JUMP JUMPDEST PUSH2 0x95F JUMPI PUSH1 0x40 MLOAD PUSH3 0x461BCD PUSH1 0xE5 SHL DUP2 MSTORE PUSH1 0x4 ADD PUSH2 0x118 SWAP1 PUSH2 0x146F JUMP JUMPDEST PUSH1 0x0 DUP7 DUP2 MSTORE PUSH1 0x3 PUSH1 0x20 SWAP1 DUP2 MSTORE PUSH1 0x40 DUP1 DUP4 KECCAK256 PUSH1 0x1 PUSH1 0x1 PUSH1 0xA0 SHL SUB DUP10 AND DUP5 MSTORE SWAP1 SWAP2 MSTORE SWAP1 KECCAK256 SLOAD DUP5 GT PUSH2 0x9A0 JUMPI PUSH1 0x40 MLOAD PUSH3 0x461BCD PUSH1 0xE5 SHL DUP2 MSTORE PUSH1 0x4 ADD PUSH2 0x118 SWAP1 PUSH2 0x1393 JUMP JUMPDEST PUSH1 0x0 DUP7 DUP2 MSTORE PUSH1 0x3 PUSH1 0x20 SWAP1 DUP2 MSTORE PUSH1 0x40 DUP1 DUP4 KECCAK256 PUSH1 0x1 PUSH1 0x1 PUSH1 0xA0 SHL SUB DUP10 DUP2 AND DUP6 MSTORE SWAP3 MSTORE SWAP1 SWAP2 KECCAK256 DUP1 SLOAD SWAP1 DUP7 SWAP1 SSTORE DUP3 MLOAD SWAP1 DUP7 SUB SWAP2 PUSH32 0x0 DUP2 AND SWAP1 DUP3 AND EQ PUSH2 0xA13 JUMPI PUSH2 0xA0E PUSH1 0x1 PUSH1 0x1 PUSH1 0xA0 SHL SUB DUP3 AND DUP9 DUP5 PUSH2 0xCC0 JUMP JUMPDEST PUSH2 0xA91 JUMP JUMPDEST PUSH1 0x0 DUP8 PUSH1 0x1 PUSH1 0x1 PUSH1 0xA0 SHL SUB AND DUP4 PUSH1 0x40 MLOAD PUSH2 0xA2C SWAP1 PUSH2 0x11AC JUMP JUMPDEST PUSH1 0x0 PUSH1 0x40 MLOAD DUP1 DUP4 SUB DUP2 DUP6 DUP8 GAS CALL SWAP3 POP POP POP RETURNDATASIZE DUP1 PUSH1 0x0 DUP2 EQ PUSH2 0xA69 JUMPI PUSH1 0x40 MLOAD SWAP2 POP PUSH1 0x1F NOT PUSH1 0x3F RETURNDATASIZE ADD AND DUP3 ADD PUSH1 0x40 MSTORE RETURNDATASIZE DUP3 MSTORE RETURNDATASIZE PUSH1 0x0 PUSH1 0x20 DUP5 ADD RETURNDATACOPY PUSH2 0xA6E JUMP JUMPDEST PUSH1 0x60 SWAP2 POP JUMPDEST POP POP SWAP1 POP DUP1 PUSH2 0xA8F JUMPI PUSH1 0x40 MLOAD PUSH3 0x461BCD PUSH1 0xE5 SHL DUP2 MSTORE PUSH1 0x4 ADD PUSH2 0x118 SWAP1 PUSH2 0x12FF JUMP JUMPDEST POP JUMPDEST DUP7 PUSH1 0x1 PUSH1 0x1 PUSH1 0xA0 SHL SUB AND DUP2 PUSH1 0x1 PUSH1 0x1 PUSH1 0xA0 SHL SUB AND DUP10 PUSH32 0xE97327A75925A1929D8A2CC8D1344AC8E15A997F071C43097349293D970929AB DUP6 DUP8 PUSH1 0x60 ADD MLOAD PUSH1 0x40 MLOAD PUSH2 0xADB SWAP3 SWAP2 SWAP1 PUSH2 0x1182 JUMP JUMPDEST PUSH1 0x40 MLOAD DUP1 SWAP2 SUB SWAP1 LOG4 POP POP POP POP POP POP POP POP JUMP JUMPDEST PUSH1 0x60 DUP1 DUP3 PUSH1 0x2 MUL PUSH1 0x2 ADD PUSH8 0xFFFFFFFFFFFFFFFF DUP2 GT DUP1 ISZERO PUSH2 0xB0D JUMPI PUSH1 0x0 DUP1 REVERT JUMPDEST POP PUSH1 0x40 MLOAD SWAP1 DUP1 DUP3 MSTORE DUP1 PUSH1 0x1F ADD PUSH1 0x1F NOT AND PUSH1 0x20 ADD DUP3 ADD PUSH1 0x40 MSTORE DUP1 ISZERO PUSH2 0xB38 JUMPI PUSH1 0x20 DUP3 ADD DUP2 DUP1 CALLDATASIZE DUP4 CALLDATACOPY ADD SWAP1 POP JUMPDEST POP SWAP1 POP PUSH32 0x3000000000000000000000000000000000000000000000000000000000000000 DUP2 PUSH1 0x0 DUP2 MLOAD DUP2 LT PUSH2 0xB69 JUMPI INVALID JUMPDEST PUSH1 0x20 ADD ADD SWAP1 PUSH31 0xFFFFFFFFFFFFFFFFFFFFFFFFFFFFFFFFFFFFFFFFFFFFFFFFFFFFFFFFFFFFFF NOT AND SWAP1 DUP2 PUSH1 0x0 BYTE SWAP1 MSTORE8 POP PUSH32 0x7800000000000000000000000000000000000000000000000000000000000000 DUP2 PUSH1 0x1 DUP2 MLOAD DUP2 LT PUSH2 0xBC6 JUMPI INVALID JUMPDEST PUSH1 0x20 ADD ADD SWAP1 PUSH31 0xFFFFFFFFFFFFFFFFFFFFFFFFFFFFFFFFFFFFFFFFFFFFFFFFFFFFFFFFFFFFFF NOT AND SWAP1 DUP2 PUSH1 0x0 BYTE SWAP1 MSTORE8 POP PUSH1 0x1 PUSH1 0x2 DUP5 MUL ADD JUMPDEST PUSH1 0x1 DUP2 GT ISZERO PUSH2 0xC84 JUMPI PUSH32 0x3031323334353637383961626364656600000000000000000000000000000000 DUP6 PUSH1 0xF AND PUSH1 0x10 DUP2 LT PUSH2 0xC35 JUMPI INVALID JUMPDEST BYTE PUSH1 0xF8 SHL DUP3 DUP3 DUP2 MLOAD DUP2 LT PUSH2 0xC45 JUMPI INVALID JUMPDEST PUSH1 0x20 ADD ADD SWAP1 PUSH31 0xFFFFFFFFFFFFFFFFFFFFFFFFFFFFFFFFFFFFFFFFFFFFFFFFFFFFFFFFFFFFFF NOT AND SWAP1 DUP2 PUSH1 0x0 BYTE SWAP1 MSTORE8 POP PUSH1 0x4 SWAP5 SWAP1 SWAP5 SHR SWAP4 PUSH1 0x0 NOT ADD PUSH2 0xBFD JUMP JUMPDEST POP DUP4 ISZERO PUSH2 0xCA3 JUMPI PUSH1 0x40 MLOAD PUSH3 0x461BCD PUSH1 0xE5 SHL DUP2 MSTORE PUSH1 0x4 ADD PUSH2 0x118 SWAP1 PUSH2 0x12CA JUMP JUMPDEST SWAP4 SWAP3 POP POP POP JUMP JUMPDEST PUSH1 0x0 DUP3 PUSH2 0xCB7 DUP6 DUP5 PUSH2 0xD43 JUMP JUMPDEST EQ SWAP5 SWAP4 POP POP POP POP JUMP JUMPDEST PUSH2 0x367 DUP4 PUSH4 0xA9059CBB PUSH1 0xE0 SHL DUP5 DUP5 PUSH1 0x40 MLOAD PUSH1 0x24 ADD PUSH2 0xCDF SWAP3 SWAP2 SWAP1 PUSH2 0x126A JUMP JUMPDEST PUSH1 0x40 DUP1 MLOAD PUSH1 0x1F NOT DUP2 DUP5 SUB ADD DUP2 MSTORE SWAP2 SWAP1 MSTORE PUSH1 0x20 DUP2 ADD DUP1 MLOAD PUSH28 0xFFFFFFFFFFFFFFFFFFFFFFFFFFFFFFFFFFFFFFFFFFFFFFFFFFFFFFFF AND PUSH32 0xFFFFFFFF00000000000000000000000000000000000000000000000000000000 SWAP1 SWAP4 AND SWAP3 SWAP1 SWAP3 OR SWAP1 SWAP2 MSTORE PUSH2 0xDDD JUMP JUMPDEST PUSH1 0x0 DUP2 DUP2 JUMPDEST DUP5 MLOAD DUP2 LT ISZERO PUSH2 0xDD5 JUMPI PUSH1 0x0 DUP6 DUP3 DUP2 MLOAD DUP2 LT PUSH2 0xD5F JUMPI INVALID JUMPDEST PUSH1 0x20 MUL PUSH1 0x20 ADD ADD MLOAD SWAP1 POP DUP1 DUP4 GT PUSH2 0xDA0 JUMPI DUP3 DUP2 PUSH1 0x40 MLOAD PUSH1 0x20 ADD PUSH2 0xD83 SWAP3 SWAP2 SWAP1 PUSH2 0x1182 JUMP JUMPDEST PUSH1 0x40 MLOAD PUSH1 0x20 DUP2 DUP4 SUB SUB DUP2 MSTORE SWAP1 PUSH1 0x40 MSTORE DUP1 MLOAD SWAP1 PUSH1 0x20 ADD KECCAK256 SWAP3 POP PUSH2 0xDCC JUMP JUMPDEST DUP1 DUP4 PUSH1 0x40 MLOAD PUSH1 0x20 ADD PUSH2 0xDB3 SWAP3 SWAP2 SWAP1 PUSH2 0x1182 JUMP JUMPDEST PUSH1 0x40 MLOAD PUSH1 0x20 DUP2 DUP4 SUB SUB DUP2 MSTORE SWAP1 PUSH1 0x40 MSTORE DUP1 MLOAD SWAP1 PUSH1 0x20 ADD KECCAK256 SWAP3 POP JUMPDEST POP PUSH1 0x1 ADD PUSH2 0xD48 JUMP JUMPDEST POP SWAP4 SWAP3 POP POP POP JUMP JUMPDEST PUSH1 0x60 PUSH2 0xE32 DUP3 PUSH1 0x40 MLOAD DUP1 PUSH1 0x40 ADD PUSH1 0x40 MSTORE DUP1 PUSH1 0x20 DUP2 MSTORE PUSH1 0x20 ADD PUSH32 0x5361666545524332303A206C6F772D6C6576656C2063616C6C206661696C6564 DUP2 MSTORE POP DUP6 PUSH1 0x1 PUSH1 0x1 PUSH1 0xA0 SHL SUB AND PUSH2 0xE6C SWAP1 SWAP3 SWAP2 SWAP1 PUSH4 0xFFFFFFFF AND JUMP JUMPDEST DUP1 MLOAD SWAP1 SWAP2 POP ISZERO PUSH2 0x367 JUMPI DUP1 DUP1 PUSH1 0x20 ADD SWAP1 MLOAD DUP2 ADD SWAP1 PUSH2 0xE50 SWAP2 SWAP1 PUSH2 0x10A9 JUMP JUMPDEST PUSH2 0x367 JUMPI PUSH1 0x40 MLOAD PUSH3 0x461BCD PUSH1 0xE5 SHL DUP2 MSTORE PUSH1 0x4 ADD PUSH2 0x118 SWAP1 PUSH2 0x14A6 JUMP JUMPDEST PUSH1 0x60 PUSH2 0xE7B DUP5 DUP5 PUSH1 0x0 DUP6 PUSH2 0xE83 JUMP JUMPDEST SWAP5 SWAP4 POP POP POP POP JUMP JUMPDEST PUSH1 0x60 DUP3 SELFBALANCE LT ISZERO PUSH2 0xEA5 JUMPI PUSH1 0x40 MLOAD PUSH3 0x461BCD PUSH1 0xE5 SHL DUP2 MSTORE PUSH1 0x4 ADD PUSH2 0x118 SWAP1 PUSH2 0x1336 JUMP JUMPDEST PUSH2 0xEAE DUP6 PUSH2 0xF44 JUMP JUMPDEST PUSH2 0xECA JUMPI PUSH1 0x40 MLOAD PUSH3 0x461BCD PUSH1 0xE5 SHL DUP2 MSTORE PUSH1 0x4 ADD PUSH2 0x118 SWAP1 PUSH2 0x1438 JUMP JUMPDEST PUSH1 0x0 PUSH1 0x60 DUP7 PUSH1 0x1 PUSH1 0x1 PUSH1 0xA0 SHL SUB AND DUP6 DUP8 PUSH1 0x40 MLOAD PUSH2 0xEE7 SWAP2 SWAP1 PUSH2 0x1190 JUMP JUMPDEST PUSH1 0x0 PUSH1 0x40 MLOAD DUP1 DUP4 SUB DUP2 DUP6 DUP8 GAS CALL SWAP3 POP POP POP RETURNDATASIZE DUP1 PUSH1 0x0 DUP2 EQ PUSH2 0xF24 JUMPI PUSH1 0x40 MLOAD SWAP2 POP PUSH1 0x1F NOT PUSH1 0x3F RETURNDATASIZE ADD AND DUP3 ADD PUSH1 0x40 MSTORE RETURNDATASIZE DUP3 MSTORE RETURNDATASIZE PUSH1 0x0 PUSH1 0x20 DUP5 ADD RETURNDATACOPY PUSH2 0xF29 JUMP JUMPDEST PUSH1 0x60 SWAP2 POP JUMPDEST POP SWAP2 POP SWAP2 POP PUSH2 0xF39 DUP3 DUP3 DUP7 PUSH2 0xF4A JUMP JUMPDEST SWAP8 SWAP7 POP POP POP POP POP POP POP JUMP JUMPDEST EXTCODESIZE ISZERO ISZERO SWAP1 JUMP JUMPDEST PUSH1 0x60 DUP4 ISZERO PUSH2 0xF59 JUMPI POP DUP2 PUSH2 0xCA3 JUMP JUMPDEST DUP3 MLOAD ISZERO PUSH2 0xF69 JUMPI DUP3 MLOAD DUP1 DUP5 PUSH1 0x20 ADD REVERT JUMPDEST DUP2 PUSH1 0x40 MLOAD PUSH3 0x461BCD PUSH1 0xE5 SHL DUP2 MSTORE PUSH1 0x4 ADD PUSH2 0x118 SWAP2 SWAP1 PUSH2 0x1297 JUMP JUMPDEST PUSH1 0x40 DUP1 MLOAD PUSH1 0x80 DUP2 ADD DUP3 MSTORE PUSH1 0x0 DUP1 DUP3 MSTORE PUSH1 0x20 DUP3 ADD DUP2 SWAP1 MSTORE SWAP2 DUP2 ADD DUP3 SWAP1 MSTORE PUSH1 0x60 DUP2 ADD SWAP2 SWAP1 SWAP2 MSTORE SWAP1 JUMP JUMPDEST DUP1 CALLDATALOAD PUSH1 0x1 PUSH1 0x1 PUSH1 0xA0 SHL SUB DUP2 AND DUP2 EQ PUSH2 0x328 JUMPI PUSH1 0x0 DUP1 REVERT JUMPDEST PUSH1 0x0 PUSH1 0x20 DUP3 DUP5 SUB SLT ISZERO PUSH2 0xFD2 JUMPI DUP1 DUP2 REVERT JUMPDEST PUSH2 0xCA3 DUP4 DUP4 PUSH2 0xFAA JUMP JUMPDEST PUSH1 0x0 DUP1 PUSH1 0x20 DUP4 DUP6 SUB SLT ISZERO PUSH2 0xFEE JUMPI DUP1 DUP2 REVERT JUMPDEST DUP3 CALLDATALOAD PUSH8 0xFFFFFFFFFFFFFFFF DUP1 DUP3 GT ISZERO PUSH2 0x1005 JUMPI DUP3 DUP4 REVERT JUMPDEST DUP2 DUP6 ADD SWAP2 POP DUP6 PUSH1 0x1F DUP4 ADD SLT PUSH2 0x1018 JUMPI DUP3 DUP4 REVERT JUMPDEST DUP2 CALLDATALOAD DUP2 DUP2 GT ISZERO PUSH2 0x1026 JUMPI DUP4 DUP5 REVERT JUMPDEST DUP7 PUSH1 0x20 DUP1 DUP4 MUL DUP6 ADD ADD GT ISZERO PUSH2 0x1039 JUMPI DUP4 DUP5 REVERT JUMPDEST PUSH1 0x20 SWAP3 SWAP1 SWAP3 ADD SWAP7 SWAP2 SWAP6 POP SWAP1 SWAP4 POP POP POP POP JUMP JUMPDEST PUSH1 0x0 DUP1 PUSH1 0x20 DUP4 DUP6 SUB SLT ISZERO PUSH2 0x105D JUMPI DUP2 DUP3 REVERT JUMPDEST DUP3 CALLDATALOAD PUSH8 0xFFFFFFFFFFFFFFFF DUP1 DUP3 GT ISZERO PUSH2 0x1074 JUMPI DUP4 DUP5 REVERT JUMPDEST DUP2 DUP6 ADD SWAP2 POP DUP6 PUSH1 0x1F DUP4 ADD SLT PUSH2 0x1087 JUMPI DUP4 DUP5 REVERT JUMPDEST DUP2 CALLDATALOAD DUP2 DUP2 GT ISZERO PUSH2 0x1095 JUMPI DUP5 DUP6 REVERT JUMPDEST DUP7 PUSH1 0x20 PUSH1 0x80 DUP4 MUL DUP6 ADD ADD GT ISZERO PUSH2 0x1039 JUMPI DUP5 DUP6 REVERT JUMPDEST PUSH1 0x0 PUSH1 0x20 DUP3 DUP5 SUB SLT ISZERO PUSH2 0x10BA JUMPI DUP1 DUP2 REVERT JUMPDEST DUP2 MLOAD DUP1 ISZERO ISZERO DUP2 EQ PUSH2 0xCA3 JUMPI DUP2 DUP3 REVERT JUMPDEST PUSH1 0x0 PUSH1 0x20 DUP3 DUP5 SUB SLT ISZERO PUSH2 0x10DA JUMPI DUP1 DUP2 REVERT JUMPDEST POP CALLDATALOAD SWAP2 SWAP1 POP JUMP JUMPDEST PUSH1 0x0 DUP1 PUSH1 0x40 DUP4 DUP6 SUB SLT ISZERO PUSH2 0x10F3 JUMPI DUP2 DUP3 REVERT JUMPDEST DUP3 CALLDATALOAD SWAP2 POP PUSH2 0x1104 DUP5 PUSH1 0x20 DUP6 ADD PUSH2 0xFAA JUMP JUMPDEST SWAP1 POP SWAP3 POP SWAP3 SWAP1 POP JUMP JUMPDEST PUSH1 0x0 PUSH1 0x20 DUP3 DUP5 SUB SLT ISZERO PUSH2 0x111E JUMPI DUP1 DUP2 REVERT JUMPDEST DUP2 CALLDATALOAD PUSH32 0xFFFFFFFF00000000000000000000000000000000000000000000000000000000 DUP2 AND DUP2 EQ PUSH2 0xCA3 JUMPI DUP2 DUP3 REVERT JUMPDEST PUSH1 0x60 SWAP3 SWAP1 SWAP3 SHL PUSH32 0xFFFFFFFFFFFFFFFFFFFFFFFFFFFFFFFFFFFFFFFF000000000000000000000000 AND DUP3 MSTORE PUSH1 0x14 DUP3 ADD MSTORE PUSH1 0x34 ADD SWAP1 JUMP JUMPDEST SWAP2 DUP3 MSTORE PUSH1 0x20 DUP3 ADD MSTORE PUSH1 0x40 ADD SWAP1 JUMP JUMPDEST PUSH1 0x0 DUP3 MLOAD PUSH2 0x11A2 DUP2 DUP5 PUSH1 0x20 DUP8 ADD PUSH2 0x1668 JUMP JUMPDEST SWAP2 SWAP1 SWAP2 ADD SWAP3 SWAP2 POP POP JUMP JUMPDEST SWAP1 JUMP JUMPDEST PUSH1 0x0 PUSH32 0x416363657373436F6E74726F6C3A206163636F756E7420000000000000000000 DUP3 MSTORE DUP4 MLOAD PUSH2 0x11E7 DUP2 PUSH1 0x17 DUP6 ADD PUSH1 0x20 DUP9 ADD PUSH2 0x1668 JUMP JUMPDEST PUSH32 0x206973206D697373696E6720726F6C6520000000000000000000000000000000 PUSH1 0x17 SWAP2 DUP5 ADD SWAP2 DUP3 ADD MSTORE DUP4 MLOAD PUSH2 0x1224 DUP2 PUSH1 0x28 DUP5 ADD PUSH1 0x20 DUP9 ADD PUSH2 0x1668 JUMP JUMPDEST ADD PUSH1 0x28 ADD SWAP5 SWAP4 POP POP POP POP JUMP JUMPDEST PUSH1 0x1 PUSH1 0x1 PUSH1 0xA0 SHL SUB SWAP2 SWAP1 SWAP2 AND DUP2 MSTORE PUSH1 0x20 ADD SWAP1 JUMP JUMPDEST PUSH1 0x1 PUSH1 0x1 PUSH1 0xA0 SHL SUB SWAP5 SWAP1 SWAP5 AND DUP5 MSTORE PUSH1 0x20 DUP5 ADD SWAP3 SWAP1 SWAP3 MSTORE PUSH1 0x40 DUP4 ADD MSTORE PUSH1 0x60 DUP3 ADD MSTORE PUSH1 0x80 ADD SWAP1 JUMP JUMPDEST PUSH1 0x1 PUSH1 0x1 PUSH1 0xA0 SHL SUB SWAP3 SWAP1 SWAP3 AND DUP3 MSTORE PUSH1 0x20 DUP3 ADD MSTORE PUSH1 0x40 ADD SWAP1 JUMP JUMPDEST SWAP1 ISZERO ISZERO DUP2 MSTORE PUSH1 0x20 ADD SWAP1 JUMP JUMPDEST SWAP1 DUP2 MSTORE PUSH1 0x20 ADD SWAP1 JUMP JUMPDEST PUSH1 0x0 PUSH1 0x20 DUP3 MSTORE DUP3 MLOAD DUP1 PUSH1 0x20 DUP5 ADD MSTORE PUSH2 0x12B6 DUP2 PUSH1 0x40 DUP6 ADD PUSH1 0x20 DUP8 ADD PUSH2 0x1668 JUMP JUMPDEST PUSH1 0x1F ADD PUSH1 0x1F NOT AND SWAP2 SWAP1 SWAP2 ADD PUSH1 0x40 ADD SWAP3 SWAP2 POP POP JUMP JUMPDEST PUSH1 0x20 DUP1 DUP3 MSTORE DUP2 DUP2 ADD MSTORE PUSH32 0x537472696E67733A20686578206C656E67746820696E73756666696369656E74 PUSH1 0x40 DUP3 ADD MSTORE PUSH1 0x60 ADD SWAP1 JUMP JUMPDEST PUSH1 0x20 DUP1 DUP3 MSTORE PUSH1 0x1E SWAP1 DUP3 ADD MSTORE PUSH32 0x4661696C656420746F207472616E7366657220746F205F6163636F756E740000 PUSH1 0x40 DUP3 ADD MSTORE PUSH1 0x60 ADD SWAP1 JUMP JUMPDEST PUSH1 0x20 DUP1 DUP3 MSTORE PUSH1 0x26 SWAP1 DUP3 ADD MSTORE PUSH32 0x416464726573733A20696E73756666696369656E742062616C616E636520666F PUSH1 0x40 DUP3 ADD MSTORE PUSH32 0x722063616C6C0000000000000000000000000000000000000000000000000000 PUSH1 0x60 DUP3 ADD MSTORE PUSH1 0x80 ADD SWAP1 JUMP JUMPDEST PUSH1 0x20 DUP1 DUP3 MSTORE PUSH1 0x13 SWAP1 DUP3 ADD MSTORE PUSH32 0x4E6F20636C61696D61626C652072657761726400000000000000000000000000 PUSH1 0x40 DUP3 ADD MSTORE PUSH1 0x60 ADD SWAP1 JUMP JUMPDEST PUSH1 0x20 DUP1 DUP3 MSTORE PUSH1 0x16 SWAP1 DUP3 ADD MSTORE PUSH32 0x496E76616C6964205F646973747269627574696F6E7300000000000000000000 PUSH1 0x40 DUP3 ADD MSTORE PUSH1 0x60 ADD SWAP1 JUMP JUMPDEST PUSH1 0x20 DUP1 DUP3 MSTORE PUSH1 0xF SWAP1 DUP3 ADD MSTORE PUSH32 0x4E6F742042524942455F5641554C540000000000000000000000000000000000 PUSH1 0x40 DUP3 ADD MSTORE PUSH1 0x60 ADD SWAP1 JUMP JUMPDEST PUSH1 0x20 DUP1 DUP3 MSTORE PUSH1 0x1D SWAP1 DUP3 ADD MSTORE PUSH32 0x416464726573733A2063616C6C20746F206E6F6E2D636F6E7472616374000000 PUSH1 0x40 DUP3 ADD MSTORE PUSH1 0x60 ADD SWAP1 JUMP JUMPDEST PUSH1 0x20 DUP1 DUP3 MSTORE PUSH1 0xD SWAP1 DUP3 ADD MSTORE PUSH32 0x496E76616C69642070726F6F6600000000000000000000000000000000000000 PUSH1 0x40 DUP3 ADD MSTORE PUSH1 0x60 ADD SWAP1 JUMP JUMPDEST PUSH1 0x20 DUP1 DUP3 MSTORE PUSH1 0x2A SWAP1 DUP3 ADD MSTORE PUSH32 0x5361666545524332303A204552433230206F7065726174696F6E20646964206E PUSH1 0x40 DUP3 ADD MSTORE PUSH32 0x6F74207375636365656400000000000000000000000000000000000000000000 PUSH1 0x60 DUP3 ADD MSTORE PUSH1 0x80 ADD SWAP1 JUMP JUMPDEST PUSH1 0x20 DUP1 DUP3 MSTORE PUSH1 0x1F SWAP1 DUP3 ADD MSTORE PUSH32 0x5265656E7472616E637947756172643A207265656E7472616E742063616C6C00 PUSH1 0x40 DUP3 ADD MSTORE PUSH1 0x60 ADD SWAP1 JUMP JUMPDEST PUSH1 0x20 DUP1 DUP3 MSTORE PUSH1 0xF SWAP1 DUP3 ADD MSTORE PUSH32 0x496E76616C6964205F636C61696D730000000000000000000000000000000000 PUSH1 0x40 DUP3 ADD MSTORE PUSH1 0x60 ADD SWAP1 JUMP JUMPDEST PUSH1 0x20 DUP1 DUP3 MSTORE PUSH1 0x18 SWAP1 DUP3 ADD MSTORE PUSH32 0x446973747269627574696F6E206E6F7420656E61626C65640000000000000000 PUSH1 0x40 DUP3 ADD MSTORE PUSH1 0x60 ADD SWAP1 JUMP JUMPDEST PUSH1 0x20 DUP1 DUP3 MSTORE PUSH1 0x2F SWAP1 DUP3 ADD MSTORE PUSH32 0x416363657373436F6E74726F6C3A2063616E206F6E6C792072656E6F756E6365 PUSH1 0x40 DUP3 ADD MSTORE PUSH32 0x20726F6C657320666F722073656C660000000000000000000000000000000000 PUSH1 0x60 DUP3 ADD MSTORE PUSH1 0x80 ADD SWAP1 JUMP JUMPDEST PUSH1 0x0 DUP1 DUP4 CALLDATALOAD PUSH1 0x1E NOT DUP5 CALLDATASIZE SUB ADD DUP2 SLT PUSH2 0x161B JUMPI DUP3 DUP4 REVERT JUMPDEST DUP4 ADD DUP1 CALLDATALOAD SWAP2 POP PUSH8 0xFFFFFFFFFFFFFFFF DUP3 GT ISZERO PUSH2 0x1635 JUMPI DUP3 DUP4 REVERT JUMPDEST PUSH1 0x20 SWAP1 DUP2 ADD SWAP3 POP DUP2 MUL CALLDATASIZE SUB DUP3 SGT ISZERO PUSH2 0x164C JUMPI PUSH1 0x0 DUP1 REVERT JUMPDEST SWAP3 POP SWAP3 SWAP1 POP JUMP JUMPDEST PUSH1 0x0 DUP3 CALLDATALOAD PUSH1 0x7E NOT DUP4 CALLDATASIZE SUB ADD DUP2 SLT PUSH2 0x11A2 JUMPI DUP2 DUP3 REVERT JUMPDEST PUSH1 0x0 JUMPDEST DUP4 DUP2 LT ISZERO PUSH2 0x1683 JUMPI DUP2 DUP2 ADD MLOAD DUP4 DUP3 ADD MSTORE PUSH1 0x20 ADD PUSH2 0x166B JUMP JUMPDEST DUP4 DUP2 GT ISZERO PUSH2 0x68E JUMPI POP POP PUSH1 0x0 SWAP2 ADD MSTORE JUMP INVALID LOG2 PUSH5 0x6970667358 0x22 SLT KECCAK256 0xC2 0x2F ADD TIMESTAMP MSTORE8 0xEA SWAP3 SWAP1 BYTE PUSH8 0x5769D80BFABBCED3 0xC7 MLOAD PUSH32 0x504E713587BED219BE25164736F6C6343000701003300000000000000000000 "
                },
                "methodIdentifiers": {
                    "BRIBE_VAULT()": "be309bca",
                    "DEFAULT_ADMIN_ROLE()": "a217fddf",
                    "claim((bytes32,address,uint256,bytes32[])[])": "56853398",
                    "claimed(bytes32,address)": "dfcae622",
                    "getRoleAdmin(bytes32)": "248a9ca3",
                    "grantRole(bytes32,address)": "2f2ff15d",
                    "hasRole(bytes32,address)": "91d14854",
                    "renounceRole(bytes32,address)": "36568abe",
                    "revokeRole(bytes32,address)": "d547741f",
                    "rewards(bytes32)": "938d967a",
                    "supportsInterface(bytes4)": "01ffc9a7",
                    "updateRewardsMetadata((bytes32,address,bytes32,bytes32)[])": "df45c752"
                }
            }
        }
    }
}