{
    "solace_swap/contracts/BalancerBribe.sol": {
        "BribeBase": {
            "abi": [
                {
                    "inputs": [
                        {
                            "internalType": "address",
                            "name": "_BRIBE_VAULT",
                            "type": "address"
                        },
                        {
                            "internalType": "string",
                            "name": "_PROTOCOL",
                            "type": "string"
                        }
                    ],
                    "stateMutability": "nonpayable",
                    "type": "constructor"
                },
                {
                    "anonymous": false,
                    "inputs": [
                        {
                            "indexed": false,
                            "internalType": "address[]",
                            "name": "tokens",
                            "type": "address[]"
                        }
                    ],
                    "name": "AddWhitelistTokens",
                    "type": "event"
                },
                {
                    "anonymous": false,
                    "inputs": [
                        {
                            "indexed": true,
                            "internalType": "bytes32",
                            "name": "proposal",
                            "type": "bytes32"
                        },
                        {
                            "indexed": true,
                            "internalType": "address",
                            "name": "token",
                            "type": "address"
                        },
                        {
                            "indexed": false,
                            "internalType": "uint256",
                            "name": "amount",
                            "type": "uint256"
                        },
                        {
                            "indexed": false,
                            "internalType": "bytes32",
                            "name": "bribeIdentifier",
                            "type": "bytes32"
                        },
                        {
                            "indexed": false,
                            "internalType": "bytes32",
                            "name": "rewardIdentifier",
                            "type": "bytes32"
                        },
                        {
                            "indexed": true,
                            "internalType": "address",
                            "name": "briber",
                            "type": "address"
                        }
                    ],
                    "name": "DepositBribe",
                    "type": "event"
                },
                {
                    "anonymous": false,
                    "inputs": [
                        {
                            "indexed": false,
                            "internalType": "address",
                            "name": "teamMember",
                            "type": "address"
                        }
                    ],
                    "name": "GrantTeamRole",
                    "type": "event"
                },
                {
                    "anonymous": false,
                    "inputs": [
                        {
                            "indexed": false,
                            "internalType": "address[]",
                            "name": "tokens",
                            "type": "address[]"
                        }
                    ],
                    "name": "RemoveWhitelistTokens",
                    "type": "event"
                },
                {
                    "anonymous": false,
                    "inputs": [
                        {
                            "indexed": false,
                            "internalType": "address",
                            "name": "teamMember",
                            "type": "address"
                        }
                    ],
                    "name": "RevokeTeamRole",
                    "type": "event"
                },
                {
                    "anonymous": false,
                    "inputs": [
                        {
                            "indexed": true,
                            "internalType": "bytes32",
                            "name": "role",
                            "type": "bytes32"
                        },
                        {
                            "indexed": true,
                            "internalType": "bytes32",
                            "name": "previousAdminRole",
                            "type": "bytes32"
                        },
                        {
                            "indexed": true,
                            "internalType": "bytes32",
                            "name": "newAdminRole",
                            "type": "bytes32"
                        }
                    ],
                    "name": "RoleAdminChanged",
                    "type": "event"
                },
                {
                    "anonymous": false,
                    "inputs": [
                        {
                            "indexed": true,
                            "internalType": "bytes32",
                            "name": "role",
                            "type": "bytes32"
                        },
                        {
                            "indexed": true,
                            "internalType": "address",
                            "name": "account",
                            "type": "address"
                        },
                        {
                            "indexed": true,
                            "internalType": "address",
                            "name": "sender",
                            "type": "address"
                        }
                    ],
                    "name": "RoleGranted",
                    "type": "event"
                },
                {
                    "anonymous": false,
                    "inputs": [
                        {
                            "indexed": true,
                            "internalType": "bytes32",
                            "name": "role",
                            "type": "bytes32"
                        },
                        {
                            "indexed": true,
                            "internalType": "address",
                            "name": "account",
                            "type": "address"
                        },
                        {
                            "indexed": true,
                            "internalType": "address",
                            "name": "sender",
                            "type": "address"
                        }
                    ],
                    "name": "RoleRevoked",
                    "type": "event"
                },
                {
                    "anonymous": false,
                    "inputs": [
                        {
                            "indexed": true,
                            "internalType": "bytes32",
                            "name": "proposal",
                            "type": "bytes32"
                        },
                        {
                            "indexed": false,
                            "internalType": "uint256",
                            "name": "deadline",
                            "type": "uint256"
                        }
                    ],
                    "name": "SetProposal",
                    "type": "event"
                },
                {
                    "anonymous": false,
                    "inputs": [
                        {
                            "indexed": false,
                            "internalType": "address",
                            "name": "from",
                            "type": "address"
                        },
                        {
                            "indexed": false,
                            "internalType": "address",
                            "name": "to",
                            "type": "address"
                        }
                    ],
                    "name": "SetRewardForwarding",
                    "type": "event"
                },
                {
                    "inputs": [],
                    "name": "BRIBE_VAULT",
                    "outputs": [
                        {
                            "internalType": "address",
                            "name": "",
                            "type": "address"
                        }
                    ],
                    "stateMutability": "view",
                    "type": "function"
                },
                {
                    "inputs": [],
                    "name": "DEFAULT_ADMIN_ROLE",
                    "outputs": [
                        {
                            "internalType": "bytes32",
                            "name": "",
                            "type": "bytes32"
                        }
                    ],
                    "stateMutability": "view",
                    "type": "function"
                },
                {
                    "inputs": [],
                    "name": "PROTOCOL",
                    "outputs": [
                        {
                            "internalType": "bytes32",
                            "name": "",
                            "type": "bytes32"
                        }
                    ],
                    "stateMutability": "view",
                    "type": "function"
                },
                {
                    "inputs": [],
                    "name": "TEAM_ROLE",
                    "outputs": [
                        {
                            "internalType": "bytes32",
                            "name": "",
                            "type": "bytes32"
                        }
                    ],
                    "stateMutability": "view",
                    "type": "function"
                },
                {
                    "inputs": [
                        {
                            "internalType": "address[]",
                            "name": "tokens",
                            "type": "address[]"
                        }
                    ],
                    "name": "addWhitelistTokens",
                    "outputs": [],
                    "stateMutability": "nonpayable",
                    "type": "function"
                },
                {
                    "inputs": [
                        {
                            "internalType": "uint256",
                            "name": "",
                            "type": "uint256"
                        }
                    ],
                    "name": "allWhitelistedTokens",
                    "outputs": [
                        {
                            "internalType": "address",
                            "name": "",
                            "type": "address"
                        }
                    ],
                    "stateMutability": "view",
                    "type": "function"
                },
                {
                    "inputs": [
                        {
                            "internalType": "bytes32",
                            "name": "proposal",
                            "type": "bytes32"
                        }
                    ],
                    "name": "depositBribe",
                    "outputs": [],
                    "stateMutability": "payable",
                    "type": "function"
                },
                {
                    "inputs": [
                        {
                            "internalType": "bytes32",
                            "name": "proposal",
                            "type": "bytes32"
                        },
                        {
                            "internalType": "address",
                            "name": "token",
                            "type": "address"
                        },
                        {
                            "internalType": "uint256",
                            "name": "amount",
                            "type": "uint256"
                        }
                    ],
                    "name": "depositBribeERC20",
                    "outputs": [],
                    "stateMutability": "nonpayable",
                    "type": "function"
                },
                {
                    "inputs": [
                        {
                            "internalType": "bytes32",
                            "name": "proposal",
                            "type": "bytes32"
                        },
                        {
                            "internalType": "uint256",
                            "name": "proposalDeadline",
                            "type": "uint256"
                        },
                        {
                            "internalType": "address",
                            "name": "token",
                            "type": "address"
                        }
                    ],
                    "name": "generateBribeVaultIdentifier",
                    "outputs": [
                        {
                            "internalType": "bytes32",
                            "name": "identifier",
                            "type": "bytes32"
                        }
                    ],
                    "stateMutability": "view",
                    "type": "function"
                },
                {
                    "inputs": [
                        {
                            "internalType": "uint256",
                            "name": "proposalDeadline",
                            "type": "uint256"
                        },
                        {
                            "internalType": "address",
                            "name": "token",
                            "type": "address"
                        }
                    ],
                    "name": "generateRewardIdentifier",
                    "outputs": [
                        {
                            "internalType": "bytes32",
                            "name": "identifier",
                            "type": "bytes32"
                        }
                    ],
                    "stateMutability": "view",
                    "type": "function"
                },
                {
                    "inputs": [
                        {
                            "internalType": "bytes32",
                            "name": "proposal",
                            "type": "bytes32"
                        },
                        {
                            "internalType": "uint256",
                            "name": "proposalDeadline",
                            "type": "uint256"
                        },
                        {
                            "internalType": "address",
                            "name": "token",
                            "type": "address"
                        }
                    ],
                    "name": "getBribe",
                    "outputs": [
                        {
                            "internalType": "address",
                            "name": "bribeToken",
                            "type": "address"
                        },
                        {
                            "internalType": "uint256",
                            "name": "bribeAmount",
                            "type": "uint256"
                        }
                    ],
                    "stateMutability": "view",
                    "type": "function"
                },
                {
                    "inputs": [
                        {
                            "internalType": "bytes32",
                            "name": "role",
                            "type": "bytes32"
                        }
                    ],
                    "name": "getRoleAdmin",
                    "outputs": [
                        {
                            "internalType": "bytes32",
                            "name": "",
                            "type": "bytes32"
                        }
                    ],
                    "stateMutability": "view",
                    "type": "function"
                },
                {
                    "inputs": [],
                    "name": "getWhitelistedTokens",
                    "outputs": [
                        {
                            "internalType": "address[]",
                            "name": "",
                            "type": "address[]"
                        }
                    ],
                    "stateMutability": "view",
                    "type": "function"
                },
                {
                    "inputs": [
                        {
                            "internalType": "bytes32",
                            "name": "role",
                            "type": "bytes32"
                        },
                        {
                            "internalType": "address",
                            "name": "account",
                            "type": "address"
                        }
                    ],
                    "name": "grantRole",
                    "outputs": [],
                    "stateMutability": "nonpayable",
                    "type": "function"
                },
                {
                    "inputs": [
                        {
                            "internalType": "address",
                            "name": "teamMember",
                            "type": "address"
                        }
                    ],
                    "name": "grantTeamRole",
                    "outputs": [],
                    "stateMutability": "nonpayable",
                    "type": "function"
                },
                {
                    "inputs": [
                        {
                            "internalType": "bytes32",
                            "name": "role",
                            "type": "bytes32"
                        },
                        {
                            "internalType": "address",
                            "name": "account",
                            "type": "address"
                        }
                    ],
                    "name": "hasRole",
                    "outputs": [
                        {
                            "internalType": "bool",
                            "name": "",
                            "type": "bool"
                        }
                    ],
                    "stateMutability": "view",
                    "type": "function"
                },
                {
                    "inputs": [
                        {
                            "internalType": "address",
                            "name": "",
                            "type": "address"
                        }
                    ],
                    "name": "indexOfWhitelistedToken",
                    "outputs": [
                        {
                            "internalType": "uint256",
                            "name": "",
                            "type": "uint256"
                        }
                    ],
                    "stateMutability": "view",
                    "type": "function"
                },
                {
                    "inputs": [
                        {
                            "internalType": "address",
                            "name": "token",
                            "type": "address"
                        }
                    ],
                    "name": "isWhitelistedToken",
                    "outputs": [
                        {
                            "internalType": "bool",
                            "name": "",
                            "type": "bool"
                        }
                    ],
                    "stateMutability": "view",
                    "type": "function"
                },
                {
                    "inputs": [
                        {
                            "internalType": "bytes32",
                            "name": "",
                            "type": "bytes32"
                        }
                    ],
                    "name": "proposalDeadlines",
                    "outputs": [
                        {
                            "internalType": "uint256",
                            "name": "",
                            "type": "uint256"
                        }
                    ],
                    "stateMutability": "view",
                    "type": "function"
                },
                {
                    "inputs": [
                        {
                            "internalType": "address[]",
                            "name": "tokens",
                            "type": "address[]"
                        }
                    ],
                    "name": "removeWhitelistTokens",
                    "outputs": [],
                    "stateMutability": "nonpayable",
                    "type": "function"
                },
                {
                    "inputs": [
                        {
                            "internalType": "bytes32",
                            "name": "role",
                            "type": "bytes32"
                        },
                        {
                            "internalType": "address",
                            "name": "account",
                            "type": "address"
                        }
                    ],
                    "name": "renounceRole",
                    "outputs": [],
                    "stateMutability": "nonpayable",
                    "type": "function"
                },
                {
                    "inputs": [
                        {
                            "internalType": "bytes32",
                            "name": "role",
                            "type": "bytes32"
                        },
                        {
                            "internalType": "address",
                            "name": "account",
                            "type": "address"
                        }
                    ],
                    "name": "revokeRole",
                    "outputs": [],
                    "stateMutability": "nonpayable",
                    "type": "function"
                },
                {
                    "inputs": [
                        {
                            "internalType": "address",
                            "name": "teamMember",
                            "type": "address"
                        }
                    ],
                    "name": "revokeTeamRole",
                    "outputs": [],
                    "stateMutability": "nonpayable",
                    "type": "function"
                },
                {
                    "inputs": [
                        {
                            "internalType": "address",
                            "name": "",
                            "type": "address"
                        }
                    ],
                    "name": "rewardForwarding",
                    "outputs": [
                        {
                            "internalType": "address",
                            "name": "",
                            "type": "address"
                        }
                    ],
                    "stateMutability": "view",
                    "type": "function"
                },
                {
                    "inputs": [
                        {
                            "internalType": "address",
                            "name": "to",
                            "type": "address"
                        }
                    ],
                    "name": "setRewardForwarding",
                    "outputs": [],
                    "stateMutability": "nonpayable",
                    "type": "function"
                },
                {
                    "inputs": [
                        {
                            "internalType": "bytes4",
                            "name": "interfaceId",
                            "type": "bytes4"
                        }
                    ],
                    "name": "supportsInterface",
                    "outputs": [
                        {
                            "internalType": "bool",
                            "name": "",
                            "type": "bool"
                        }
                    ],
                    "stateMutability": "view",
                    "type": "function"
                }
            ],
            "evm": {
                "bytecode": {
                    "linkReferences": {},
                    "object": "60c06040523480156200001157600080fd5b506040516200212038038062002120833981016040819052620000349162000198565b600180556001600160a01b0382166200006a5760405162461bcd60e51b81526004016200006190620002a5565b60405180910390fd5b6001600160601b0319606083901b1660805280516200009d5760405162461bcd60e51b815260040162000061906200027a565b80604051602001620000b091906200025c565b60408051601f19818403018152919052805160209091012060a052620000d8600033620000e0565b50506200030f565b620000ec82826200016b565b62000167576000828152602081815260408083206001600160a01b03851684529091529020805460ff191660011790556200012662000194565b6001600160a01b0316816001600160a01b0316837f2f8788117e7eff1d82e926ec794901d17c78024a50270940304540a733656f0d60405160405180910390a45b5050565b6000918252602082815260408084206001600160a01b0393909316845291905290205460ff1690565b3390565b60008060408385031215620001ab578182fd5b82516001600160a01b0381168114620001c2578283fd5b60208401519092506001600160401b0380821115620001df578283fd5b818501915085601f830112620001f3578283fd5b81518181111562000202578384fd5b604051601f8201601f19168101602001838111828210171562000223578586fd5b6040528181528382016020018810156200023b578485fd5b6200024e826020830160208701620002dc565b809450505050509250929050565b6000825162000270818460208701620002dc565b9190910192915050565b602080825260119082015270125b9d985b1a590817d41493d513d0d3d3607a1b604082015260600190565b60208082526014908201527f496e76616c6964205f42524942455f5641554c54000000000000000000000000604082015260600190565b60005b83811015620002f9578181015183820152602001620002df565b8381111562000309576000848401525b50505050565b60805160601c60a051611dbd62000363600039806107db52806108335280610975525080610640528061066e528061069652806107235280610ad45280610e365280610f8752806111bc5250611dbd6000f3fe6080604052600436106101a15760003560e01c806391d14854116100e1578063d547741f1161008a578063e468baf011610064578063e468baf014610461578063f52c395a14610481578063f7e6b46b146104a1578063f96258c4146104cf576101a1565b8063d547741f146103ff578063e26f79001461041f578063e3113df914610441576101a1565b8063ab37f486116100bb578063ab37f486146103aa578063b25706f3146103ca578063be309bca146103ea576101a1565b806391d1485414610355578063a217fddf14610375578063a602d1401461038a576101a1565b806336568abe1161014e57806349d5e6041161012857806349d5e604146102eb5780635699fbad146103005780638e8efaee1461032057806391b9b82714610340576101a1565b806336568abe1461028b5780633eeed1a5146102ab57806340c58189146102cb576101a1565b8063248a9ca31161017f578063248a9ca3146102365780632f2ff15d146102565780632f47600314610278576101a1565b806301ffc9a7146101a657806307cd2ffe146101dc5780632129831014610209575b600080fd5b3480156101b257600080fd5b506101c66101c13660046117c0565b6104ef565b6040516101d391906119b9565b60405180910390f35b3480156101e857600080fd5b506101fc6101f7366004611652565b61054d565b6040516101d391906118d7565b34801561021557600080fd5b5061022961022436600461170a565b610568565b6040516101d391906119c4565b34801561024257600080fd5b5061022961025136600461170a565b61057a565b34801561026257600080fd5b50610276610271366004611722565b61058f565b005b61027661028636600461170a565b6105b8565b34801561029757600080fd5b506102766102a6366004611722565b610791565b3480156102b757600080fd5b506102296102c6366004611788565b6107d7565b3480156102d757600080fd5b506102296102e6366004611722565b61082f565b3480156102f757600080fd5b50610229610884565b34801561030c57600080fd5b5061027661031b366004611652565b6108a8565b34801561032c57600080fd5b5061022961033b366004611652565b610961565b34801561034c57600080fd5b50610229610973565b34801561036157600080fd5b506101c6610370366004611722565b610997565b34801561038157600080fd5b506102296109c0565b34801561039657600080fd5b506102766103a5366004611751565b6109c5565b3480156103b657600080fd5b506101c66103c5366004611652565b610b9f565b3480156103d657600080fd5b506102766103e536600461169b565b610c06565b3480156103f657600080fd5b506101fc610e34565b34801561040b57600080fd5b5061027661041a366004611722565b610e58565b34801561042b57600080fd5b50610434610e77565b6040516101d3919061196c565b34801561044d57600080fd5b5061027661045c36600461169b565b610ed9565b34801561046d57600080fd5b506101fc61047c36600461170a565b611103565b34801561048d57600080fd5b5061027661049c366004611652565b61112a565b3480156104ad57600080fd5b506104c16104bc366004611788565b6111b7565b6040516101d3929190611905565b3480156104db57600080fd5b506102766104ea366004611652565b61126b565b60007fffffffff0000000000000000000000000000000000000000000000000000000082167f7965db0b0000000000000000000000000000000000000000000000000000000014806105455750610545826112db565b90505b919050565b6003602052600090815260409020546001600160a01b031681565b60026020526000908152604090205481565b60009081526020819052604090206001015490565b6105988261057a565b6105a9816105a4611325565b611329565b6105b3838361138d565b505050565b600260015414156105e45760405162461bcd60e51b81526004016105db90611c01565b60405180910390fd5b600260018190556000828152602091909152604090205442811161061a5760405162461bcd60e51b81526004016105db90611bca565b346106375760405162461bcd60e51b81526004016105db90611c38565b600061066483837f00000000000000000000000000000000000000000000000000000000000000006107d7565b90506000610692837f000000000000000000000000000000000000000000000000000000000000000061082f565b90507f00000000000000000000000000000000000000000000000000000000000000006001600160a01b0316631933a4eb348484336040518563ffffffff1660e01b81526004016106e5939291906119cd565b6000604051808303818588803b1580156106fe57600080fd5b505af1158015610712573d6000803e3d6000fd5b5050505050336001600160a01b03167f00000000000000000000000000000000000000000000000000000000000000006001600160a01b0316857f6f1e998489da0152047f9f97b3c6f21b503848ef7d66c815ebd247b87066e90b34868660405161077f93929190611d29565b60405180910390a45050600180555050565b610799611325565b6001600160a01b0316816001600160a01b0316146107c95760405162461bcd60e51b81526004016105db90611ccc565b6107d38282611412565b5050565b60007f00000000000000000000000000000000000000000000000000000000000000008484846040516020016108109493929190611800565b6040516020818303038152906040528051906020012090509392505050565b60007f000000000000000000000000000000000000000000000000000000000000000083836040516020016108669392919061182e565b60405160208183030381529060405280519060200120905092915050565b7f5146a08baf902532d0ee2f909971144f12ca32651cd70cbee1117cddfb3b3b3381565b60006108b6816105a4611325565b6108e07f5146a08baf902532d0ee2f909971144f12ca32651cd70cbee1117cddfb3b3b3383610997565b6108fc5760405162461bcd60e51b81526004016105db90611b25565b6109267f5146a08baf902532d0ee2f909971144f12ca32651cd70cbee1117cddfb3b3b3383611412565b7f708bd40f8f4d2ad60032caea0582161d35c50177cc0b2c575b5d483bd2902caa8260405161095591906118d7565b60405180910390a15050565b60046020526000908152604090205481565b7f000000000000000000000000000000000000000000000000000000000000000081565b6000918252602082815260408084206001600160a01b0393909316845291905290205460ff1690565b600081565b600260015414156109e85760405162461bcd60e51b81526004016105db90611c01565b6002600181905560008481526020919091526040902054428111610a1e5760405162461bcd60e51b81526004016105db90611bca565b6001600160a01b038316610a445760405162461bcd60e51b81526004016105db90611aee565b610a4d83610b9f565b610a695760405162461bcd60e51b81526004016105db90611ab7565b81610a865760405162461bcd60e51b81526004016105db90611c38565b6000610a938583866107d7565b90506000610aa1838661082f565b6040517f69b999340000000000000000000000000000000000000000000000000000000081529091506001600160a01b037f000000000000000000000000000000000000000000000000000000000000000016906369b9993490610b1190859085908a908a9033906004016119ec565b600060405180830381600087803b158015610b2b57600080fd5b505af1158015610b3f573d6000803e3d6000fd5b50505050336001600160a01b0316856001600160a01b0316877f6f1e998489da0152047f9f97b3c6f21b503848ef7d66c815ebd247b87066e90b878686604051610b8b93929190611d29565b60405180910390a450506001805550505050565b600554600090610bb157506000610548565b6001600160a01b0382166000908152600460205260409020541515806105455750816001600160a01b03166005600081548110610bea57fe5b6000918252602090912001546001600160a01b03161492915050565b610c11600033610997565b80610c415750610c417f5146a08baf902532d0ee2f909971144f12ca32651cd70cbee1117cddfb3b3b3333610997565b610c5d5760405162461bcd60e51b81526004016105db90611c95565b60005b81811015610e0257610c8c838383818110610c7757fe5b90506020020160208101906103c59190611652565b610ca85760405162461bcd60e51b81526004016105db90611b93565b600060046000858585818110610cba57fe5b9050602002016020810190610ccf9190611652565b6001600160a01b03166001600160a01b031681526020019081526020016000205490506000600560016005805490500381548110610d0957fe5b600091825260209091200154600580546001600160a01b039092169250829184908110610d3257fe5b6000918252602080832091909101805473ffffffffffffffffffffffffffffffffffffffff19166001600160a01b03948516179055918316815260049182905260408120849055868686818110610d8557fe5b9050602002016020810190610d9a9190611652565b6001600160a01b03166001600160a01b03168152602001908152602001600020600090556005805480610dc957fe5b6000828152602090208101600019908101805473ffffffffffffffffffffffffffffffffffffffff191690550190555050600101610c60565b507faf397cf4dd9b218aa8392d733be436eca6dc865d9fef8bddc37ff3cce5a58326828260405161095592919061191e565b7f000000000000000000000000000000000000000000000000000000000000000081565b610e618261057a565b610e6d816105a4611325565b6105b38383611412565b60606005805480602002602001604051908101604052809291908181526020018280548015610ecf57602002820191906000526020600020905b81546001600160a01b03168152600190910190602001808311610eb1575b5050505050905090565b610ee4600033610997565b80610f145750610f147f5146a08baf902532d0ee2f909971144f12ca32651cd70cbee1117cddfb3b3b3333610997565b610f305760405162461bcd60e51b81526004016105db90611c95565b60005b818110156110d1576000838383818110610f4957fe5b9050602002016020810190610f5e9190611652565b6001600160a01b03161415610f855760405162461bcd60e51b81526004016105db90611aee565b7f00000000000000000000000000000000000000000000000000000000000000006001600160a01b0316838383818110610fbb57fe5b9050602002016020810190610fd09190611652565b6001600160a01b03161415610ff75760405162461bcd60e51b81526004016105db90611a80565b611006838383818110610c7757fe5b156110235760405162461bcd60e51b81526004016105db90611b5c565b600583838381811061103157fe5b90506020020160208101906110469190611652565b815460018101835560009283526020832001805473ffffffffffffffffffffffffffffffffffffffff19166001600160a01b0392909216919091179055600554600019019060049085858581811061109a57fe5b90506020020160208101906110af9190611652565b6001600160a01b03168152602081019190915260400160002055600101610f33565b507fee3f29a31e91df914992dacfb3a9feb176d6cb3c1e35a4ebbe186aeb4827a60b828260405161095592919061191e565b6005818154811061111057fe5b6000918252602090912001546001600160a01b0316905081565b6000611138816105a4611325565b6001600160a01b03821661115e5760405162461bcd60e51b81526004016105db90611b25565b6111887f5146a08baf902532d0ee2f909971144f12ca32651cd70cbee1117cddfb3b3b338361138d565b7fd36b0989e598a1b05388150a9a8c84925e2710d91910406b8735e01f3ed028178260405161095591906118d7565b6000807f00000000000000000000000000000000000000000000000000000000000000006001600160a01b0316632c4ef0d56111f48787876107d7565b6040518263ffffffff1660e01b815260040161121091906119c4565b604080518083038186803b15801561122757600080fd5b505afa15801561123b573d6000803e3d6000fd5b505050506040513d601f19601f8201168201806040525081019061125f919061166e565b91509150935093915050565b3360008181526003602052604090819020805473ffffffffffffffffffffffffffffffffffffffff19166001600160a01b038516179055517fbbd6eb1e2586cc8ea8e80aa1ccf25590beffdd2cb73367b5ac49214505bb48c4916112d09184906118eb565b60405180910390a150565b7fffffffff0000000000000000000000000000000000000000000000000000000081167f01ffc9a70000000000000000000000000000000000000000000000000000000014919050565b3390565b6113338282610997565b6107d35761134b816001600160a01b03166014611495565b611356836020611495565b604051602001611367929190611856565b60408051601f198184030181529082905262461bcd60e51b82526105db91600401611a18565b6113978282610997565b6107d3576000828152602081815260408083206001600160a01b03851684529091529020805460ff191660011790556113ce611325565b6001600160a01b0316816001600160a01b0316837f2f8788117e7eff1d82e926ec794901d17c78024a50270940304540a733656f0d60405160405180910390a45050565b61141c8282610997565b156107d3576000828152602081815260408083206001600160a01b03851684529091529020805460ff19169055611451611325565b6001600160a01b0316816001600160a01b0316837ff6391f5c32d9c69d2a47ea670b442974b53935d1edc7fd64eb21e047a839171b60405160405180910390a45050565b6060808260020260020167ffffffffffffffff811180156114b557600080fd5b506040519080825280601f01601f1916602001820160405280156114e0576020820181803683370190505b5090507f30000000000000000000000000000000000000000000000000000000000000008160008151811061151157fe5b60200101907effffffffffffffffffffffffffffffffffffffffffffffffffffffffffffff1916908160001a9053507f78000000000000000000000000000000000000000000000000000000000000008160018151811061156e57fe5b60200101907effffffffffffffffffffffffffffffffffffffffffffffffffffffffffffff1916908160001a905350600160028402015b600181111561162c577f303132333435363738396162636465660000000000000000000000000000000085600f16601081106115dd57fe5b1a60f81b8282815181106115ed57fe5b60200101907effffffffffffffffffffffffffffffffffffffffffffffffffffffffffffff1916908160001a90535060049490941c93600019016115a5565b50831561164b5760405162461bcd60e51b81526004016105db90611a4b565b9392505050565b600060208284031215611663578081fd5b813561164b81611d6f565b60008060408385031215611680578081fd5b825161168b81611d6f565b6020939093015192949293505050565b600080602083850312156116ad578182fd5b823567ffffffffffffffff808211156116c4578384fd5b818501915085601f8301126116d7578384fd5b8135818111156116e5578485fd5b86602080830285010111156116f8578485fd5b60209290920196919550909350505050565b60006020828403121561171b578081fd5b5035919050565b60008060408385031215611734578182fd5b82359150602083013561174681611d6f565b809150509250929050565b600080600060608486031215611765578081fd5b83359250602084013561177781611d6f565b929592945050506040919091013590565b60008060006060848603121561179c578283fd5b833592506020840135915060408401356117b581611d6f565b809150509250925092565b6000602082840312156117d1578081fd5b81357fffffffff000000000000000000000000000000000000000000000000000000008116811461164b578182fd5b93845260208401929092526040830152606090811b6bffffffffffffffffffffffff19169082015260740190565b928352602083019190915260601b6bffffffffffffffffffffffff1916604082015260540190565b60007f416363657373436f6e74726f6c3a206163636f756e74200000000000000000008252835161188e816017850160208801611d3f565b7f206973206d697373696e6720726f6c652000000000000000000000000000000060179184019182015283516118cb816028840160208801611d3f565b01602801949350505050565b6001600160a01b0391909116815260200190565b6001600160a01b0392831681529116602082015260400190565b6001600160a01b03929092168252602082015260400190565b60208082528181018390526000908460408401835b8681101561196157823561194681611d6f565b6001600160a01b031682529183019190830190600101611933565b509695505050505050565b6020808252825182820181905260009190848201906040850190845b818110156119ad5783516001600160a01b031683529284019291840191600101611988565b50909695505050505050565b901515815260200190565b90815260200190565b92835260208301919091526001600160a01b0316604082015260600190565b94855260208501939093526001600160a01b039182166040850152606084015216608082015260a00190565b6000602082528251806020840152611a37816040850160208701611d3f565b601f01601f19169190910160400192915050565b6020808252818101527f537472696e67733a20686578206c656e67746820696e73756666696369656e74604082015260600190565b6020808252601c908201527f43616e6e6f742077686974656c6973742042524942455f5641554c5400000000604082015260600190565b60208082526018908201527f546f6b656e206973206e6f742077686974656c69737465640000000000000000604082015260600190565b6020808252600d908201527f496e76616c696420746f6b656e00000000000000000000000000000000000000604082015260600190565b60208082526012908201527f496e76616c6964207465616d4d656d6265720000000000000000000000000000604082015260600190565b60208082526019908201527f546f6b656e20616c72656164792077686974656c697374656400000000000000604082015260600190565b60208082526015908201527f546f6b656e206e6f742077686974656c69737465640000000000000000000000604082015260600190565b6020808252601c908201527f50726f706f73616c20646561646c696e65206861732070617373656400000000604082015260600190565b6020808252601f908201527f5265656e7472616e637947756172643a207265656e7472616e742063616c6c00604082015260600190565b60208082526023908201527f427269626520616d6f756e74206d75737420626520677265617465722074686160408201527f6e20300000000000000000000000000000000000000000000000000000000000606082015260800190565b6020808252600e908201527f4e6f7420617574686f72697a6564000000000000000000000000000000000000604082015260600190565b6020808252602f908201527f416363657373436f6e74726f6c3a2063616e206f6e6c792072656e6f756e636560408201527f20726f6c657320666f722073656c660000000000000000000000000000000000606082015260800190565b9283526020830191909152604082015260600190565b60005b83811015611d5a578181015183820152602001611d42565b83811115611d69576000848401525b50505050565b6001600160a01b0381168114611d8457600080fd5b5056fea26469706673582212204d52916f1228e92b9f925dee966d976455e5041f8067b850b46b9bad1f18c71a64736f6c63430007010033",
                    "opcodes": "PUSH1 0xC0 PUSH1 0x40 MSTORE CALLVALUE DUP1 ISZERO PUSH3 0x11 JUMPI PUSH1 0x0 DUP1 REVERT JUMPDEST POP PUSH1 0x40 MLOAD PUSH3 0x2120 CODESIZE SUB DUP1 PUSH3 0x2120 DUP4 CODECOPY DUP2 ADD PUSH1 0x40 DUP2 SWAP1 MSTORE PUSH3 0x34 SWAP2 PUSH3 0x198 JUMP JUMPDEST PUSH1 0x1 DUP1 SSTORE PUSH1 0x1 PUSH1 0x1 PUSH1 0xA0 SHL SUB DUP3 AND PUSH3 0x6A JUMPI PUSH1 0x40 MLOAD PUSH3 0x461BCD PUSH1 0xE5 SHL DUP2 MSTORE PUSH1 0x4 ADD PUSH3 0x61 SWAP1 PUSH3 0x2A5 JUMP JUMPDEST PUSH1 0x40 MLOAD DUP1 SWAP2 SUB SWAP1 REVERT JUMPDEST PUSH1 0x1 PUSH1 0x1 PUSH1 0x60 SHL SUB NOT PUSH1 0x60 DUP4 SWAP1 SHL AND PUSH1 0x80 MSTORE DUP1 MLOAD PUSH3 0x9D JUMPI PUSH1 0x40 MLOAD PUSH3 0x461BCD PUSH1 0xE5 SHL DUP2 MSTORE PUSH1 0x4 ADD PUSH3 0x61 SWAP1 PUSH3 0x27A JUMP JUMPDEST DUP1 PUSH1 0x40 MLOAD PUSH1 0x20 ADD PUSH3 0xB0 SWAP2 SWAP1 PUSH3 0x25C JUMP JUMPDEST PUSH1 0x40 DUP1 MLOAD PUSH1 0x1F NOT DUP2 DUP5 SUB ADD DUP2 MSTORE SWAP2 SWAP1 MSTORE DUP1 MLOAD PUSH1 0x20 SWAP1 SWAP2 ADD KECCAK256 PUSH1 0xA0 MSTORE PUSH3 0xD8 PUSH1 0x0 CALLER PUSH3 0xE0 JUMP JUMPDEST POP POP PUSH3 0x30F JUMP JUMPDEST PUSH3 0xEC DUP3 DUP3 PUSH3 0x16B JUMP JUMPDEST PUSH3 0x167 JUMPI PUSH1 0x0 DUP3 DUP2 MSTORE PUSH1 0x20 DUP2 DUP2 MSTORE PUSH1 0x40 DUP1 DUP4 KECCAK256 PUSH1 0x1 PUSH1 0x1 PUSH1 0xA0 SHL SUB DUP6 AND DUP5 MSTORE SWAP1 SWAP2 MSTORE SWAP1 KECCAK256 DUP1 SLOAD PUSH1 0xFF NOT AND PUSH1 0x1 OR SWAP1 SSTORE PUSH3 0x126 PUSH3 0x194 JUMP JUMPDEST PUSH1 0x1 PUSH1 0x1 PUSH1 0xA0 SHL SUB AND DUP2 PUSH1 0x1 PUSH1 0x1 PUSH1 0xA0 SHL SUB AND DUP4 PUSH32 0x2F8788117E7EFF1D82E926EC794901D17C78024A50270940304540A733656F0D PUSH1 0x40 MLOAD PUSH1 0x40 MLOAD DUP1 SWAP2 SUB SWAP1 LOG4 JUMPDEST POP POP JUMP JUMPDEST PUSH1 0x0 SWAP2 DUP3 MSTORE PUSH1 0x20 DUP3 DUP2 MSTORE PUSH1 0x40 DUP1 DUP5 KECCAK256 PUSH1 0x1 PUSH1 0x1 PUSH1 0xA0 SHL SUB SWAP4 SWAP1 SWAP4 AND DUP5 MSTORE SWAP2 SWAP1 MSTORE SWAP1 KECCAK256 SLOAD PUSH1 0xFF AND SWAP1 JUMP JUMPDEST CALLER SWAP1 JUMP JUMPDEST PUSH1 0x0 DUP1 PUSH1 0x40 DUP4 DUP6 SUB SLT ISZERO PUSH3 0x1AB JUMPI DUP2 DUP3 REVERT JUMPDEST DUP3 MLOAD PUSH1 0x1 PUSH1 0x1 PUSH1 0xA0 SHL SUB DUP2 AND DUP2 EQ PUSH3 0x1C2 JUMPI DUP3 DUP4 REVERT JUMPDEST PUSH1 0x20 DUP5 ADD MLOAD SWAP1 SWAP3 POP PUSH1 0x1 PUSH1 0x1 PUSH1 0x40 SHL SUB DUP1 DUP3 GT ISZERO PUSH3 0x1DF JUMPI DUP3 DUP4 REVERT JUMPDEST DUP2 DUP6 ADD SWAP2 POP DUP6 PUSH1 0x1F DUP4 ADD SLT PUSH3 0x1F3 JUMPI DUP3 DUP4 REVERT JUMPDEST DUP2 MLOAD DUP2 DUP2 GT ISZERO PUSH3 0x202 JUMPI DUP4 DUP5 REVERT JUMPDEST PUSH1 0x40 MLOAD PUSH1 0x1F DUP3 ADD PUSH1 0x1F NOT AND DUP2 ADD PUSH1 0x20 ADD DUP4 DUP2 GT DUP3 DUP3 LT OR ISZERO PUSH3 0x223 JUMPI DUP6 DUP7 REVERT JUMPDEST PUSH1 0x40 MSTORE DUP2 DUP2 MSTORE DUP4 DUP3 ADD PUSH1 0x20 ADD DUP9 LT ISZERO PUSH3 0x23B JUMPI DUP5 DUP6 REVERT JUMPDEST PUSH3 0x24E DUP3 PUSH1 0x20 DUP4 ADD PUSH1 0x20 DUP8 ADD PUSH3 0x2DC JUMP JUMPDEST DUP1 SWAP5 POP POP POP POP POP SWAP3 POP SWAP3 SWAP1 POP JUMP JUMPDEST PUSH1 0x0 DUP3 MLOAD PUSH3 0x270 DUP2 DUP5 PUSH1 0x20 DUP8 ADD PUSH3 0x2DC JUMP JUMPDEST SWAP2 SWAP1 SWAP2 ADD SWAP3 SWAP2 POP POP JUMP JUMPDEST PUSH1 0x20 DUP1 DUP3 MSTORE PUSH1 0x11 SWAP1 DUP3 ADD MSTORE PUSH17 0x125B9D985B1A590817D41493D513D0D3D3 PUSH1 0x7A SHL PUSH1 0x40 DUP3 ADD MSTORE PUSH1 0x60 ADD SWAP1 JUMP JUMPDEST PUSH1 0x20 DUP1 DUP3 MSTORE PUSH1 0x14 SWAP1 DUP3 ADD MSTORE PUSH32 0x496E76616C6964205F42524942455F5641554C54000000000000000000000000 PUSH1 0x40 DUP3 ADD MSTORE PUSH1 0x60 ADD SWAP1 JUMP JUMPDEST PUSH1 0x0 JUMPDEST DUP4 DUP2 LT ISZERO PUSH3 0x2F9 JUMPI DUP2 DUP2 ADD MLOAD DUP4 DUP3 ADD MSTORE PUSH1 0x20 ADD PUSH3 0x2DF JUMP JUMPDEST DUP4 DUP2 GT ISZERO PUSH3 0x309 JUMPI PUSH1 0x0 DUP5 DUP5 ADD MSTORE JUMPDEST POP POP POP POP JUMP JUMPDEST PUSH1 0x80 MLOAD PUSH1 0x60 SHR PUSH1 0xA0 MLOAD PUSH2 0x1DBD PUSH3 0x363 PUSH1 0x0 CODECOPY DUP1 PUSH2 0x7DB MSTORE DUP1 PUSH2 0x833 MSTORE DUP1 PUSH2 0x975 MSTORE POP DUP1 PUSH2 0x640 MSTORE DUP1 PUSH2 0x66E MSTORE DUP1 PUSH2 0x696 MSTORE DUP1 PUSH2 0x723 MSTORE DUP1 PUSH2 0xAD4 MSTORE DUP1 PUSH2 0xE36 MSTORE DUP1 PUSH2 0xF87 MSTORE DUP1 PUSH2 0x11BC MSTORE POP PUSH2 0x1DBD PUSH1 0x0 RETURN INVALID PUSH1 0x80 PUSH1 0x40 MSTORE PUSH1 0x4 CALLDATASIZE LT PUSH2 0x1A1 JUMPI PUSH1 0x0 CALLDATALOAD PUSH1 0xE0 SHR DUP1 PUSH4 0x91D14854 GT PUSH2 0xE1 JUMPI DUP1 PUSH4 0xD547741F GT PUSH2 0x8A JUMPI DUP1 PUSH4 0xE468BAF0 GT PUSH2 0x64 JUMPI DUP1 PUSH4 0xE468BAF0 EQ PUSH2 0x461 JUMPI DUP1 PUSH4 0xF52C395A EQ PUSH2 0x481 JUMPI DUP1 PUSH4 0xF7E6B46B EQ PUSH2 0x4A1 JUMPI DUP1 PUSH4 0xF96258C4 EQ PUSH2 0x4CF JUMPI PUSH2 0x1A1 JUMP JUMPDEST DUP1 PUSH4 0xD547741F EQ PUSH2 0x3FF JUMPI DUP1 PUSH4 0xE26F7900 EQ PUSH2 0x41F JUMPI DUP1 PUSH4 0xE3113DF9 EQ PUSH2 0x441 JUMPI PUSH2 0x1A1 JUMP JUMPDEST DUP1 PUSH4 0xAB37F486 GT PUSH2 0xBB JUMPI DUP1 PUSH4 0xAB37F486 EQ PUSH2 0x3AA JUMPI DUP1 PUSH4 0xB25706F3 EQ PUSH2 0x3CA JUMPI DUP1 PUSH4 0xBE309BCA EQ PUSH2 0x3EA JUMPI PUSH2 0x1A1 JUMP JUMPDEST DUP1 PUSH4 0x91D14854 EQ PUSH2 0x355 JUMPI DUP1 PUSH4 0xA217FDDF EQ PUSH2 0x375 JUMPI DUP1 PUSH4 0xA602D140 EQ PUSH2 0x38A JUMPI PUSH2 0x1A1 JUMP JUMPDEST DUP1 PUSH4 0x36568ABE GT PUSH2 0x14E JUMPI DUP1 PUSH4 0x49D5E604 GT PUSH2 0x128 JUMPI DUP1 PUSH4 0x49D5E604 EQ PUSH2 0x2EB JUMPI DUP1 PUSH4 0x5699FBAD EQ PUSH2 0x300 JUMPI DUP1 PUSH4 0x8E8EFAEE EQ PUSH2 0x320 JUMPI DUP1 PUSH4 0x91B9B827 EQ PUSH2 0x340 JUMPI PUSH2 0x1A1 JUMP JUMPDEST DUP1 PUSH4 0x36568ABE EQ PUSH2 0x28B JUMPI DUP1 PUSH4 0x3EEED1A5 EQ PUSH2 0x2AB JUMPI DUP1 PUSH4 0x40C58189 EQ PUSH2 0x2CB JUMPI PUSH2 0x1A1 JUMP JUMPDEST DUP1 PUSH4 0x248A9CA3 GT PUSH2 0x17F JUMPI DUP1 PUSH4 0x248A9CA3 EQ PUSH2 0x236 JUMPI DUP1 PUSH4 0x2F2FF15D EQ PUSH2 0x256 JUMPI DUP1 PUSH4 0x2F476003 EQ PUSH2 0x278 JUMPI PUSH2 0x1A1 JUMP JUMPDEST DUP1 PUSH4 0x1FFC9A7 EQ PUSH2 0x1A6 JUMPI DUP1 PUSH4 0x7CD2FFE EQ PUSH2 0x1DC JUMPI DUP1 PUSH4 0x21298310 EQ PUSH2 0x209 JUMPI JUMPDEST PUSH1 0x0 DUP1 REVERT JUMPDEST CALLVALUE DUP1 ISZERO PUSH2 0x1B2 JUMPI PUSH1 0x0 DUP1 REVERT JUMPDEST POP PUSH2 0x1C6 PUSH2 0x1C1 CALLDATASIZE PUSH1 0x4 PUSH2 0x17C0 JUMP JUMPDEST PUSH2 0x4EF JUMP JUMPDEST PUSH1 0x40 MLOAD PUSH2 0x1D3 SWAP2 SWAP1 PUSH2 0x19B9 JUMP JUMPDEST PUSH1 0x40 MLOAD DUP1 SWAP2 SUB SWAP1 RETURN JUMPDEST CALLVALUE DUP1 ISZERO PUSH2 0x1E8 JUMPI PUSH1 0x0 DUP1 REVERT JUMPDEST POP PUSH2 0x1FC PUSH2 0x1F7 CALLDATASIZE PUSH1 0x4 PUSH2 0x1652 JUMP JUMPDEST PUSH2 0x54D JUMP JUMPDEST PUSH1 0x40 MLOAD PUSH2 0x1D3 SWAP2 SWAP1 PUSH2 0x18D7 JUMP JUMPDEST CALLVALUE DUP1 ISZERO PUSH2 0x215 JUMPI PUSH1 0x0 DUP1 REVERT JUMPDEST POP PUSH2 0x229 PUSH2 0x224 CALLDATASIZE PUSH1 0x4 PUSH2 0x170A JUMP JUMPDEST PUSH2 0x568 JUMP JUMPDEST PUSH1 0x40 MLOAD PUSH2 0x1D3 SWAP2 SWAP1 PUSH2 0x19C4 JUMP JUMPDEST CALLVALUE DUP1 ISZERO PUSH2 0x242 JUMPI PUSH1 0x0 DUP1 REVERT JUMPDEST POP PUSH2 0x229 PUSH2 0x251 CALLDATASIZE PUSH1 0x4 PUSH2 0x170A JUMP JUMPDEST PUSH2 0x57A JUMP JUMPDEST CALLVALUE DUP1 ISZERO PUSH2 0x262 JUMPI PUSH1 0x0 DUP1 REVERT JUMPDEST POP PUSH2 0x276 PUSH2 0x271 CALLDATASIZE PUSH1 0x4 PUSH2 0x1722 JUMP JUMPDEST PUSH2 0x58F JUMP JUMPDEST STOP JUMPDEST PUSH2 0x276 PUSH2 0x286 CALLDATASIZE PUSH1 0x4 PUSH2 0x170A JUMP JUMPDEST PUSH2 0x5B8 JUMP JUMPDEST CALLVALUE DUP1 ISZERO PUSH2 0x297 JUMPI PUSH1 0x0 DUP1 REVERT JUMPDEST POP PUSH2 0x276 PUSH2 0x2A6 CALLDATASIZE PUSH1 0x4 PUSH2 0x1722 JUMP JUMPDEST PUSH2 0x791 JUMP JUMPDEST CALLVALUE DUP1 ISZERO PUSH2 0x2B7 JUMPI PUSH1 0x0 DUP1 REVERT JUMPDEST POP PUSH2 0x229 PUSH2 0x2C6 CALLDATASIZE PUSH1 0x4 PUSH2 0x1788 JUMP JUMPDEST PUSH2 0x7D7 JUMP JUMPDEST CALLVALUE DUP1 ISZERO PUSH2 0x2D7 JUMPI PUSH1 0x0 DUP1 REVERT JUMPDEST POP PUSH2 0x229 PUSH2 0x2E6 CALLDATASIZE PUSH1 0x4 PUSH2 0x1722 JUMP JUMPDEST PUSH2 0x82F JUMP JUMPDEST CALLVALUE DUP1 ISZERO PUSH2 0x2F7 JUMPI PUSH1 0x0 DUP1 REVERT JUMPDEST POP PUSH2 0x229 PUSH2 0x884 JUMP JUMPDEST CALLVALUE DUP1 ISZERO PUSH2 0x30C JUMPI PUSH1 0x0 DUP1 REVERT JUMPDEST POP PUSH2 0x276 PUSH2 0x31B CALLDATASIZE PUSH1 0x4 PUSH2 0x1652 JUMP JUMPDEST PUSH2 0x8A8 JUMP JUMPDEST CALLVALUE DUP1 ISZERO PUSH2 0x32C JUMPI PUSH1 0x0 DUP1 REVERT JUMPDEST POP PUSH2 0x229 PUSH2 0x33B CALLDATASIZE PUSH1 0x4 PUSH2 0x1652 JUMP JUMPDEST PUSH2 0x961 JUMP JUMPDEST CALLVALUE DUP1 ISZERO PUSH2 0x34C JUMPI PUSH1 0x0 DUP1 REVERT JUMPDEST POP PUSH2 0x229 PUSH2 0x973 JUMP JUMPDEST CALLVALUE DUP1 ISZERO PUSH2 0x361 JUMPI PUSH1 0x0 DUP1 REVERT JUMPDEST POP PUSH2 0x1C6 PUSH2 0x370 CALLDATASIZE PUSH1 0x4 PUSH2 0x1722 JUMP JUMPDEST PUSH2 0x997 JUMP JUMPDEST CALLVALUE DUP1 ISZERO PUSH2 0x381 JUMPI PUSH1 0x0 DUP1 REVERT JUMPDEST POP PUSH2 0x229 PUSH2 0x9C0 JUMP JUMPDEST CALLVALUE DUP1 ISZERO PUSH2 0x396 JUMPI PUSH1 0x0 DUP1 REVERT JUMPDEST POP PUSH2 0x276 PUSH2 0x3A5 CALLDATASIZE PUSH1 0x4 PUSH2 0x1751 JUMP JUMPDEST PUSH2 0x9C5 JUMP JUMPDEST CALLVALUE DUP1 ISZERO PUSH2 0x3B6 JUMPI PUSH1 0x0 DUP1 REVERT JUMPDEST POP PUSH2 0x1C6 PUSH2 0x3C5 CALLDATASIZE PUSH1 0x4 PUSH2 0x1652 JUMP JUMPDEST PUSH2 0xB9F JUMP JUMPDEST CALLVALUE DUP1 ISZERO PUSH2 0x3D6 JUMPI PUSH1 0x0 DUP1 REVERT JUMPDEST POP PUSH2 0x276 PUSH2 0x3E5 CALLDATASIZE PUSH1 0x4 PUSH2 0x169B JUMP JUMPDEST PUSH2 0xC06 JUMP JUMPDEST CALLVALUE DUP1 ISZERO PUSH2 0x3F6 JUMPI PUSH1 0x0 DUP1 REVERT JUMPDEST POP PUSH2 0x1FC PUSH2 0xE34 JUMP JUMPDEST CALLVALUE DUP1 ISZERO PUSH2 0x40B JUMPI PUSH1 0x0 DUP1 REVERT JUMPDEST POP PUSH2 0x276 PUSH2 0x41A CALLDATASIZE PUSH1 0x4 PUSH2 0x1722 JUMP JUMPDEST PUSH2 0xE58 JUMP JUMPDEST CALLVALUE DUP1 ISZERO PUSH2 0x42B JUMPI PUSH1 0x0 DUP1 REVERT JUMPDEST POP PUSH2 0x434 PUSH2 0xE77 JUMP JUMPDEST PUSH1 0x40 MLOAD PUSH2 0x1D3 SWAP2 SWAP1 PUSH2 0x196C JUMP JUMPDEST CALLVALUE DUP1 ISZERO PUSH2 0x44D JUMPI PUSH1 0x0 DUP1 REVERT JUMPDEST POP PUSH2 0x276 PUSH2 0x45C CALLDATASIZE PUSH1 0x4 PUSH2 0x169B JUMP JUMPDEST PUSH2 0xED9 JUMP JUMPDEST CALLVALUE DUP1 ISZERO PUSH2 0x46D JUMPI PUSH1 0x0 DUP1 REVERT JUMPDEST POP PUSH2 0x1FC PUSH2 0x47C CALLDATASIZE PUSH1 0x4 PUSH2 0x170A JUMP JUMPDEST PUSH2 0x1103 JUMP JUMPDEST CALLVALUE DUP1 ISZERO PUSH2 0x48D JUMPI PUSH1 0x0 DUP1 REVERT JUMPDEST POP PUSH2 0x276 PUSH2 0x49C CALLDATASIZE PUSH1 0x4 PUSH2 0x1652 JUMP JUMPDEST PUSH2 0x112A JUMP JUMPDEST CALLVALUE DUP1 ISZERO PUSH2 0x4AD JUMPI PUSH1 0x0 DUP1 REVERT JUMPDEST POP PUSH2 0x4C1 PUSH2 0x4BC CALLDATASIZE PUSH1 0x4 PUSH2 0x1788 JUMP JUMPDEST PUSH2 0x11B7 JUMP JUMPDEST PUSH1 0x40 MLOAD PUSH2 0x1D3 SWAP3 SWAP2 SWAP1 PUSH2 0x1905 JUMP JUMPDEST CALLVALUE DUP1 ISZERO PUSH2 0x4DB JUMPI PUSH1 0x0 DUP1 REVERT JUMPDEST POP PUSH2 0x276 PUSH2 0x4EA CALLDATASIZE PUSH1 0x4 PUSH2 0x1652 JUMP JUMPDEST PUSH2 0x126B JUMP JUMPDEST PUSH1 0x0 PUSH32 0xFFFFFFFF00000000000000000000000000000000000000000000000000000000 DUP3 AND PUSH32 0x7965DB0B00000000000000000000000000000000000000000000000000000000 EQ DUP1 PUSH2 0x545 JUMPI POP PUSH2 0x545 DUP3 PUSH2 0x12DB JUMP JUMPDEST SWAP1 POP JUMPDEST SWAP2 SWAP1 POP JUMP JUMPDEST PUSH1 0x3 PUSH1 0x20 MSTORE PUSH1 0x0 SWAP1 DUP2 MSTORE PUSH1 0x40 SWAP1 KECCAK256 SLOAD PUSH1 0x1 PUSH1 0x1 PUSH1 0xA0 SHL SUB AND DUP2 JUMP JUMPDEST PUSH1 0x2 PUSH1 0x20 MSTORE PUSH1 0x0 SWAP1 DUP2 MSTORE PUSH1 0x40 SWAP1 KECCAK256 SLOAD DUP2 JUMP JUMPDEST PUSH1 0x0 SWAP1 DUP2 MSTORE PUSH1 0x20 DUP2 SWAP1 MSTORE PUSH1 0x40 SWAP1 KECCAK256 PUSH1 0x1 ADD SLOAD SWAP1 JUMP JUMPDEST PUSH2 0x598 DUP3 PUSH2 0x57A JUMP JUMPDEST PUSH2 0x5A9 DUP2 PUSH2 0x5A4 PUSH2 0x1325 JUMP JUMPDEST PUSH2 0x1329 JUMP JUMPDEST PUSH2 0x5B3 DUP4 DUP4 PUSH2 0x138D JUMP JUMPDEST POP POP POP JUMP JUMPDEST PUSH1 0x2 PUSH1 0x1 SLOAD EQ ISZERO PUSH2 0x5E4 JUMPI PUSH1 0x40 MLOAD PUSH3 0x461BCD PUSH1 0xE5 SHL DUP2 MSTORE PUSH1 0x4 ADD PUSH2 0x5DB SWAP1 PUSH2 0x1C01 JUMP JUMPDEST PUSH1 0x40 MLOAD DUP1 SWAP2 SUB SWAP1 REVERT JUMPDEST PUSH1 0x2 PUSH1 0x1 DUP2 SWAP1 SSTORE PUSH1 0x0 DUP3 DUP2 MSTORE PUSH1 0x20 SWAP2 SWAP1 SWAP2 MSTORE PUSH1 0x40 SWAP1 KECCAK256 SLOAD TIMESTAMP DUP2 GT PUSH2 0x61A JUMPI PUSH1 0x40 MLOAD PUSH3 0x461BCD PUSH1 0xE5 SHL DUP2 MSTORE PUSH1 0x4 ADD PUSH2 0x5DB SWAP1 PUSH2 0x1BCA JUMP JUMPDEST CALLVALUE PUSH2 0x637 JUMPI PUSH1 0x40 MLOAD PUSH3 0x461BCD PUSH1 0xE5 SHL DUP2 MSTORE PUSH1 0x4 ADD PUSH2 0x5DB SWAP1 PUSH2 0x1C38 JUMP JUMPDEST PUSH1 0x0 PUSH2 0x664 DUP4 DUP4 PUSH32 0x0 PUSH2 0x7D7 JUMP JUMPDEST SWAP1 POP PUSH1 0x0 PUSH2 0x692 DUP4 PUSH32 0x0 PUSH2 0x82F JUMP JUMPDEST SWAP1 POP PUSH32 0x0 PUSH1 0x1 PUSH1 0x1 PUSH1 0xA0 SHL SUB AND PUSH4 0x1933A4EB CALLVALUE DUP5 DUP5 CALLER PUSH1 0x40 MLOAD DUP6 PUSH4 0xFFFFFFFF AND PUSH1 0xE0 SHL DUP2 MSTORE PUSH1 0x4 ADD PUSH2 0x6E5 SWAP4 SWAP3 SWAP2 SWAP1 PUSH2 0x19CD JUMP JUMPDEST PUSH1 0x0 PUSH1 0x40 MLOAD DUP1 DUP4 SUB DUP2 DUP6 DUP9 DUP1 EXTCODESIZE ISZERO DUP1 ISZERO PUSH2 0x6FE JUMPI PUSH1 0x0 DUP1 REVERT JUMPDEST POP GAS CALL ISZERO DUP1 ISZERO PUSH2 0x712 JUMPI RETURNDATASIZE PUSH1 0x0 DUP1 RETURNDATACOPY RETURNDATASIZE PUSH1 0x0 REVERT JUMPDEST POP POP POP POP POP CALLER PUSH1 0x1 PUSH1 0x1 PUSH1 0xA0 SHL SUB AND PUSH32 0x0 PUSH1 0x1 PUSH1 0x1 PUSH1 0xA0 SHL SUB AND DUP6 PUSH32 0x6F1E998489DA0152047F9F97B3C6F21B503848EF7D66C815EBD247B87066E90B CALLVALUE DUP7 DUP7 PUSH1 0x40 MLOAD PUSH2 0x77F SWAP4 SWAP3 SWAP2 SWAP1 PUSH2 0x1D29 JUMP JUMPDEST PUSH1 0x40 MLOAD DUP1 SWAP2 SUB SWAP1 LOG4 POP POP PUSH1 0x1 DUP1 SSTORE POP POP JUMP JUMPDEST PUSH2 0x799 PUSH2 0x1325 JUMP JUMPDEST PUSH1 0x1 PUSH1 0x1 PUSH1 0xA0 SHL SUB AND DUP2 PUSH1 0x1 PUSH1 0x1 PUSH1 0xA0 SHL SUB AND EQ PUSH2 0x7C9 JUMPI PUSH1 0x40 MLOAD PUSH3 0x461BCD PUSH1 0xE5 SHL DUP2 MSTORE PUSH1 0x4 ADD PUSH2 0x5DB SWAP1 PUSH2 0x1CCC JUMP JUMPDEST PUSH2 0x7D3 DUP3 DUP3 PUSH2 0x1412 JUMP JUMPDEST POP POP JUMP JUMPDEST PUSH1 0x0 PUSH32 0x0 DUP5 DUP5 DUP5 PUSH1 0x40 MLOAD PUSH1 0x20 ADD PUSH2 0x810 SWAP5 SWAP4 SWAP3 SWAP2 SWAP1 PUSH2 0x1800 JUMP JUMPDEST PUSH1 0x40 MLOAD PUSH1 0x20 DUP2 DUP4 SUB SUB DUP2 MSTORE SWAP1 PUSH1 0x40 MSTORE DUP1 MLOAD SWAP1 PUSH1 0x20 ADD KECCAK256 SWAP1 POP SWAP4 SWAP3 POP POP POP JUMP JUMPDEST PUSH1 0x0 PUSH32 0x0 DUP4 DUP4 PUSH1 0x40 MLOAD PUSH1 0x20 ADD PUSH2 0x866 SWAP4 SWAP3 SWAP2 SWAP1 PUSH2 0x182E JUMP JUMPDEST PUSH1 0x40 MLOAD PUSH1 0x20 DUP2 DUP4 SUB SUB DUP2 MSTORE SWAP1 PUSH1 0x40 MSTORE DUP1 MLOAD SWAP1 PUSH1 0x20 ADD KECCAK256 SWAP1 POP SWAP3 SWAP2 POP POP JUMP JUMPDEST PUSH32 0x5146A08BAF902532D0EE2F909971144F12CA32651CD70CBEE1117CDDFB3B3B33 DUP2 JUMP JUMPDEST PUSH1 0x0 PUSH2 0x8B6 DUP2 PUSH2 0x5A4 PUSH2 0x1325 JUMP JUMPDEST PUSH2 0x8E0 PUSH32 0x5146A08BAF902532D0EE2F909971144F12CA32651CD70CBEE1117CDDFB3B3B33 DUP4 PUSH2 0x997 JUMP JUMPDEST PUSH2 0x8FC JUMPI PUSH1 0x40 MLOAD PUSH3 0x461BCD PUSH1 0xE5 SHL DUP2 MSTORE PUSH1 0x4 ADD PUSH2 0x5DB SWAP1 PUSH2 0x1B25 JUMP JUMPDEST PUSH2 0x926 PUSH32 0x5146A08BAF902532D0EE2F909971144F12CA32651CD70CBEE1117CDDFB3B3B33 DUP4 PUSH2 0x1412 JUMP JUMPDEST PUSH32 0x708BD40F8F4D2AD60032CAEA0582161D35C50177CC0B2C575B5D483BD2902CAA DUP3 PUSH1 0x40 MLOAD PUSH2 0x955 SWAP2 SWAP1 PUSH2 0x18D7 JUMP JUMPDEST PUSH1 0x40 MLOAD DUP1 SWAP2 SUB SWAP1 LOG1 POP POP JUMP JUMPDEST PUSH1 0x4 PUSH1 0x20 MSTORE PUSH1 0x0 SWAP1 DUP2 MSTORE PUSH1 0x40 SWAP1 KECCAK256 SLOAD DUP2 JUMP JUMPDEST PUSH32 0x0 DUP2 JUMP JUMPDEST PUSH1 0x0 SWAP2 DUP3 MSTORE PUSH1 0x20 DUP3 DUP2 MSTORE PUSH1 0x40 DUP1 DUP5 KECCAK256 PUSH1 0x1 PUSH1 0x1 PUSH1 0xA0 SHL SUB SWAP4 SWAP1 SWAP4 AND DUP5 MSTORE SWAP2 SWAP1 MSTORE SWAP1 KECCAK256 SLOAD PUSH1 0xFF AND SWAP1 JUMP JUMPDEST PUSH1 0x0 DUP2 JUMP JUMPDEST PUSH1 0x2 PUSH1 0x1 SLOAD EQ ISZERO PUSH2 0x9E8 JUMPI PUSH1 0x40 MLOAD PUSH3 0x461BCD PUSH1 0xE5 SHL DUP2 MSTORE PUSH1 0x4 ADD PUSH2 0x5DB SWAP1 PUSH2 0x1C01 JUMP JUMPDEST PUSH1 0x2 PUSH1 0x1 DUP2 SWAP1 SSTORE PUSH1 0x0 DUP5 DUP2 MSTORE PUSH1 0x20 SWAP2 SWAP1 SWAP2 MSTORE PUSH1 0x40 SWAP1 KECCAK256 SLOAD TIMESTAMP DUP2 GT PUSH2 0xA1E JUMPI PUSH1 0x40 MLOAD PUSH3 0x461BCD PUSH1 0xE5 SHL DUP2 MSTORE PUSH1 0x4 ADD PUSH2 0x5DB SWAP1 PUSH2 0x1BCA JUMP JUMPDEST PUSH1 0x1 PUSH1 0x1 PUSH1 0xA0 SHL SUB DUP4 AND PUSH2 0xA44 JUMPI PUSH1 0x40 MLOAD PUSH3 0x461BCD PUSH1 0xE5 SHL DUP2 MSTORE PUSH1 0x4 ADD PUSH2 0x5DB SWAP1 PUSH2 0x1AEE JUMP JUMPDEST PUSH2 0xA4D DUP4 PUSH2 0xB9F JUMP JUMPDEST PUSH2 0xA69 JUMPI PUSH1 0x40 MLOAD PUSH3 0x461BCD PUSH1 0xE5 SHL DUP2 MSTORE PUSH1 0x4 ADD PUSH2 0x5DB SWAP1 PUSH2 0x1AB7 JUMP JUMPDEST DUP2 PUSH2 0xA86 JUMPI PUSH1 0x40 MLOAD PUSH3 0x461BCD PUSH1 0xE5 SHL DUP2 MSTORE PUSH1 0x4 ADD PUSH2 0x5DB SWAP1 PUSH2 0x1C38 JUMP JUMPDEST PUSH1 0x0 PUSH2 0xA93 DUP6 DUP4 DUP7 PUSH2 0x7D7 JUMP JUMPDEST SWAP1 POP PUSH1 0x0 PUSH2 0xAA1 DUP4 DUP7 PUSH2 0x82F JUMP JUMPDEST PUSH1 0x40 MLOAD PUSH32 0x69B9993400000000000000000000000000000000000000000000000000000000 DUP2 MSTORE SWAP1 SWAP2 POP PUSH1 0x1 PUSH1 0x1 PUSH1 0xA0 SHL SUB PUSH32 0x0 AND SWAP1 PUSH4 0x69B99934 SWAP1 PUSH2 0xB11 SWAP1 DUP6 SWAP1 DUP6 SWAP1 DUP11 SWAP1 DUP11 SWAP1 CALLER SWAP1 PUSH1 0x4 ADD PUSH2 0x19EC JUMP JUMPDEST PUSH1 0x0 PUSH1 0x40 MLOAD DUP1 DUP4 SUB DUP2 PUSH1 0x0 DUP8 DUP1 EXTCODESIZE ISZERO DUP1 ISZERO PUSH2 0xB2B JUMPI PUSH1 0x0 DUP1 REVERT JUMPDEST POP GAS CALL ISZERO DUP1 ISZERO PUSH2 0xB3F JUMPI RETURNDATASIZE PUSH1 0x0 DUP1 RETURNDATACOPY RETURNDATASIZE PUSH1 0x0 REVERT JUMPDEST POP POP POP POP CALLER PUSH1 0x1 PUSH1 0x1 PUSH1 0xA0 SHL SUB AND DUP6 PUSH1 0x1 PUSH1 0x1 PUSH1 0xA0 SHL SUB AND DUP8 PUSH32 0x6F1E998489DA0152047F9F97B3C6F21B503848EF7D66C815EBD247B87066E90B DUP8 DUP7 DUP7 PUSH1 0x40 MLOAD PUSH2 0xB8B SWAP4 SWAP3 SWAP2 SWAP1 PUSH2 0x1D29 JUMP JUMPDEST PUSH1 0x40 MLOAD DUP1 SWAP2 SUB SWAP1 LOG4 POP POP PUSH1 0x1 DUP1 SSTORE POP POP POP POP JUMP JUMPDEST PUSH1 0x5 SLOAD PUSH1 0x0 SWAP1 PUSH2 0xBB1 JUMPI POP PUSH1 0x0 PUSH2 0x548 JUMP JUMPDEST PUSH1 0x1 PUSH1 0x1 PUSH1 0xA0 SHL SUB DUP3 AND PUSH1 0x0 SWAP1 DUP2 MSTORE PUSH1 0x4 PUSH1 0x20 MSTORE PUSH1 0x40 SWAP1 KECCAK256 SLOAD ISZERO ISZERO DUP1 PUSH2 0x545 JUMPI POP DUP2 PUSH1 0x1 PUSH1 0x1 PUSH1 0xA0 SHL SUB AND PUSH1 0x5 PUSH1 0x0 DUP2 SLOAD DUP2 LT PUSH2 0xBEA JUMPI INVALID JUMPDEST PUSH1 0x0 SWAP2 DUP3 MSTORE PUSH1 0x20 SWAP1 SWAP2 KECCAK256 ADD SLOAD PUSH1 0x1 PUSH1 0x1 PUSH1 0xA0 SHL SUB AND EQ SWAP3 SWAP2 POP POP JUMP JUMPDEST PUSH2 0xC11 PUSH1 0x0 CALLER PUSH2 0x997 JUMP JUMPDEST DUP1 PUSH2 0xC41 JUMPI POP PUSH2 0xC41 PUSH32 0x5146A08BAF902532D0EE2F909971144F12CA32651CD70CBEE1117CDDFB3B3B33 CALLER PUSH2 0x997 JUMP JUMPDEST PUSH2 0xC5D JUMPI PUSH1 0x40 MLOAD PUSH3 0x461BCD PUSH1 0xE5 SHL DUP2 MSTORE PUSH1 0x4 ADD PUSH2 0x5DB SWAP1 PUSH2 0x1C95 JUMP JUMPDEST PUSH1 0x0 JUMPDEST DUP2 DUP2 LT ISZERO PUSH2 0xE02 JUMPI PUSH2 0xC8C DUP4 DUP4 DUP4 DUP2 DUP2 LT PUSH2 0xC77 JUMPI INVALID JUMPDEST SWAP1 POP PUSH1 0x20 MUL ADD PUSH1 0x20 DUP2 ADD SWAP1 PUSH2 0x3C5 SWAP2 SWAP1 PUSH2 0x1652 JUMP JUMPDEST PUSH2 0xCA8 JUMPI PUSH1 0x40 MLOAD PUSH3 0x461BCD PUSH1 0xE5 SHL DUP2 MSTORE PUSH1 0x4 ADD PUSH2 0x5DB SWAP1 PUSH2 0x1B93 JUMP JUMPDEST PUSH1 0x0 PUSH1 0x4 PUSH1 0x0 DUP6 DUP6 DUP6 DUP2 DUP2 LT PUSH2 0xCBA JUMPI INVALID JUMPDEST SWAP1 POP PUSH1 0x20 MUL ADD PUSH1 0x20 DUP2 ADD SWAP1 PUSH2 0xCCF SWAP2 SWAP1 PUSH2 0x1652 JUMP JUMPDEST PUSH1 0x1 PUSH1 0x1 PUSH1 0xA0 SHL SUB AND PUSH1 0x1 PUSH1 0x1 PUSH1 0xA0 SHL SUB AND DUP2 MSTORE PUSH1 0x20 ADD SWAP1 DUP2 MSTORE PUSH1 0x20 ADD PUSH1 0x0 KECCAK256 SLOAD SWAP1 POP PUSH1 0x0 PUSH1 0x5 PUSH1 0x1 PUSH1 0x5 DUP1 SLOAD SWAP1 POP SUB DUP2 SLOAD DUP2 LT PUSH2 0xD09 JUMPI INVALID JUMPDEST PUSH1 0x0 SWAP2 DUP3 MSTORE PUSH1 0x20 SWAP1 SWAP2 KECCAK256 ADD SLOAD PUSH1 0x5 DUP1 SLOAD PUSH1 0x1 PUSH1 0x1 PUSH1 0xA0 SHL SUB SWAP1 SWAP3 AND SWAP3 POP DUP3 SWAP2 DUP5 SWAP1 DUP2 LT PUSH2 0xD32 JUMPI INVALID JUMPDEST PUSH1 0x0 SWAP2 DUP3 MSTORE PUSH1 0x20 DUP1 DUP4 KECCAK256 SWAP2 SWAP1 SWAP2 ADD DUP1 SLOAD PUSH20 0xFFFFFFFFFFFFFFFFFFFFFFFFFFFFFFFFFFFFFFFF NOT AND PUSH1 0x1 PUSH1 0x1 PUSH1 0xA0 SHL SUB SWAP5 DUP6 AND OR SWAP1 SSTORE SWAP2 DUP4 AND DUP2 MSTORE PUSH1 0x4 SWAP2 DUP3 SWAP1 MSTORE PUSH1 0x40 DUP2 KECCAK256 DUP5 SWAP1 SSTORE DUP7 DUP7 DUP7 DUP2 DUP2 LT PUSH2 0xD85 JUMPI INVALID JUMPDEST SWAP1 POP PUSH1 0x20 MUL ADD PUSH1 0x20 DUP2 ADD SWAP1 PUSH2 0xD9A SWAP2 SWAP1 PUSH2 0x1652 JUMP JUMPDEST PUSH1 0x1 PUSH1 0x1 PUSH1 0xA0 SHL SUB AND PUSH1 0x1 PUSH1 0x1 PUSH1 0xA0 SHL SUB AND DUP2 MSTORE PUSH1 0x20 ADD SWAP1 DUP2 MSTORE PUSH1 0x20 ADD PUSH1 0x0 KECCAK256 PUSH1 0x0 SWAP1 SSTORE PUSH1 0x5 DUP1 SLOAD DUP1 PUSH2 0xDC9 JUMPI INVALID JUMPDEST PUSH1 0x0 DUP3 DUP2 MSTORE PUSH1 0x20 SWAP1 KECCAK256 DUP2 ADD PUSH1 0x0 NOT SWAP1 DUP2 ADD DUP1 SLOAD PUSH20 0xFFFFFFFFFFFFFFFFFFFFFFFFFFFFFFFFFFFFFFFF NOT AND SWAP1 SSTORE ADD SWAP1 SSTORE POP POP PUSH1 0x1 ADD PUSH2 0xC60 JUMP JUMPDEST POP PUSH32 0xAF397CF4DD9B218AA8392D733BE436ECA6DC865D9FEF8BDDC37FF3CCE5A58326 DUP3 DUP3 PUSH1 0x40 MLOAD PUSH2 0x955 SWAP3 SWAP2 SWAP1 PUSH2 0x191E JUMP JUMPDEST PUSH32 0x0 DUP2 JUMP JUMPDEST PUSH2 0xE61 DUP3 PUSH2 0x57A JUMP JUMPDEST PUSH2 0xE6D DUP2 PUSH2 0x5A4 PUSH2 0x1325 JUMP JUMPDEST PUSH2 0x5B3 DUP4 DUP4 PUSH2 0x1412 JUMP JUMPDEST PUSH1 0x60 PUSH1 0x5 DUP1 SLOAD DUP1 PUSH1 0x20 MUL PUSH1 0x20 ADD PUSH1 0x40 MLOAD SWAP1 DUP2 ADD PUSH1 0x40 MSTORE DUP1 SWAP3 SWAP2 SWAP1 DUP2 DUP2 MSTORE PUSH1 0x20 ADD DUP3 DUP1 SLOAD DUP1 ISZERO PUSH2 0xECF JUMPI PUSH1 0x20 MUL DUP3 ADD SWAP2 SWAP1 PUSH1 0x0 MSTORE PUSH1 0x20 PUSH1 0x0 KECCAK256 SWAP1 JUMPDEST DUP2 SLOAD PUSH1 0x1 PUSH1 0x1 PUSH1 0xA0 SHL SUB AND DUP2 MSTORE PUSH1 0x1 SWAP1 SWAP2 ADD SWAP1 PUSH1 0x20 ADD DUP1 DUP4 GT PUSH2 0xEB1 JUMPI JUMPDEST POP POP POP POP POP SWAP1 POP SWAP1 JUMP JUMPDEST PUSH2 0xEE4 PUSH1 0x0 CALLER PUSH2 0x997 JUMP JUMPDEST DUP1 PUSH2 0xF14 JUMPI POP PUSH2 0xF14 PUSH32 0x5146A08BAF902532D0EE2F909971144F12CA32651CD70CBEE1117CDDFB3B3B33 CALLER PUSH2 0x997 JUMP JUMPDEST PUSH2 0xF30 JUMPI PUSH1 0x40 MLOAD PUSH3 0x461BCD PUSH1 0xE5 SHL DUP2 MSTORE PUSH1 0x4 ADD PUSH2 0x5DB SWAP1 PUSH2 0x1C95 JUMP JUMPDEST PUSH1 0x0 JUMPDEST DUP2 DUP2 LT ISZERO PUSH2 0x10D1 JUMPI PUSH1 0x0 DUP4 DUP4 DUP4 DUP2 DUP2 LT PUSH2 0xF49 JUMPI INVALID JUMPDEST SWAP1 POP PUSH1 0x20 MUL ADD PUSH1 0x20 DUP2 ADD SWAP1 PUSH2 0xF5E SWAP2 SWAP1 PUSH2 0x1652 JUMP JUMPDEST PUSH1 0x1 PUSH1 0x1 PUSH1 0xA0 SHL SUB AND EQ ISZERO PUSH2 0xF85 JUMPI PUSH1 0x40 MLOAD PUSH3 0x461BCD PUSH1 0xE5 SHL DUP2 MSTORE PUSH1 0x4 ADD PUSH2 0x5DB SWAP1 PUSH2 0x1AEE JUMP JUMPDEST PUSH32 0x0 PUSH1 0x1 PUSH1 0x1 PUSH1 0xA0 SHL SUB AND DUP4 DUP4 DUP4 DUP2 DUP2 LT PUSH2 0xFBB JUMPI INVALID JUMPDEST SWAP1 POP PUSH1 0x20 MUL ADD PUSH1 0x20 DUP2 ADD SWAP1 PUSH2 0xFD0 SWAP2 SWAP1 PUSH2 0x1652 JUMP JUMPDEST PUSH1 0x1 PUSH1 0x1 PUSH1 0xA0 SHL SUB AND EQ ISZERO PUSH2 0xFF7 JUMPI PUSH1 0x40 MLOAD PUSH3 0x461BCD PUSH1 0xE5 SHL DUP2 MSTORE PUSH1 0x4 ADD PUSH2 0x5DB SWAP1 PUSH2 0x1A80 JUMP JUMPDEST PUSH2 0x1006 DUP4 DUP4 DUP4 DUP2 DUP2 LT PUSH2 0xC77 JUMPI INVALID JUMPDEST ISZERO PUSH2 0x1023 JUMPI PUSH1 0x40 MLOAD PUSH3 0x461BCD PUSH1 0xE5 SHL DUP2 MSTORE PUSH1 0x4 ADD PUSH2 0x5DB SWAP1 PUSH2 0x1B5C JUMP JUMPDEST PUSH1 0x5 DUP4 DUP4 DUP4 DUP2 DUP2 LT PUSH2 0x1031 JUMPI INVALID JUMPDEST SWAP1 POP PUSH1 0x20 MUL ADD PUSH1 0x20 DUP2 ADD SWAP1 PUSH2 0x1046 SWAP2 SWAP1 PUSH2 0x1652 JUMP JUMPDEST DUP2 SLOAD PUSH1 0x1 DUP2 ADD DUP4 SSTORE PUSH1 0x0 SWAP3 DUP4 MSTORE PUSH1 0x20 DUP4 KECCAK256 ADD DUP1 SLOAD PUSH20 0xFFFFFFFFFFFFFFFFFFFFFFFFFFFFFFFFFFFFFFFF NOT AND PUSH1 0x1 PUSH1 0x1 PUSH1 0xA0 SHL SUB SWAP3 SWAP1 SWAP3 AND SWAP2 SWAP1 SWAP2 OR SWAP1 SSTORE PUSH1 0x5 SLOAD PUSH1 0x0 NOT ADD SWAP1 PUSH1 0x4 SWAP1 DUP6 DUP6 DUP6 DUP2 DUP2 LT PUSH2 0x109A JUMPI INVALID JUMPDEST SWAP1 POP PUSH1 0x20 MUL ADD PUSH1 0x20 DUP2 ADD SWAP1 PUSH2 0x10AF SWAP2 SWAP1 PUSH2 0x1652 JUMP JUMPDEST PUSH1 0x1 PUSH1 0x1 PUSH1 0xA0 SHL SUB AND DUP2 MSTORE PUSH1 0x20 DUP2 ADD SWAP2 SWAP1 SWAP2 MSTORE PUSH1 0x40 ADD PUSH1 0x0 KECCAK256 SSTORE PUSH1 0x1 ADD PUSH2 0xF33 JUMP JUMPDEST POP PUSH32 0xEE3F29A31E91DF914992DACFB3A9FEB176D6CB3C1E35A4EBBE186AEB4827A60B DUP3 DUP3 PUSH1 0x40 MLOAD PUSH2 0x955 SWAP3 SWAP2 SWAP1 PUSH2 0x191E JUMP JUMPDEST PUSH1 0x5 DUP2 DUP2 SLOAD DUP2 LT PUSH2 0x1110 JUMPI INVALID JUMPDEST PUSH1 0x0 SWAP2 DUP3 MSTORE PUSH1 0x20 SWAP1 SWAP2 KECCAK256 ADD SLOAD PUSH1 0x1 PUSH1 0x1 PUSH1 0xA0 SHL SUB AND SWAP1 POP DUP2 JUMP JUMPDEST PUSH1 0x0 PUSH2 0x1138 DUP2 PUSH2 0x5A4 PUSH2 0x1325 JUMP JUMPDEST PUSH1 0x1 PUSH1 0x1 PUSH1 0xA0 SHL SUB DUP3 AND PUSH2 0x115E JUMPI PUSH1 0x40 MLOAD PUSH3 0x461BCD PUSH1 0xE5 SHL DUP2 MSTORE PUSH1 0x4 ADD PUSH2 0x5DB SWAP1 PUSH2 0x1B25 JUMP JUMPDEST PUSH2 0x1188 PUSH32 0x5146A08BAF902532D0EE2F909971144F12CA32651CD70CBEE1117CDDFB3B3B33 DUP4 PUSH2 0x138D JUMP JUMPDEST PUSH32 0xD36B0989E598A1B05388150A9A8C84925E2710D91910406B8735E01F3ED02817 DUP3 PUSH1 0x40 MLOAD PUSH2 0x955 SWAP2 SWAP1 PUSH2 0x18D7 JUMP JUMPDEST PUSH1 0x0 DUP1 PUSH32 0x0 PUSH1 0x1 PUSH1 0x1 PUSH1 0xA0 SHL SUB AND PUSH4 0x2C4EF0D5 PUSH2 0x11F4 DUP8 DUP8 DUP8 PUSH2 0x7D7 JUMP JUMPDEST PUSH1 0x40 MLOAD DUP3 PUSH4 0xFFFFFFFF AND PUSH1 0xE0 SHL DUP2 MSTORE PUSH1 0x4 ADD PUSH2 0x1210 SWAP2 SWAP1 PUSH2 0x19C4 JUMP JUMPDEST PUSH1 0x40 DUP1 MLOAD DUP1 DUP4 SUB DUP2 DUP7 DUP1 EXTCODESIZE ISZERO DUP1 ISZERO PUSH2 0x1227 JUMPI PUSH1 0x0 DUP1 REVERT JUMPDEST POP GAS STATICCALL ISZERO DUP1 ISZERO PUSH2 0x123B JUMPI RETURNDATASIZE PUSH1 0x0 DUP1 RETURNDATACOPY RETURNDATASIZE PUSH1 0x0 REVERT JUMPDEST POP POP POP POP PUSH1 0x40 MLOAD RETURNDATASIZE PUSH1 0x1F NOT PUSH1 0x1F DUP3 ADD AND DUP3 ADD DUP1 PUSH1 0x40 MSTORE POP DUP2 ADD SWAP1 PUSH2 0x125F SWAP2 SWAP1 PUSH2 0x166E JUMP JUMPDEST SWAP2 POP SWAP2 POP SWAP4 POP SWAP4 SWAP2 POP POP JUMP JUMPDEST CALLER PUSH1 0x0 DUP2 DUP2 MSTORE PUSH1 0x3 PUSH1 0x20 MSTORE PUSH1 0x40 SWAP1 DUP2 SWAP1 KECCAK256 DUP1 SLOAD PUSH20 0xFFFFFFFFFFFFFFFFFFFFFFFFFFFFFFFFFFFFFFFF NOT AND PUSH1 0x1 PUSH1 0x1 PUSH1 0xA0 SHL SUB DUP6 AND OR SWAP1 SSTORE MLOAD PUSH32 0xBBD6EB1E2586CC8EA8E80AA1CCF25590BEFFDD2CB73367B5AC49214505BB48C4 SWAP2 PUSH2 0x12D0 SWAP2 DUP5 SWAP1 PUSH2 0x18EB JUMP JUMPDEST PUSH1 0x40 MLOAD DUP1 SWAP2 SUB SWAP1 LOG1 POP JUMP JUMPDEST PUSH32 0xFFFFFFFF00000000000000000000000000000000000000000000000000000000 DUP2 AND PUSH32 0x1FFC9A700000000000000000000000000000000000000000000000000000000 EQ SWAP2 SWAP1 POP JUMP JUMPDEST CALLER SWAP1 JUMP JUMPDEST PUSH2 0x1333 DUP3 DUP3 PUSH2 0x997 JUMP JUMPDEST PUSH2 0x7D3 JUMPI PUSH2 0x134B DUP2 PUSH1 0x1 PUSH1 0x1 PUSH1 0xA0 SHL SUB AND PUSH1 0x14 PUSH2 0x1495 JUMP JUMPDEST PUSH2 0x1356 DUP4 PUSH1 0x20 PUSH2 0x1495 JUMP JUMPDEST PUSH1 0x40 MLOAD PUSH1 0x20 ADD PUSH2 0x1367 SWAP3 SWAP2 SWAP1 PUSH2 0x1856 JUMP JUMPDEST PUSH1 0x40 DUP1 MLOAD PUSH1 0x1F NOT DUP2 DUP5 SUB ADD DUP2 MSTORE SWAP1 DUP3 SWAP1 MSTORE PUSH3 0x461BCD PUSH1 0xE5 SHL DUP3 MSTORE PUSH2 0x5DB SWAP2 PUSH1 0x4 ADD PUSH2 0x1A18 JUMP JUMPDEST PUSH2 0x1397 DUP3 DUP3 PUSH2 0x997 JUMP JUMPDEST PUSH2 0x7D3 JUMPI PUSH1 0x0 DUP3 DUP2 MSTORE PUSH1 0x20 DUP2 DUP2 MSTORE PUSH1 0x40 DUP1 DUP4 KECCAK256 PUSH1 0x1 PUSH1 0x1 PUSH1 0xA0 SHL SUB DUP6 AND DUP5 MSTORE SWAP1 SWAP2 MSTORE SWAP1 KECCAK256 DUP1 SLOAD PUSH1 0xFF NOT AND PUSH1 0x1 OR SWAP1 SSTORE PUSH2 0x13CE PUSH2 0x1325 JUMP JUMPDEST PUSH1 0x1 PUSH1 0x1 PUSH1 0xA0 SHL SUB AND DUP2 PUSH1 0x1 PUSH1 0x1 PUSH1 0xA0 SHL SUB AND DUP4 PUSH32 0x2F8788117E7EFF1D82E926EC794901D17C78024A50270940304540A733656F0D PUSH1 0x40 MLOAD PUSH1 0x40 MLOAD DUP1 SWAP2 SUB SWAP1 LOG4 POP POP JUMP JUMPDEST PUSH2 0x141C DUP3 DUP3 PUSH2 0x997 JUMP JUMPDEST ISZERO PUSH2 0x7D3 JUMPI PUSH1 0x0 DUP3 DUP2 MSTORE PUSH1 0x20 DUP2 DUP2 MSTORE PUSH1 0x40 DUP1 DUP4 KECCAK256 PUSH1 0x1 PUSH1 0x1 PUSH1 0xA0 SHL SUB DUP6 AND DUP5 MSTORE SWAP1 SWAP2 MSTORE SWAP1 KECCAK256 DUP1 SLOAD PUSH1 0xFF NOT AND SWAP1 SSTORE PUSH2 0x1451 PUSH2 0x1325 JUMP JUMPDEST PUSH1 0x1 PUSH1 0x1 PUSH1 0xA0 SHL SUB AND DUP2 PUSH1 0x1 PUSH1 0x1 PUSH1 0xA0 SHL SUB AND DUP4 PUSH32 0xF6391F5C32D9C69D2A47EA670B442974B53935D1EDC7FD64EB21E047A839171B PUSH1 0x40 MLOAD PUSH1 0x40 MLOAD DUP1 SWAP2 SUB SWAP1 LOG4 POP POP JUMP JUMPDEST PUSH1 0x60 DUP1 DUP3 PUSH1 0x2 MUL PUSH1 0x2 ADD PUSH8 0xFFFFFFFFFFFFFFFF DUP2 GT DUP1 ISZERO PUSH2 0x14B5 JUMPI PUSH1 0x0 DUP1 REVERT JUMPDEST POP PUSH1 0x40 MLOAD SWAP1 DUP1 DUP3 MSTORE DUP1 PUSH1 0x1F ADD PUSH1 0x1F NOT AND PUSH1 0x20 ADD DUP3 ADD PUSH1 0x40 MSTORE DUP1 ISZERO PUSH2 0x14E0 JUMPI PUSH1 0x20 DUP3 ADD DUP2 DUP1 CALLDATASIZE DUP4 CALLDATACOPY ADD SWAP1 POP JUMPDEST POP SWAP1 POP PUSH32 0x3000000000000000000000000000000000000000000000000000000000000000 DUP2 PUSH1 0x0 DUP2 MLOAD DUP2 LT PUSH2 0x1511 JUMPI INVALID JUMPDEST PUSH1 0x20 ADD ADD SWAP1 PUSH31 0xFFFFFFFFFFFFFFFFFFFFFFFFFFFFFFFFFFFFFFFFFFFFFFFFFFFFFFFFFFFFFF NOT AND SWAP1 DUP2 PUSH1 0x0 BYTE SWAP1 MSTORE8 POP PUSH32 0x7800000000000000000000000000000000000000000000000000000000000000 DUP2 PUSH1 0x1 DUP2 MLOAD DUP2 LT PUSH2 0x156E JUMPI INVALID JUMPDEST PUSH1 0x20 ADD ADD SWAP1 PUSH31 0xFFFFFFFFFFFFFFFFFFFFFFFFFFFFFFFFFFFFFFFFFFFFFFFFFFFFFFFFFFFFFF NOT AND SWAP1 DUP2 PUSH1 0x0 BYTE SWAP1 MSTORE8 POP PUSH1 0x1 PUSH1 0x2 DUP5 MUL ADD JUMPDEST PUSH1 0x1 DUP2 GT ISZERO PUSH2 0x162C JUMPI PUSH32 0x3031323334353637383961626364656600000000000000000000000000000000 DUP6 PUSH1 0xF AND PUSH1 0x10 DUP2 LT PUSH2 0x15DD JUMPI INVALID JUMPDEST BYTE PUSH1 0xF8 SHL DUP3 DUP3 DUP2 MLOAD DUP2 LT PUSH2 0x15ED JUMPI INVALID JUMPDEST PUSH1 0x20 ADD ADD SWAP1 PUSH31 0xFFFFFFFFFFFFFFFFFFFFFFFFFFFFFFFFFFFFFFFFFFFFFFFFFFFFFFFFFFFFFF NOT AND SWAP1 DUP2 PUSH1 0x0 BYTE SWAP1 MSTORE8 POP PUSH1 0x4 SWAP5 SWAP1 SWAP5 SHR SWAP4 PUSH1 0x0 NOT ADD PUSH2 0x15A5 JUMP JUMPDEST POP DUP4 ISZERO PUSH2 0x164B JUMPI PUSH1 0x40 MLOAD PUSH3 0x461BCD PUSH1 0xE5 SHL DUP2 MSTORE PUSH1 0x4 ADD PUSH2 0x5DB SWAP1 PUSH2 0x1A4B JUMP JUMPDEST SWAP4 SWAP3 POP POP POP JUMP JUMPDEST PUSH1 0x0 PUSH1 0x20 DUP3 DUP5 SUB SLT ISZERO PUSH2 0x1663 JUMPI DUP1 DUP2 REVERT JUMPDEST DUP2 CALLDATALOAD PUSH2 0x164B DUP2 PUSH2 0x1D6F JUMP JUMPDEST PUSH1 0x0 DUP1 PUSH1 0x40 DUP4 DUP6 SUB SLT ISZERO PUSH2 0x1680 JUMPI DUP1 DUP2 REVERT JUMPDEST DUP3 MLOAD PUSH2 0x168B DUP2 PUSH2 0x1D6F JUMP JUMPDEST PUSH1 0x20 SWAP4 SWAP1 SWAP4 ADD MLOAD SWAP3 SWAP5 SWAP3 SWAP4 POP POP POP JUMP JUMPDEST PUSH1 0x0 DUP1 PUSH1 0x20 DUP4 DUP6 SUB SLT ISZERO PUSH2 0x16AD JUMPI DUP2 DUP3 REVERT JUMPDEST DUP3 CALLDATALOAD PUSH8 0xFFFFFFFFFFFFFFFF DUP1 DUP3 GT ISZERO PUSH2 0x16C4 JUMPI DUP4 DUP5 REVERT JUMPDEST DUP2 DUP6 ADD SWAP2 POP DUP6 PUSH1 0x1F DUP4 ADD SLT PUSH2 0x16D7 JUMPI DUP4 DUP5 REVERT JUMPDEST DUP2 CALLDATALOAD DUP2 DUP2 GT ISZERO PUSH2 0x16E5 JUMPI DUP5 DUP6 REVERT JUMPDEST DUP7 PUSH1 0x20 DUP1 DUP4 MUL DUP6 ADD ADD GT ISZERO PUSH2 0x16F8 JUMPI DUP5 DUP6 REVERT JUMPDEST PUSH1 0x20 SWAP3 SWAP1 SWAP3 ADD SWAP7 SWAP2 SWAP6 POP SWAP1 SWAP4 POP POP POP POP JUMP JUMPDEST PUSH1 0x0 PUSH1 0x20 DUP3 DUP5 SUB SLT ISZERO PUSH2 0x171B JUMPI DUP1 DUP2 REVERT JUMPDEST POP CALLDATALOAD SWAP2 SWAP1 POP JUMP JUMPDEST PUSH1 0x0 DUP1 PUSH1 0x40 DUP4 DUP6 SUB SLT ISZERO PUSH2 0x1734 JUMPI DUP2 DUP3 REVERT JUMPDEST DUP3 CALLDATALOAD SWAP2 POP PUSH1 0x20 DUP4 ADD CALLDATALOAD PUSH2 0x1746 DUP2 PUSH2 0x1D6F JUMP JUMPDEST DUP1 SWAP2 POP POP SWAP3 POP SWAP3 SWAP1 POP JUMP JUMPDEST PUSH1 0x0 DUP1 PUSH1 0x0 PUSH1 0x60 DUP5 DUP7 SUB SLT ISZERO PUSH2 0x1765 JUMPI DUP1 DUP2 REVERT JUMPDEST DUP4 CALLDATALOAD SWAP3 POP PUSH1 0x20 DUP5 ADD CALLDATALOAD PUSH2 0x1777 DUP2 PUSH2 0x1D6F JUMP JUMPDEST SWAP3 SWAP6 SWAP3 SWAP5 POP POP POP PUSH1 0x40 SWAP2 SWAP1 SWAP2 ADD CALLDATALOAD SWAP1 JUMP JUMPDEST PUSH1 0x0 DUP1 PUSH1 0x0 PUSH1 0x60 DUP5 DUP7 SUB SLT ISZERO PUSH2 0x179C JUMPI DUP3 DUP4 REVERT JUMPDEST DUP4 CALLDATALOAD SWAP3 POP PUSH1 0x20 DUP5 ADD CALLDATALOAD SWAP2 POP PUSH1 0x40 DUP5 ADD CALLDATALOAD PUSH2 0x17B5 DUP2 PUSH2 0x1D6F JUMP JUMPDEST DUP1 SWAP2 POP POP SWAP3 POP SWAP3 POP SWAP3 JUMP JUMPDEST PUSH1 0x0 PUSH1 0x20 DUP3 DUP5 SUB SLT ISZERO PUSH2 0x17D1 JUMPI DUP1 DUP2 REVERT JUMPDEST DUP2 CALLDATALOAD PUSH32 0xFFFFFFFF00000000000000000000000000000000000000000000000000000000 DUP2 AND DUP2 EQ PUSH2 0x164B JUMPI DUP2 DUP3 REVERT JUMPDEST SWAP4 DUP5 MSTORE PUSH1 0x20 DUP5 ADD SWAP3 SWAP1 SWAP3 MSTORE PUSH1 0x40 DUP4 ADD MSTORE PUSH1 0x60 SWAP1 DUP2 SHL PUSH12 0xFFFFFFFFFFFFFFFFFFFFFFFF NOT AND SWAP1 DUP3 ADD MSTORE PUSH1 0x74 ADD SWAP1 JUMP JUMPDEST SWAP3 DUP4 MSTORE PUSH1 0x20 DUP4 ADD SWAP2 SWAP1 SWAP2 MSTORE PUSH1 0x60 SHL PUSH12 0xFFFFFFFFFFFFFFFFFFFFFFFF NOT AND PUSH1 0x40 DUP3 ADD MSTORE PUSH1 0x54 ADD SWAP1 JUMP JUMPDEST PUSH1 0x0 PUSH32 0x416363657373436F6E74726F6C3A206163636F756E7420000000000000000000 DUP3 MSTORE DUP4 MLOAD PUSH2 0x188E DUP2 PUSH1 0x17 DUP6 ADD PUSH1 0x20 DUP9 ADD PUSH2 0x1D3F JUMP JUMPDEST PUSH32 0x206973206D697373696E6720726F6C6520000000000000000000000000000000 PUSH1 0x17 SWAP2 DUP5 ADD SWAP2 DUP3 ADD MSTORE DUP4 MLOAD PUSH2 0x18CB DUP2 PUSH1 0x28 DUP5 ADD PUSH1 0x20 DUP9 ADD PUSH2 0x1D3F JUMP JUMPDEST ADD PUSH1 0x28 ADD SWAP5 SWAP4 POP POP POP POP JUMP JUMPDEST PUSH1 0x1 PUSH1 0x1 PUSH1 0xA0 SHL SUB SWAP2 SWAP1 SWAP2 AND DUP2 MSTORE PUSH1 0x20 ADD SWAP1 JUMP JUMPDEST PUSH1 0x1 PUSH1 0x1 PUSH1 0xA0 SHL SUB SWAP3 DUP4 AND DUP2 MSTORE SWAP2 AND PUSH1 0x20 DUP3 ADD MSTORE PUSH1 0x40 ADD SWAP1 JUMP JUMPDEST PUSH1 0x1 PUSH1 0x1 PUSH1 0xA0 SHL SUB SWAP3 SWAP1 SWAP3 AND DUP3 MSTORE PUSH1 0x20 DUP3 ADD MSTORE PUSH1 0x40 ADD SWAP1 JUMP JUMPDEST PUSH1 0x20 DUP1 DUP3 MSTORE DUP2 DUP2 ADD DUP4 SWAP1 MSTORE PUSH1 0x0 SWAP1 DUP5 PUSH1 0x40 DUP5 ADD DUP4 JUMPDEST DUP7 DUP2 LT ISZERO PUSH2 0x1961 JUMPI DUP3 CALLDATALOAD PUSH2 0x1946 DUP2 PUSH2 0x1D6F JUMP JUMPDEST PUSH1 0x1 PUSH1 0x1 PUSH1 0xA0 SHL SUB AND DUP3 MSTORE SWAP2 DUP4 ADD SWAP2 SWAP1 DUP4 ADD SWAP1 PUSH1 0x1 ADD PUSH2 0x1933 JUMP JUMPDEST POP SWAP7 SWAP6 POP POP POP POP POP POP JUMP JUMPDEST PUSH1 0x20 DUP1 DUP3 MSTORE DUP3 MLOAD DUP3 DUP3 ADD DUP2 SWAP1 MSTORE PUSH1 0x0 SWAP2 SWAP1 DUP5 DUP3 ADD SWAP1 PUSH1 0x40 DUP6 ADD SWAP1 DUP5 JUMPDEST DUP2 DUP2 LT ISZERO PUSH2 0x19AD JUMPI DUP4 MLOAD PUSH1 0x1 PUSH1 0x1 PUSH1 0xA0 SHL SUB AND DUP4 MSTORE SWAP3 DUP5 ADD SWAP3 SWAP2 DUP5 ADD SWAP2 PUSH1 0x1 ADD PUSH2 0x1988 JUMP JUMPDEST POP SWAP1 SWAP7 SWAP6 POP POP POP POP POP POP JUMP JUMPDEST SWAP1 ISZERO ISZERO DUP2 MSTORE PUSH1 0x20 ADD SWAP1 JUMP JUMPDEST SWAP1 DUP2 MSTORE PUSH1 0x20 ADD SWAP1 JUMP JUMPDEST SWAP3 DUP4 MSTORE PUSH1 0x20 DUP4 ADD SWAP2 SWAP1 SWAP2 MSTORE PUSH1 0x1 PUSH1 0x1 PUSH1 0xA0 SHL SUB AND PUSH1 0x40 DUP3 ADD MSTORE PUSH1 0x60 ADD SWAP1 JUMP JUMPDEST SWAP5 DUP6 MSTORE PUSH1 0x20 DUP6 ADD SWAP4 SWAP1 SWAP4 MSTORE PUSH1 0x1 PUSH1 0x1 PUSH1 0xA0 SHL SUB SWAP2 DUP3 AND PUSH1 0x40 DUP6 ADD MSTORE PUSH1 0x60 DUP5 ADD MSTORE AND PUSH1 0x80 DUP3 ADD MSTORE PUSH1 0xA0 ADD SWAP1 JUMP JUMPDEST PUSH1 0x0 PUSH1 0x20 DUP3 MSTORE DUP3 MLOAD DUP1 PUSH1 0x20 DUP5 ADD MSTORE PUSH2 0x1A37 DUP2 PUSH1 0x40 DUP6 ADD PUSH1 0x20 DUP8 ADD PUSH2 0x1D3F JUMP JUMPDEST PUSH1 0x1F ADD PUSH1 0x1F NOT AND SWAP2 SWAP1 SWAP2 ADD PUSH1 0x40 ADD SWAP3 SWAP2 POP POP JUMP JUMPDEST PUSH1 0x20 DUP1 DUP3 MSTORE DUP2 DUP2 ADD MSTORE PUSH32 0x537472696E67733A20686578206C656E67746820696E73756666696369656E74 PUSH1 0x40 DUP3 ADD MSTORE PUSH1 0x60 ADD SWAP1 JUMP JUMPDEST PUSH1 0x20 DUP1 DUP3 MSTORE PUSH1 0x1C SWAP1 DUP3 ADD MSTORE PUSH32 0x43616E6E6F742077686974656C6973742042524942455F5641554C5400000000 PUSH1 0x40 DUP3 ADD MSTORE PUSH1 0x60 ADD SWAP1 JUMP JUMPDEST PUSH1 0x20 DUP1 DUP3 MSTORE PUSH1 0x18 SWAP1 DUP3 ADD MSTORE PUSH32 0x546F6B656E206973206E6F742077686974656C69737465640000000000000000 PUSH1 0x40 DUP3 ADD MSTORE PUSH1 0x60 ADD SWAP1 JUMP JUMPDEST PUSH1 0x20 DUP1 DUP3 MSTORE PUSH1 0xD SWAP1 DUP3 ADD MSTORE PUSH32 0x496E76616C696420746F6B656E00000000000000000000000000000000000000 PUSH1 0x40 DUP3 ADD MSTORE PUSH1 0x60 ADD SWAP1 JUMP JUMPDEST PUSH1 0x20 DUP1 DUP3 MSTORE PUSH1 0x12 SWAP1 DUP3 ADD MSTORE PUSH32 0x496E76616C6964207465616D4D656D6265720000000000000000000000000000 PUSH1 0x40 DUP3 ADD MSTORE PUSH1 0x60 ADD SWAP1 JUMP JUMPDEST PUSH1 0x20 DUP1 DUP3 MSTORE PUSH1 0x19 SWAP1 DUP3 ADD MSTORE PUSH32 0x546F6B656E20616C72656164792077686974656C697374656400000000000000 PUSH1 0x40 DUP3 ADD MSTORE PUSH1 0x60 ADD SWAP1 JUMP JUMPDEST PUSH1 0x20 DUP1 DUP3 MSTORE PUSH1 0x15 SWAP1 DUP3 ADD MSTORE PUSH32 0x546F6B656E206E6F742077686974656C69737465640000000000000000000000 PUSH1 0x40 DUP3 ADD MSTORE PUSH1 0x60 ADD SWAP1 JUMP JUMPDEST PUSH1 0x20 DUP1 DUP3 MSTORE PUSH1 0x1C SWAP1 DUP3 ADD MSTORE PUSH32 0x50726F706F73616C20646561646C696E65206861732070617373656400000000 PUSH1 0x40 DUP3 ADD MSTORE PUSH1 0x60 ADD SWAP1 JUMP JUMPDEST PUSH1 0x20 DUP1 DUP3 MSTORE PUSH1 0x1F SWAP1 DUP3 ADD MSTORE PUSH32 0x5265656E7472616E637947756172643A207265656E7472616E742063616C6C00 PUSH1 0x40 DUP3 ADD MSTORE PUSH1 0x60 ADD SWAP1 JUMP JUMPDEST PUSH1 0x20 DUP1 DUP3 MSTORE PUSH1 0x23 SWAP1 DUP3 ADD MSTORE PUSH32 0x427269626520616D6F756E74206D757374206265206772656174657220746861 PUSH1 0x40 DUP3 ADD MSTORE PUSH32 0x6E20300000000000000000000000000000000000000000000000000000000000 PUSH1 0x60 DUP3 ADD MSTORE PUSH1 0x80 ADD SWAP1 JUMP JUMPDEST PUSH1 0x20 DUP1 DUP3 MSTORE PUSH1 0xE SWAP1 DUP3 ADD MSTORE PUSH32 0x4E6F7420617574686F72697A6564000000000000000000000000000000000000 PUSH1 0x40 DUP3 ADD MSTORE PUSH1 0x60 ADD SWAP1 JUMP JUMPDEST PUSH1 0x20 DUP1 DUP3 MSTORE PUSH1 0x2F SWAP1 DUP3 ADD MSTORE PUSH32 0x416363657373436F6E74726F6C3A2063616E206F6E6C792072656E6F756E6365 PUSH1 0x40 DUP3 ADD MSTORE PUSH32 0x20726F6C657320666F722073656C660000000000000000000000000000000000 PUSH1 0x60 DUP3 ADD MSTORE PUSH1 0x80 ADD SWAP1 JUMP JUMPDEST SWAP3 DUP4 MSTORE PUSH1 0x20 DUP4 ADD SWAP2 SWAP1 SWAP2 MSTORE PUSH1 0x40 DUP3 ADD MSTORE PUSH1 0x60 ADD SWAP1 JUMP JUMPDEST PUSH1 0x0 JUMPDEST DUP4 DUP2 LT ISZERO PUSH2 0x1D5A JUMPI DUP2 DUP2 ADD MLOAD DUP4 DUP3 ADD MSTORE PUSH1 0x20 ADD PUSH2 0x1D42 JUMP JUMPDEST DUP4 DUP2 GT ISZERO PUSH2 0x1D69 JUMPI PUSH1 0x0 DUP5 DUP5 ADD MSTORE JUMPDEST POP POP POP POP JUMP JUMPDEST PUSH1 0x1 PUSH1 0x1 PUSH1 0xA0 SHL SUB DUP2 AND DUP2 EQ PUSH2 0x1D84 JUMPI PUSH1 0x0 DUP1 REVERT JUMPDEST POP JUMP INVALID LOG2 PUSH5 0x6970667358 0x22 SLT KECCAK256 0x4D MSTORE SWAP2 PUSH16 0x1228E92B9F925DEE966D976455E5041F DUP1 PUSH8 0xB850B46B9BAD1F18 0xC7 BYTE PUSH5 0x736F6C6343 STOP SMOD ADD STOP CALLER "
                },
                "methodIdentifiers": {
                    "BRIBE_VAULT()": "be309bca",
                    "DEFAULT_ADMIN_ROLE()": "a217fddf",
                    "PROTOCOL()": "91b9b827",
                    "TEAM_ROLE()": "49d5e604",
                    "addWhitelistTokens(address[])": "e3113df9",
                    "allWhitelistedTokens(uint256)": "e468baf0",
                    "depositBribe(bytes32)": "2f476003",
                    "depositBribeERC20(bytes32,address,uint256)": "a602d140",
                    "generateBribeVaultIdentifier(bytes32,uint256,address)": "3eeed1a5",
                    "generateRewardIdentifier(uint256,address)": "40c58189",
                    "getBribe(bytes32,uint256,address)": "f7e6b46b",
                    "getRoleAdmin(bytes32)": "248a9ca3",
                    "getWhitelistedTokens()": "e26f7900",
                    "grantRole(bytes32,address)": "2f2ff15d",
                    "grantTeamRole(address)": "f52c395a",
                    "hasRole(bytes32,address)": "91d14854",
                    "indexOfWhitelistedToken(address)": "8e8efaee",
                    "isWhitelistedToken(address)": "ab37f486",
                    "proposalDeadlines(bytes32)": "21298310",
                    "removeWhitelistTokens(address[])": "b25706f3",
                    "renounceRole(bytes32,address)": "36568abe",
                    "revokeRole(bytes32,address)": "d547741f",
                    "revokeTeamRole(address)": "5699fbad",
                    "rewardForwarding(address)": "07cd2ffe",
                    "setRewardForwarding(address)": "f96258c4",
                    "supportsInterface(bytes4)": "01ffc9a7"
                }
            }
        }
    }
}